:020000040800F2
:10000000A0120024C502000851270008412700085B
:100010004927000841030008A92900080000000042
:100020000000000000000000000000006929000836
:100030004903000800000000592700087129000842
:10004000DF02000800000000DF020008DF020008F5
:10005000DF020008DF0200080000000000000000CE
:10006000DF020008DF020008DF02000800000000D5
:1000700000000000DF020008000000000000000097
:10008000DF020008DF020008DF020008DF020008CC
:10009000DF020008DF020008DF020008DF020008BC
:1000A000DF020008DF020008DF020008DF020008AC
:1000B000DF020008DF020008DF020008DF0200089C
:1000C000DF0200080000000000000000DF0200085E
:1000D000DF020008DF020008DF020008DF0200087C
:1000E000DF020008DF020008DF020008DF0200086C
:1000F000DF020008DF020008DF020008DF0200085C
:10010000DF020008DF020008DF020008DF0200084B
:10011000DF020008DF020008DF020008DF0200083B
:10012000DF020008DF020008DF020008DF0200082B
:10013000DF020008DF020008DF020008DF0200081B
:10014000DF020008DF020008DF020008DF0200080B
:10015000DF020008DF020008DF020008DF020008FB
:10016000DF020008DF020008DF020008DF020008EB
:10017000DF020008DF020008DF020008DF020008DB
:10018000DF020008DF02000899290008DF020008EA
:10019000DF020008DF020008DF020008DF020008BB
:1001A000DF020008DF020008DF020008DF020008AB
:1001B000DF020008DF020008DF020008DF0200089B
:1001C000DF020008DF020008DF020008DF0200088B
:1001D000DF020008DF02000800000000000000004D
:1001E00000000000DF020008DF020008DF02000854
:1001F000DF020008DF02000800000000000000002D
:10020000DF020008DF020008DF020008DF0200084A
:10021000DF020008DF020008DF020008DF0200083A
:10022000DF020008DF020008DF020008DF0200082A
:10023000DF020008DF020008DF020008DF0200081A
:10024000DF020008DF020008DF020008DF0200080A
:10025000DF020008DF020008DF020008DF020008FA
:10026000DF020008DF020008DF020008DF020008EA
:10027000DF020008DF020008DF020008DF020008DA
:10028000DF020008DF020008DF020008DF020008CA
:10029000DF020008DF020008DF020008DF020008BA
:1002A000DF020008DF020008DF020008DF020008AA
:1002B000DFF80CD000F02AF800480047C92B0008EE
:1002C000A01200240648804706480047FEE7FEE7E4
:1002D000FEE7FEE7FEE7FEE7FEE7FEE7FEE7FEE7F6
:1002E00079290008B1020008D2B201E000F8012B20
:1002F000491EFBD270470022F6E710B513460A46A6
:1003000004461946FFF7F0FF204610BD1CB509480A
:100310000090094801900546009C06E0E06840F026
:10032000010394E8070098471034AC42F6D3FFF776
:10033000C3FF0000D8390008F839000800000000A9
:10034000FEE7000000000000704700000000000011
:10035000002908BF70472DE9F04F81B04FF67F723A
:1003600040F2040EC0F22902C5F6000E02EA902205
:10037000009200F1200B00220027002429E000BF9A
:100380000323056803FA02F96FF0030303EA540339
:1003900045EA0905056007F01C050F2606FA05FC6D
:1003A0005BF8035025EA0C054BF80350836823EAF9
:1003B00009038360436823EA08034360C36823EAB0
:1003C0000903C3600134043731FA04F302F1020275
:1003D0003CD0012303FA04F818EA0109F2D040F2F4
:1003E000305324F00305C5F6000307F00C0CED585C
:1003F0000F2303FA0CFA009B05EA0A0503FA0CF630
:10040000B542BDD1DEF87C604FF0B04326EA090664
:10041000CEF87C60DEF8806026EA0906CEF88060BF
:10042000DEF8006026EA0906CEF800601D68A6081E
:1004300025EA09051D6040F23053C5F6000353F864
:10044000265025EA0A0543F8265099E701B0BDE891
:10045000F04F7047000000002DE9F04F82B00F68A8
:10046000002F00F0B2804FF67F7340F2040EC0F20E
:100470002903C5F6000E00F12002009203EA902243
:1004800000234FF0010A0025002601920AE000BF78
:1004900001360F6837FA06F205F1020503F104038D
:1004A00000F093800AFA06FC17EA0C09F0D0D1F8A4
:1004B00004B003220BF0030702FA05F87C1E012C9E
:1004C00012D88468D1F80CA024EA08040AFA05F2CC
:1004D00022438260CBF3001442684FF0010A22EA03
:1004E0000C02B44022434260032F20D0C2688C68C3
:1004F00022EA0802AC40022F42EA0402C26016D18E
:100500006FF0030203F01C0402EA560B009A0F2757
:1005100052F80BC007FA04FA0F692CEA0A0C4FF0E4
:10052000010A07FA04F444EA0C0742F80B70026867
:100530004F6807F0030422EA0802AC4017F4403F7A
:1005400042EA04020260A3D040F2305826F00302CF
:10055000C5F6000803F00C070F2452F808C0BC4091
:100560002CEA040C019C04FA07F747EA0C0742F84E
:1005700008704FF0B048D8F800C04F684CEA090442
:10058000FA0258BF2CEA0904BA02C8F80040DEF8A3
:1005900000C04CEA090458BF2CEA0904BA03CEF89B
:1005A0000040DEF880C04CEA090458BF2CEA090478
:1005B000FF03CEF88040DEF87C2042EA090458BFF1
:1005C00022EA0904CEF87C4062E702B0BDE8F08F71
:1005D000426902EA0103914341EA034181617047A4
:1005E0001823002A08BF2823C150704700000000CC
:1005F00040F29820C2F200400068704700000000FE
:1006000040F2040040F29821C2F20040C2F20041E0
:1006100000780A681044086070470000000000007D
:1006200080B5032000F0DCF80F2000F009F8002866
:100630001CBF012080BD00F08BF8002080BD0000B1
:1006400040F20401C2F20041097819B310B5044622
:1006500040F20000C2F200404FF47A72B2FBF1F1B6
:100660000068B0FBF1F001F01FFB0F2C01464FF0CA
:1006700001000ED8002918BF10BD4FF0FF30002236
:10068000214600F07DF840F208010020C2F200414E
:100690000C6010BD0120704710B54EF6A051437894
:1006A000CEF2000190F800C041F8083C0B6823F03E
:1006B00001030B600B6823F001030B60436841F8F2
:1006C000043C90F80CE0C27A837A447B120642EA3A
:1006D0000E7290F80EE042EAC342C37B42EA8442C3
:1006E000447A42EA4E42007A42EA034242EA042253
:1006F00042EA400040EA0C00086010BD0000000023
:100700004EF62450CEF20000BFF35F8F016821F453
:100710008031016000210167BFF34F8FBFF36F8FFE
:1007200070470000000000004EF6245140F0010028
:10073000CEF20001BFF35F8F0867086840F4803095
:100740000860BFF34F8FBFF36F8F7047000000004A
:100750007047000000000000002848BF704700F00C
:100760001F01012202FA01F14EF20012C0F34A10F9
:10077000CEF2000242F82010704700000000000096
:1007800070B54EF60C5C4FF0FF36CEF2000C00F167
:10079000604505F56445DCF80030C3F3022E8EF0A9
:1007A0000703042B28BF0423BEF1030406FA03F356
:1007B00021EA030100F00F0338BF0024043B0028A6
:1007C000634406FA04F048BF03F10C05A14022EA95
:1007D000000008430001287070BD00000000000008
:1007E0004EF60C514FF6FF03CEF200010A681A4094
:1007F00060F30A2242F0806040F0FD7008607047AC
:1008000070B544F60C060446C5F602063168306839
:1008100001F00701062912D120F01F0020433060AB
:10082000FFF7E6FE054600BF56F8080C80070CD41B
:10083000FFF7DEFE401BB0F57A7FF5D915E000F03A
:100840001F00001B18BF012070BDA4F11D0001286E
:100850000DD8FFF7CDFE04463068C00307D4FFF77C
:10086000C7FE001BB0F57A7FF6D9012070BD0020CD
:1008700070BD000000000000B0B544F61405C5F6D8
:100880000205296821F0010108432860FFF7B0FE46
:10089000044600BF2868800707D4FFF7A9FE001BA5
:1008A000B0F57A7FF6D90120B0BD0020B0BD0000C0
:1008B000B0B544F60C05C5F60205286840F0807016
:1008C0002860FFF795FE04462868400107D4FFF72B
:1008D0008FFE001BB0F57A7FF6D90120B0BD002055
:1008E000B0BD00000000000044F60C00C5F6020098
:1008F000016841F480410160704700000000000081
:1009000044F60C00C5F60200016841F400410160A4
:1009100070470000000000002DE9F041817844F2AA
:100920002C45C5F60205490702D4002600213DE00A
:10093000696C11F440711ED0C26F02F44072914292
:1009400019D0D5F8D41341F48071C5F8D413D5F873
:10095000D413C90503D40126002179B925E0696CB7
:100960006A6C42F480326A646A6C21F4407122F449
:1009700080326A64696400260121B1B1C16FB1F5AA
:10098000807F0FD18046FFF733FE044641F289375E
:10099000686C800705D4FFF72BFE001BB842F7D325
:1009A00003264046002E00F00A8131460268D30734
:1009B0003AD1930746D4530761D4130700F17E80E0
:1009C000930200F18480D30600F19280930600F137
:1009D000BC80530600F11781130600F11D81D30579
:1009E00000F12381930500F12E81130500F1578159
:1009F000530500F16981D30400F17B81930400F178
:100A0000AE81530400F1C581130400F1DC81D303EE
:100A100000F1F181930300F1F581130300F10082ED
:100A2000D20200F1298298E24368032B00F2C280CF
:100A3000DFE803F002A8B802002E00F0AA803146D9
:100A40009307B8D58368ABB1202B0FD0102B40F0A3
:100A50008B802F6847F400272F606EB92F6A27F02C
:100A600030073B432B625307A7D508E02F6847F4B4
:100A700080172F60002EF1D0314653079DD5C368F3
:100A8000B3B1802B10D0402B40F073802F6847F417
:100A900000272F6076B92F6A27F0C0073B432B62EF
:100AA00013077FF58DAF09E02F6847F480172F609B
:100AB000002EF0D0314613077FF582AF2B6A07690D
:100AC00023F040533B432B6293027FF57CAF436D91
:100AD00023B1042B23D14FF4801701E04FF40027FA
:100AE0002C6827432F60EEB13146D3067FF56EAFF9
:100AF0004369B3F1007F22D0B3F1807F1BD0002B7C
:100B00003CD12F6847F480372F60D6B92F6A27F081
:100B100040773B432B6293067FF55BAF15E00126E0
:100B2000002EE1D12F6A27F004073B432B62D30646
:100B30007FF54CAFDCE72F6847F000572F60002EA1
:100B4000E4D0314693067FF544AF83694FEA3357CB
:100B5000052F00F2B281DFE807F04F034B4F4F4FF4
:100B60002F6847F4803746E00126002E7FF484AFDB
:100B700074E70126002E7FF49DAF8CE70126002E3E
:100B8000DFD1C3E72F6847F040072F60002E7FF4C6
:100B900056AF2F6A27F003073B432B6293077FF57D
:100BA0000AAF4FE72F6847F480272F60002E7FF4AD
:100BB00046AFEEE70126002E7FF441AFE9E7C16FB3
:100BC00055F81C2C6FF0300322F47C5203EA111309
:100BD00011F47C3F18BF1A4301F4407145F81C2CF6
:100BE0006A6C11436964696C41F4004169649DE673
:100BF0002F6847F000672F60002E00F062813146B9
:100C000053067FF5E9AE6B6AC76923F040533B4357
:100C10006B6213067FF5E3AE2B6A076A23F4403359
:100C20003B432B62D3057FF5DDAE436A33B1B3F5A9
:100C3000802F1ED12F6847F080472F60E6B13146E4
:100C400093057FF5D2AE836A1BB3B3F5000F1CD0BA
:100C5000B3F5800F5CD12F6847F040072F60D6B9FD
:100C60006F6A27F440073B436B6213057FF5C0AE04
:100C700015E00126002EE2D12F6A27F480273B439E
:100C80002B6293057FF5B1AEDDE72F6847F480371F
:100C90002F60002EE4D0314613057FF5A9AEC36A5C
:100CA0006FF0010707EB3337022F08D34FEA3337D2
:100CB0002FB1012F30D12F6847F000572F6076B346
:100CC000314653057FF597AE036B6FF0010707EBD5
:100CD0003327022F08D34FEA33272FB1012F27D113
:100CE0002F6847F000572F602EB33146D3047FF5AD
:100CF00085AE436B4FEA3347052F00F2EB80DFE808
:100D000007F02703232727272F6847F480371EE0A3
:100D10000126002EBFD1A3E70126002ED0D16F6A95
:100D200027F440573B436B6253057FF564AECBE736
:100D30000126002ED9D16F6A27F440773B436B62BE
:100D4000D3047FF55BAED4E72F6847F000572F60E0
:100D5000002E00F0C380314693047FF552AE836BC2
:100D60004FEA3327052F00F2C280DFE807F00B03BC
:100D7000070B0B0B2F6847F4803702E02F6847F012
:100D800000572F60002E00F0B680314653047FF5E7
:100D90003BAEC36B4FEA3337052F00F2B580DFE877
:100DA00007F00B03070B0B0B2F6847F4803702E0AB
:100DB0002F6847F000572F60002E00F0A9803146C1
:100DC00013047FF524AE036C052B00F2AA80DFE844
:100DD00003F00B03070B0B0B2F6847F4003702E0FF
:100DE0002F6847F080572F60002E00F09E8031461C
:100DF000D3037FF50FAE2B6843F000532B609303B2
:100E00007FF50BAE836CB3F1006F04D0BBB92F68D4
:100E100047F000572F60AEB1314613037FF500AEA7
:100E2000C36C4FEA3347042F3BD8DFE807F0183391
:100E300014030300CEB13146D2021DD48DE0012649
:100E4000002EE9D12F6A27F000673B432B62130382
:100E50007FF5E6ADE4E72F6847F0006702E02F6812
:100E600047F040072F60002EE5D1AF6A27F4E02756
:100E70003B43AB62D20270D5026D4FEA3253052B71
:100E80005CD8DFE803F0125F16030303002E5FD087
:100E9000314662E02F6847F480372F60002ECAD1B8
:100EA000E3E70126002EC6D1DFE72B6843F04003BD
:100EB0004BE02B6843F0006347E00126002E7FF4EF
:100EC0009EAE2F6A27F4E0073B432B6253067FF563
:100ED00083AD98E60126002E7FF43DAF6F6A27F4BC
:100EE000E0273B436B6293047FF58BAD37E7012628
:100EF000002E7FF44AAFEF6A27F4E0673B43EB62D2
:100F000053047FF581AD44E70126002E7FF457AFEF
:100F1000EF6A27F4E0473B43EB6213047FF577ADBC
:100F200051E70126002E7FF462AFEF6A27F0070732
:100F30003B43EB62D3037FF56DAD5CE70126002EEA
:100F4000A6D105E02B6843F480332B60002E9FD19F
:100F5000AB6A23F4E0031A43AA620268530227D45F
:100F6000130248D4D30156D4930100F16480530195
:100F700000F1BC80D30000F1D380930000F1E88041
:100F8000530000F1FC80B2F1FF3F40F304811201F5
:100F900008D555F81C2CD0F8800022F400421043EC
:100FA00045F81C0C002918BF01210846BDE8F08156
:100FB000836E4FEA3367032F4CD8DFE807F0020651
:100FC00013172F6847F0400702E02F6847F4802787
:100FD0002F606EB96F6A27F040773B436B62130254
:100FE000C0D508E02F6847F000572F60002EF1D0E1
:100FF00031461302B6D5836D4FEA3327042F00F232
:101000006180DFE807F033512B030300002E33D05B
:101010003146D301A8D5C36D4FEA3317042F56D8F4
:10102000DFE807F0334920030300002E33D03146B8
:1010300093017FF59CAF036E4FEA3317052F00F243
:10104000E080DFE807F04C03484C4C4C2F6847F435
:10105000003743E00126002ECAD1BBE72F6847F0D6
:10106000006706E02F6847F0006711E02F6847F03F
:1010700040072F60002ECBD1AF6A27F4E0673B43D7
:10108000AB62D3017FF570AFC5E72F6847F040072B
:101090002F60002ECBD16F6A27F070073B436B6245
:1010A00093017FF564AFC6E72F6847F480372F6060
:1010B000002EADD1E0E72F6847F480372F60002E77
:1010C000B5D1E8E70126002E7FF4A2AFD4E70126D0
:1010D000002EACD1DFE72F6847F080572F60002E3D
:1010E00000F09380314653017FF544AF436E4FEAE1
:1010F0003317052F00F29280DFE807F00B03070B90
:101100000B0B2F6847F4003702E02F6847F0805739
:101110002F60002E00F086803146D3007FF52DAF82
:10112000C36E052B00F28780DFE803F00B03070B8B
:101130000B0B2F6847F4003702E02F6847F0805709
:101140002F60002E00F07B80314693007FF518AFB2
:10115000036F052B00F27C80DFE803F00B03070B25
:101160000B0B2F6847F4003702E02F6847F08057D9
:101170002F60002E70D0314653007FF504AF436FCF
:10118000002B18BFB3F5805F25D1D6B13146B2F13F
:10119000FF3F3FF7FCAE836F6FF0010707EBB337FC
:1011A000022F08D34FEAB3372FB1012F1DD12F687B
:1011B00047F080572F60DEB1012112013FF5E9AE03
:1011C000F0E62F6A27F440573B432B62B2F1FF3F12
:1011D0003FF7DDAEDFE7B3F5005F04D12F6847F0DE
:1011E00080572F60D1E70126CFE70126002EE3D1FB
:1011F0002F6A27F440473B432B6212013FF5C9AEEB
:10120000D0E60126002E7FF46DAFAF6A27F070079D
:101210003B43AB6253017FF5ADAE67E70126002E7D
:101220007FF47AAFEF6A27F070073B43EB62D3009D
:101230007FF5A3AE74E70126002E7FF485AFAF6A79
:1012400027F007073B43AB6293007FF599AE7FE73A
:101250000126002E7FF48FAF6F6A27F007073B430C
:101260006B6253007FF58FAE89E70000000000003D
:101270002DE9F04381B0002800F0E78042F2000839
:101280000446C5F200288946D8F8000000F03F0067
:1012900088420ED2D8F8000020F03F0040EA090052
:1012A000C8F80000D8F8000000F03F00484540F0C2
:1012B000CC80206844F220474107C5F602070AD5D2
:1012C00021693A6802F00702914204D93A6822F093
:1012D00007021143396001070AD561693A6802F0D3
:1012E0007002914204D93A6822F0700211433960C9
:1012F000C1060AD5A1693A6802F4E062914204D9B4
:101300003A6822F4E0621143396081060AD5E16946
:101310003A6802F4E042914204D93A6822F4E04289
:101320001143396081070DD5E16857F8042C02F0AC
:101330000F02914206D957F8042C22F00F021143F4
:1013400047F8041CC0076AD1206881070DD5E16801
:1013500057F8042C02F00F02914206D257F8042CE1
:1013600022F00F02114347F8041CD8F8001001F0D6
:101370003F0149450DD9D8F8001021F03F0141EA5D
:101380000901C8F80010D8F8001001F03F014945E4
:101390005BD141070AD521693A6802F00702914200
:1013A00004D23A6822F007021143396001070AD5D6
:1013B00061693A6802F07002914204D23A6822F000
:1013C000700211433960C1060AD5A1693A6802F476
:1013D000E062914204D23A6822F4E062114339603B
:1013E00080060AD5E069396801F4E041884204D2F8
:1013F000396821F4E0410843386000F06DF940F2AB
:10140000080140F20002C2F20041C2F20042096843
:101410001060084601B0BDE8F043FFF711B957F876
:10142000080C20F00F01D4E90102114347F8081C11
:10143000012857F8201C0CD0032804D0022829D1F9
:10144000890302D507E0890105D4012001B0BDE878
:10145000F083C905F9D557F8101C21F0070108439E
:1014600047F8100CFFF7C4F8064641F2883500BF74
:1014700057F8100C616800F03800B0EBC10F3FF472
:1014800063AFFFF7B5F8801BA842F1D9032001B084
:10149000BDE8F0834907D8D5DDE700000000000073
:1014A00010B544F21C44C5F6020400F015F9216899
:1014B00001F00F01082907D343F6D012C0F600024D
:1014C000114411F8081CC840616801F00701033994
:1014D00038BF0021C84010BD10B544F21C44C5F609
:1014E000020400F0F9F8216801F00F01082907D380
:1014F00043F6D012C0F60002114411F8081CC8408F
:101500006168C1F30211033938BF0021C84010BD22
:1015100010B544F21C44C5F6020400F0DDF8216861
:1015200001F00F01082907D343F6D012C0F60002DC
:10153000114411F8081CC8406168C1F30221033945
:1015400038BF0021C84010BD10B544F20043C5F6B5
:101550000203D3F838E09A6A986BC2F305344CB1B1
:101560006FF35F20D96A090500F1010C04D49FEDE7
:10157000240A0CE000213CE0D86B9FED221AC0F356
:10158000CC0000EE100AB8EE400A20EE010A02F08C
:10159000030002280BD0012806D010B91868800675
:1015A00008D49FED171A12E09FED181A0FE09FED77
:1015B000161A0CE0186849F20001C0F2D031C0F3ED
:1015C000C10021FA00F001EE100AB8EE411A02EE55
:1015D000104A03EE10CAB8EE422AB8EE433A81EE42
:1015E000021A30EE030A20EE010ABCEEC00A10EE29
:1015F000101ACEF306400130B1FBF0F010BD00BF71
:101600000000000000000039001BB74B0024744AA2
:1016100010B544F20043C5F60203D3F840E09A6ADD
:10162000186CC2F305544CB16FF35F20D96A4902BC
:1016300000F1010C04D49FED240A0CE000213CE0F1
:10164000586C9FED221AC0F3CC0000EE100AB8EEE1
:10165000400A20EE010A02F0030002280BD0012804
:1016600006D010B91868800608D49FED171A12E04A
:101670009FED181A0FE09FED161A0CE0186849F25A
:101680000001C0F2D031C0F3C10021FA00F001EE38
:10169000100AB8EE411A02EE104A03EE10CAB8EE74
:1016A000422AB8EE433A81EE021A30EE030A20EEE7
:1016B000010ABCEEC00A10EE101ACEF3064001304B
:1016C000B1FBF0F010BD00BF0000000000000039C9
:1016D000001BB74B0024744A80B544F20040C5F6A5
:1016E00002000169C1F3C201032914D002290DD0FF
:1016F00021BB0168890626D5016849F20002C0F2C3
:10170000D032C1F3C10122FA01F161E043F200617C
:10171000C0F26E115CE0826A816AC36AD0F834C09C
:10172000C1F3051179B102F00302022A0DD07AB992
:10173000026892060FD49FED2D0A3BE040F600119F
:10174000C0F23D0144E0002142E09FED270A0FE096
:101750009FED240A0CE00268C2F3C10E49F20002B8
:10176000C0F2D03222FA0EF200EE102AB8EE400A91
:1017700003F001029FED1E3A524202EADC026FF3CF
:101780005F3201EE102A026B6FF35F2202EE102A25
:10179000B8EE411AB8EE422A01EE032A01EE101A01
:1017A000B7EE003AB8EE411A80EE010A32EE031AA3
:1017B00020EE010A016BC1F34621013101EE101A3E
:1017C000B8EE411A80EE010ABCEEC00A10EE101A03
:1017D000806900F00F00073838BF002021FA00F0C0
:1017E00080BD00BF0024744A001BB74B00000000FE
:1017F000000000390000000000286AD02DE9F04305
:1018000081B044F200460446C5F602063069B16A6A
:101810003768227800F0380801F00309D2070ED0AB
:10182000B8F1100F07D017F0285F00F0C780B9F1AA
:10183000020F40F0C3806068002800F08B802078A1
:10184000800748D42078C0060DD5B8F1080F07D01E
:1018500017F0285F00F00481B9F1010F40F000811A
:10186000206A002876D02078000777D42078800678
:1018700000F18B802078400700F1CE80214651F89E
:10188000240F002800F03A81B8F1180F40F02C81A5
:1018900001285FD0706BA16CC0F3CC00814200F0D6
:1018A0002D81F06A20F00100F062FEF7A1FE0546EE
:1018B000FEF79EFEA842FBD0706B4FF6F871A26C4B
:1018C000884340EAC2007063F06A40F00100F062B1
:1018D00014E101207047B8F1000F05D017F0285F20
:1018E00079D0B9F1000F76D1E06898B3B9F1000F63
:1018F000306807D117F0285104D000F01800216992
:10190000884227D13068216920F01800B8F1000F13
:1019100040EA010040F0010030600DD1306840F233
:10192000000249F20001C2F20042C0F3C100C0F25D
:10193000D03121FA00F0106040F20800C2F20040FD
:101940000068FEF77DFE002800F0F680012001B05F
:10195000BDE8F083012001B0BDE8F083A069002854
:10196000706F6AD040F001007067FEF741FE0546D7
:10197000706F80073FF57AAFFEF73AFE401B0128F3
:10198000F6D9032001B0BDE8F083E0690028306893
:1019900000F0978040F480503060FEF729FE054645
:1019A000306880043FF566AFFEF722FE401B012839
:1019B0004FF00300F4D901B0BDE8F08361683068EE
:1019C000B1F5A02F64DA002900F0DF80B1F5803F87
:1019D00000F0EE80CEE0E0683168002800F0B480CE
:1019E00021F01901D4E904231143084330607068E1
:1019F00020F0FE4040EA03607060FEF7F9FD054606
:101A0000306840073FF51EAFFEF7F2FD401B01288E
:101A10004FF00300F4D9CEE7D6F8000440F480700C
:101A2000C6F80004A568306F042D3DDC002D00F0E1
:101A3000FC80012D00F00C81ECE020F001007067CB
:101A4000FEF7D6FD054600BF706F80077FF50EAF2D
:101A5000FEF7CEFD401B01284FF00300F4D9AAE7A2
:101A6000206A0028306800F0C38040F080003060B9
:101A7000FEF7BEFD054600BF3068C0053FF5F3AE7A
:101A8000FEF7B6FD401B01284FF00300F4D992E7A2
:101A900000F08680B1F5502F6CD140F4802030608A
:101AA000306840F4002081E0052D00F0C980852DCC
:101AB00040F0B08040F004003067306F40F08000AC
:101AC000C4E020F480503060FEF792FD054600BF70
:101AD000306880047FF5CEAEFEF78AFD401B0128FA
:101AE0004FF00300F4D966E701206064002000F0A5
:101AF00037FE0146012000297FF45DAF214651F8F1
:101B00004C0F38B1012000F02BFE014601200029C6
:101B10007FF451AF214651F8740F38B30120C4F857
:101B20009400022000F01CFE01460120002908BF9D
:101B3000002001B0BDE8F0837068616920F0FE40CC
:101B400040EA016070607DE621F001003060FEF740
:101B50004FFD0546306840077FF574AEFEF748FD3F
:101B6000401B01284FF00300F4D924E7002001B006
:101B7000BDE8F08320F480303060306820F48020AD
:101B80003060306820F4002014E020F480303060B1
:101B9000306820F400203060306820F4802009E0B4
:101BA00040F480203060306820F4002030603068DD
:101BB00040F480303060FEF71BFD6168054699B146
:101BC000306880033FF53BAEFEF712FD401B6428F2
:101BD0004FF00300F4D9EEE6FEF70AFD401B64283F
:101BE0004FF003003FF6E7AE30688003F4D426E6FA
:101BF00020F080003060FEF7FBFC05463068C00531
:101C00007FF531AEFEF7F4FC401B01284FF00300D6
:101C1000F4D9D0E620F001003067306F20F00400E6
:101C20003067306F20F0800014E020F00100306752
:101C3000306F20F080003067306F20F0040009E042
:101C400040F004003067306F20F080003067306F64
:101C500040F001003067FEF7CBFC002D054641F255
:101C6000883713D0306F80073FF508AEFEF7C0FC11
:101C7000401BB8424FF00300F4D99CE6FEF7B8FCD5
:101C8000401BB8424FF003003FF695AE306F80071F
:101C9000F4D4F3E50000000040F21051C5F6000155
:101CA0000A68104308607047411E0020B0EB116FB6
:101CB00001D0012070474EF21002F023CEF2000254
:101CC00051604EF62351CEF200010B700721906057
:101CD00011607047000000002DE9F043A7B00446F2
:101CE00006A88421FEF707FB41F200022168C4F236
:101CF0000022002091420590CDE90300029001905E
:101D000002D027B0BDE8F083219006A84FF08051A3
:101D10000691FEF701FE44F2405040F20044C5F641
:101D20000200C5F6020401AD4FF0020801694FF050
:101D3000010941F0100101610169009100990168F8
:101D400041F002010160016800910099016841F0D1
:101D5000020101600068009000984FF480400190FB
:101D600020462946CDF80880CDF80C90032604962D
:101D700004270597FEF770FB01A94FF40040CDE959
:101D8000046781E8010320462946FEF765FB5220DF
:101D900003210022FEF7F4FC5220FEF7DDFC27B001
:101DA000BDE8F0830000000041F200010068C4F2C9
:101DB0000021884218BF704740F2F410C2F2004080
:101DC000B0F90010002922D489B240F29402C2F284
:101DD0000042B1F5804F137804D20D2B0CD141F4A1
:101DE000804213E048F2000C0022CFF6FF7C0A2B61
:101DF00008BF41EA0C0209E040F22C1C4A1CC2F266
:101E0000004CC6290CF8013088BF0022028040F245
:101E1000980040F29401C2F20040C2F20041012257
:101E200001F0A9BD00000000F0B586B04BF20047FC
:101E30000023C5F200276A464FF0010C0593CDE957
:101E40000333CDE90133009305E000BF0024D450F3
:101E50000C330C2B1CD13D6802EB030453B13E68DC
:101E600085EA56062CEA060666603E68F606EDD55B
:101E7000402406E0C5F3400565603D68ED06E5D504
:101E800020243E6826424FF0700408BF1024DEE78D
:101E900045F2000CC5F2002CDCF80020D20701D17D
:101EA000002306E0DCF80020012322F00102CCF838
:101EB00000204AF2000EC5F2002EDEF80020D20704
:101EC00006D0DEF80020023322F00102CEF8002016
:101ED00000223A603A688C68002522F47F02CFF62F
:101EE000FF7505EB044422433A600068704508D052
:101EF000604538D1D1E90001019160B16FF0300146
:101F000005E0D1E90001049128B16FF050013A6871
:101F100011400843386001980499884212D1396809
:101F200041F00101396001280ED0D80712D198077D
:101F300005D5DEF8000040F00100CEF800000020DA
:101F400006B0F0BD0128F0D1386840F002003860DA
:101F5000D807ECD0DCF8000040F00100CCF800001D
:101F60009807E6D4EBE7012006B0F0BD00000000C2
:101F70002DE9F04715460F460446FEF739FB216868
:101F8000D1F84880D1F81091626D042A49D1824677
:101F9000F868B0F5800F44D1086A800653D42068F1
:101FA000D4F80CC097E84C00F968C0F88820C0F855
:101FB0008030BCF1806F3A69C0F89020026822F04E
:101FC000435242EA060241EA020141F00051016037
:101FD0004FF0480107D0D0F8002112F4E06204BFAE
:101FE0004FF48871C84640F80180006A00071DD48C
:101FF0006E1C03E02068006A000717D4002EF9D099
:10200000FEF7F6FA1DB1A0EB0A00A842F2D94FF490
:1020100000706065A06D002140F00100A065032004
:1020200006E01020A0650120BDE8F0870020012116
:10203000002908BFBDE8F087216808224A62022112
:102040006165BDE8F0876E1C04E000BF2068006A8F
:102050008006A4D5002EF9D0FEF7CAFA1DB1A0EB78
:102060000A00A842F2D94FF400706065A06D40F0FC
:102070000100A0650220BDE8F0870000000000001C
:102080002DE9F041154688460446FEF7B1FA616D28
:102090000646242913D0142909D0022922D1E06848
:1020A000B0F1806F11D1242909D014291AD1D8F8A0
:1020B000000020F00100022807D0242912D1D8F80E
:1020C000000040F0020003280CD12068006A80065E
:1020D0000DD40020A0652046414600F069FCF8B10F
:1020E000BDE8F0811020A0650120BDE8F0816F1CE3
:1020F00004E000BF2068006A8006EAD5002FF9D00E
:10210000FEF776FA15B1801BA842F3D94FF40070A0
:102110006065A06D40F00100A0650220BDE8F0817F
:10212000D8F8381069B1D8F80010022932D0012946
:1021300029D0002918BFBDE8F08104216165BDE800
:10214000F0812068006A800717D46F1C04E000BF8C
:102150002068006A800710D4002FF9D0FEF748FAF3
:1021600015B1801BA842F3D94FF400706065A06DD3
:1021700040F00100A065032000E000202168022259
:102180004A62BDE8F081616D2429D6D014216165D1
:10219000BDE8F081616D1429CFD024216165BDE8CF
:1021A000F08100000000000078B110B5016804461D
:1021B0000A6822F001020A608A6822F002028A603C
:1021C00000F026F90020606510BD01207047000076
:1021D000F0B581B00446FEF70BFA34B10546002095
:1021E000A065616D21B101B0F0BD012001B0F0BD6D
:1021F000204600F031F941F28830E065206804F1B2
:102200000C074CF2FC068CCF8168CFF6E0060E403E
:102210006FF0FF013243E66942EA034201EB072314
:1022200032431A438260C268236A22F4E0221A43CE
:10223000C2600269236B22F4F81242EA034202618F
:102240000269636B22F0FF021A430261A26B4261D2
:102250000268636822F47C5201EB032111430160A0
:10226000006A80060BD541F2893600BFFEF7C0F93F
:10227000401BB04208D22068006A8006F6D40020D5
:1022800001210029AFD00AE04FF400706065A06D15
:10229000002140F00100A06503200029A3D021689F
:1022A0004AF20007626AC5F20027CB68B94223F000
:1022B000FF0342EA0302CA6005D045F20002C5F2FC
:1022C0000022914208D1E66D086A800631D40020D0
:1022D000012100293FF487AF21684FF6BF75A2683E
:1022E000CFF6FF65A369A76A0E682E40E56B3243FF
:1022F000022B42EA05020A60D1F80821E66A22F0C0
:10230000A04242EA070242EA0602C1F808210A682E
:1023100042F001020A6003D18A6842F002028A6038
:10232000E1680222B1F1806F08BF0122626501B04D
:10233000F0BD771C04E000BF2068006A8006C6D5A7
:10234000002FF9D0FEF754F916B1401BB042F3D973
:102350004FF400706065A06D002140F00100A065A1
:10236000032000293FF43FAFB6E700000000000063
:102370002DE9F04188460446FEF73AF9616D0429DB
:1023800026D106462068E76D006A800625D4002025
:102390000121002908BFBDE8F08188216165D8F8D6
:1023A000001008290AD12268D8F80430C2F8303168
:1023B00010235362136843F4801313602268136878
:1023C00023F00803194341F040511160BDE8F0814A
:1023D0001020A0650120BDE8F0817D1C04E000BF55
:1023E0002068006A8006D2D5002DF9D0FEF700F9EA
:1023F00017B1801BB842F3D94FF400706065A06D2F
:10240000002140F00100A0650320C2E700000000A9
:1024100045F200010068C5F20021884218BF7047EC
:1024200010B544F2345043F60004C5F60200C5F678
:102430000204016821F480410160016821F020015B
:10244000016004F58060FF21FDF782FF1521204621
:10245000BDE81040FDF77CBF2DE9F043A7B004466E
:1024600006A88421FDF747FF45F200012068C5F268
:102470000021002688420596CDE903660296019662
:1024800002D027B0BDE8F0831020089006A84FF0D6
:102490000208CDF81880FEF73FFA44F2345043F6B4
:1024A0000004C5F60200C5F6020401AD4FF00309B1
:1024B0000168092741F48041016001680091009999
:1024C000016841F020010160016800910099C16834
:1024D00041F40041C160C16800910099C16841F4B4
:1024E0008041C160C06800900098FF20CDE90108DC
:1024F00004F5806029460396CDF810900597FDF706
:10250000ABFF15202946CDE9010820460597CDE906
:102510000369FDF7A1FF27B0BDE8F08300000000CC
:102520002DE9F04381B0154688460446FEF760F871
:10253000D4F800900646B8F1000FD9F84800D9F851
:1025400010115FD0626D042A5ED1D9F840200123BA
:102550000132A264A26C6264C4F84080D9F8002001
:1025600063F31D72C9F80020E268B2F1806F04D0F5
:10257000D9F8002112F4E06F4CD0C9F848006F1C64
:102580004FF400780EE00020012111B399F85000BB
:10259000216C0870206CA16C01302064481EA0647E
:1025A000A06C00B32068006A10F0060FEBD1002F7A
:1025B000F8D0FEF71DF815B1801BA842F2D9C4F877
:1025C00054800021A06D40F00100A0650320002987
:1025D000DCD101B0BDE8F0832FB1FEF709F8E5B119
:1025E000801BA84219D82068006A8007F4D5002013
:1025F00001210029EDD0216802224A62626501B002
:10260000BDE8F083082000E01020A065012001B0A3
:10261000BDE8F083C9F81011B1E74FF400706065B0
:10262000A06D002140F00100A06503200029D0D05A
:10263000E1E7000000000000426D120708D40268C4
:102640004162D06820F0FF000843D060002070474E
:1026500010218165012070472DE9F04381B01546B6
:102660000F460446FDF7C4FF002F52D00646D4F8AB
:102670000080606D04284ED1D8F840004FF40079F6
:102680000130A064A06C606427646F1CD8F800005F
:1026900020F04050C8F800002068006A400711D4BC
:1026A000002FF9D0FDF7A4FF15B1801BA842F3D984
:1026B000C4F854900021A06D40F00100A0650320F3
:1026C00019B92BE00020012141B3206C007888F873
:1026D0005000206CA16C01302064481EA064A06CE6
:1026E0000028D9D107E000BF2FB1FDF781FFC5B1A8
:1026F000801BA84215D82068006A8007F4D5002006
:10270000012159B1216802224A62626501B0BDE827
:10271000F083082000E01020A065012001B0BDE892
:10272000F0834FF400706065A06D002140F001005F
:10273000A06503200029E5D1F0E7000000000000BB
:10274000FEE7000000000000FEE7000000000000BF
:10275000FEE70000000000007047000000000000DD
:102760002DE9F04F83B0044644F22C470B20C5F608
:10277000020704FB00F9381D01904FF47870884679
:1027800000FA09F039684FEA440B07F1940202920B
:1027900021EA000038604FF0807000FA0BFA57F819
:1027A0002C0C20EA0A0047F82C0CFDF721FF4FF013
:1027B0000071064601FA0BF557F82C0C284208D098
:1027C000FDF716FF801B3228F6D9032003B0BDE8C1
:1027D000F08FD8F8000002280FD1D8F804000228A2
:1027E0001DD008BB57F82C1C49F20002C0F2D032B1
:1027F000C1F3C10122FA01F11BE0E0004FF47C714A
:10280000043057F8042C01FA00F022EA000040F0EE
:10281000030047F8040C002003B0BDE8F08F43F23A
:102820000061C0F26E1104E040F6FF01C0F23D010C
:102830000131D8F808E0B1FBFEF341F2FF11C0F21C
:102840007A018B4202D94FF0180C12E040F6FF01DA
:10285000C0F23D018B4202D94FF0100C09E048F262
:102860007F464FF0020CC0F21E06B34288BF4FF005
:10287000080CE6004FF47C71B1406FF0030257F88A
:10288000043C5140321D19400EFA02F2114301433B
:1028900047F8041C57F8041C01F0030181425ED183
:1028A0001B20396800FA09F008F10C030CFA09F250
:1028B00021EA0000104338604FF600660FCBCFF6D8
:1028C000FF76A0F1010006EB412140EA010040F251
:1028D0000001CFF6FF7101EB0241A3F1010240EAD2
:1028E0000100019940EA02606FF0FF0241F82B00FD
:1028F000D8E90701A0F1010002EB012140EA010043
:10290000029941F824001CB9386840F02000386072
:10291000D8F8240070B107EB8B014FF6F8738A6882
:102920009A4342EAC00088600120396800FA09F041
:102930000843386057F82C0C40EA0A0047F82C0C82
:10294000FDF756FE044600BF57F82C0C28427FF4D2
:1029500062AFFDF74DFE001B3228F5D935E70120A7
:1029600003B0BDE8F08F00007047000000000000D9
:10297000FDF746BE000000004EF6885140F2000010
:10298000CEF20001C0F6000041F8800C086840F467
:10299000700008607047000040F29800C2F20040EA
:1029A00000F0EEBF00000000FEE7000000000000A5
:1029B0002DE9F047026883681768002B27F0405321
:1029C000136005D113684F6823F040433B43136005
:1029D0000B68022B0AD0032B11D14FF4B0744FF4C3
:1029E000A87C4FF4A4734FF4A07E10E04FF4D07491
:1029F0004FF4C87C4FF4C4734FF4C07E07E04FF42B
:102A000090744FF4887C4FF484734FF4807E8D6C07
:102A100042F80E50CD6A6DB18D6A155152F80E40D4
:102A2000CD6A24F47C144E6B2C430D6B34432C4341
:102A300042F80E40D4584D6C24F01F042C43D4505F
:102A40008B6B23B10C6814B9CC6B013C1464CD685A
:102A5000CC69DDB152F80E60D1E9048754B3D1E9F5
:102A6000089AD3B34CF2C000CFF2FF0030400E6C96
:102A70003043384340EA080040EA0A0040EA0900CF
:102A800018432843204342F80E0041E0002C43D075
:102A900052F80E60002BD1E9080742D04CF2C00575
:102AA000CFF2FF053F352E400D6C2E4337433843A0
:102AB00018433AE0002B40D04CF2C0000C6CCFF22F
:102AC000FF0000F57C5030402043384340EA0800C6
:102AD0001843284342F80E0043E043F63F7326EACA
:102AE00003033B4343EA080343EA0A0343EA0903B7
:102AF0002B43234342F80E30C06AB0F1805F07D108
:102B00004869082804D152F80E0040F00060BAE786
:102B1000886842F80C000BE0082181650120BDE8BF
:102B2000F08726F47C533B431843204342F80E00C1
:102B3000886990640020BDE8F08726F03F033B439E
:102B400043EA08032B4342F80E30C06AB0F1805FBD
:102B500007D14869082804D152F80E0040F00060FF
:102B6000B8E7886842F80C000020BDE8F087000054
:102B700040F29001C2F2004108607047000000007E
:102B800080B54EF2180140F29002CEF20001C2F27E
:102B90000042002351F804CC126850434FF47A727B
:102BA00000FB02FE086800BF0A688242FCD00344B2
:102BB0008242A3EB0203104628BF63447345F3D35C
:102BC00080BD00000000000000F082F800F034F842
:102BD000FDF726FD4FF496700621022200F0F8F86A
:102BE0004FF41670FFF7C4FF4FF4E13000F0A0FE81
:102BF00000F0CBFE40F2E73040F22B1100F0CAFEAD
:102C000040F22B10642100F0CAFE40F600040025BB
:102C1000C5F6020403E000BF0A20FFF7B1FF01354B
:102C2000E8B21428F8D101212046FDF7D1FC002597
:102C3000F2E70000000000004EF61450CEF2000053
:102C40000168890312D4BFF34F8FBFF36F8F002148
:102C5000C0F83C12BFF34F8FBFF36F8F016841F490
:102C600000310160BFF34F8FBFF36F8F0168C9035D
:102C700048BF7047B0B500210167BFF34F8FC26EE8
:102C800043F6E07ED308C2F34E31C2F3C90202F12B
:102C9000010C9B074A0100BF02EA0E0465461C4472
:102CA000013DC0F84C4204F14044F9D10029A1F1A2
:102CB0000101A2F12002EFD1BFF34F8F016841F46F
:102CC00080310160BFF34F8FBFF36F8FB0BD000045
:102CD000F0B585B00025CDE90355CDE90155FDF7E7
:102CE0000FFD01AC0120ADF8040048F21F71CDE9E1
:102CF000031020460295FDF7CFFC02950F2740F206
:102D00000015204640F20116ADF80460C0F201370C
:102D10000397C0F201150495FDF7BEFC40F20120B7
:102D2000ADF804004FF000500495CDE902072046AD
:102D3000FDF7B2FC40F20130ADF804004FF0105046
:102D400002901220C0F20130CDE903052046FDF7C4
:102D5000A3FC40F20140ADF804004FF04050029057
:102D60000E20C0F20130CDE903052046FDF794FCAA
:102D700040F20150ADF804004FF0C040029019201D
:102D8000C0F20030CDE903062046FDF785FC40F295
:102D90000160ADF804004FF0104002901826204664
:102DA000C0F20136CDE90365FDF776FC40F2017013
:102DB000ADF804004FF0E0400495CDE9020620464E
:102DC000FDF76AFC0420FDF7AFFC05B0F0BD000084
:102DD0002DE9F0418AB00646042000230993CDE98D
:102DE0000733CDE90533CDE9033390460F4602930F
:102DF000FDF706FD08B1012488E044F23C55C5F614
:102E00000205FDF771FDFDF77BFDA86940F00200AA
:102E1000A861A869019001984FF40030FEF73CFFCB
:102E20004FF48020FEF738FF01200124FDF724FD38
:102E300000286BD1FDF73CFD00284FF0010465D15F
:102E40002868292140F000502860286801900198E6
:102E5000286840F08040286028680190019840F27E
:102E6000F810C2F200404FF4803200F1780C0025D7
:102E7000C0E900124FF480510622C0E90641022148
:102E80004164C0E90911C0E90B76C0E90D81C0E9D0
:102E90000F11C0E9125101654FF4967342650C277A
:102EA000C0E91631C0E918720326C0F88410C0E9E1
:102EB0001A62C0E91C518CE80E003222C0F898500A
:102EC000C0E92221C0E92471FEF796FCF0B93F2049
:102ED0003721CDE902060820059004200690402005
:102EE00007904FF4806008904FF48040099002A84A
:102EF0000495FEF7BDF94FF0010438B900F00CF865
:102F000040F29420C2F200400470002420460AB02F
:102F1000BDE8F081000000002DE9F04FB3B00020C3
:102F20006C4600212190CDE91F0000BF60540131A3
:102F30006029FBD145F200082046C5F20028CDF8F3
:102F40000080FFF731F90420019000274FF08070D6
:102F50000390182004900320CDE909072046CDF8FE
:102F6000008002970125CDE90557CDE90777CDE926
:102F70000B77CDE90D770F97FFF72AF910201FA9DE
:102F8000CDE91F0741F288322046FEF74DFF1FAE04
:102F90004C213046FDF7AFF921A9662041F2883275
:102FA0002097A1C120463146CDE91C77CDE91A779B
:102FB000CDE91877CDE91E77249726972A972D9784
:102FC000CDE93077FFF75CF8002840F0828021A936
:102FD000992041F288322497A1C168461FA9CDE902
:102FE0001F7726972A972D97CDE93077FFF748F876
:102FF00000286ED142F21070329000BF3298013832
:103000003290FBD146F29960219068461FA941F2A7
:1030100088320025CDE91F550426229610272695D3
:10302000CDE923752A952D95CDE93055FFF728F880
:1030300000284DD121A949F6661041F28832249525
:10304000C1C168461FA9CDE91F5526952A952D9522
:10305000CDE93055FFF714F8D0BB42F21070329032
:10306000329801383290FBD146F29960219068463F
:103070001FA941F288320025CDE91F554FF0040900
:10308000CDF888904FF0100ACDF88CA00826249631
:1030900026954FF000572A952D9530953197FEF7DC
:1030A000EFFFA8B921A949F6661041F288322496AB
:1030B00081E8010668461FA9CDE91F5526952A9586
:1030C0002D95CDE93057FEF7DBFF002800F0388260
:1030D0000125002D00F09A80002004F12805002130
:1030E0002190CDE91F0000BF605401316029FBD160
:1030F0006C46CDF800802046FFF756F8042001907A
:10310000402002904FF0007003901820049003209C
:1031100009902046CDF800800127059700260896E3
:10312000CDE90666C5E90066C5E90266C5E904663B
:10313000FFF74EF810201FA9CDE91F0641F2883293
:103140002046FEF771FE1FAD4C212846FDF7D3F84F
:10315000662041F28832CDE9210720462946CDE993
:103160001C66CDE91A66CDE91866CDE91E66209683
:10317000CDE9236626962A962D96CDE93066FEF790
:103180007FFF002842D199201FA9CDE92107684679
:1031900041F28832CDE91F66CDE9236626962A964C
:1031A0002D96CDE93066FEF76BFF78BB42F21070CA
:1031B000329000BF329801383290FBD1002090212C
:1031C000CDE91F0021910121CDE92210CDE9240094
:1031D0004FF4807126914FF400512A90CDE92710C9
:1031E0004FF080712D91042141F28832CDE92E10EB
:1031F000CDE9300068461FA9FEF742FF30B96846A6
:1032000032A941F28832FFF78BF910B133B0BDE833
:10321000F08F9DF8CA009DF8C81041EA002141F2E4
:10322000687081420FD041F2EF729142EED19DF869
:10323000CB309DF8C97047EA032393420BD041F28B
:1032400068729142E2D19DF8CB109DF8C92042EA04
:1032500001218142DAD100203521CDE91F002191E1
:103260000121CDE9221024904FF08071269041F287
:1032700088322A902D910221CDE92E10CDE930001F
:1032800068461FA9FEF7FCFE0028BFD1684632A998
:1032900041F28832FFF744F90028B7D10620219087
:1032A00068461FA941F288320024CDE91F44012558
:1032B0002494CDE9225426942A942D94CDE93044C7
:1032C000FEF7DEFE0028A1D105201FA9CDE92105CA
:1032D0004FF080702D90022041F28832CDE92E040B
:1032E00068462694CDE91F44CDE923442A94CDE9CC
:1032F0003044FEF7C5FE00287FF488AF4FF480000D
:103300001D9010201E9068461AA941F2883240F2A2
:103310000225CDE91A5500241C94FEF729FE002849
:103320007FF474AFBDF8C8001FA941F2883224941D
:103330002843ADF8C8003120219001202694CDE922
:1033400022044FF080702D9002202A94CDE92E04A3
:103350006846CDE91F44CDE93044FEF791FE0028D0
:103360007FF454AF684632A941F28832FFF774F90E
:1033700000287FF44BAF0024052021900120CDE9E7
:1033800022044FF080702D9002201FA9CDE92E0459
:10339000684641F28832CDE91F44249426942A9449
:1033A000CDE93044FEF76CFE00287FF42FAF40F2E9
:1033B00001101AA9CDE91B044FF480001D901020C4
:1033C0001E90684641F288321A94FEF7D1FD00281B
:1033D0007FF41CAF00203521CDE91F002191012190
:1033E000CDE9221024904FF08071269041F288326E
:1033F0002A902D910221CDE92E10CDE930006846AA
:103400001FA9FEF73DFE00287FF400AF684632A9F1
:1034100041F28832FFF784F800287FF4F7AEBDF858
:10342000C80040F20221084088427FF4EFAE062037
:10343000219068461FA941F288320024CDE91F443B
:1034400001252494CDE9225426942A942D94CDE983
:103450003044FEF715FE00287FF4D8AE05201FA9E2
:10346000CDE921054FF080702D90022041F2883285
:10347000CDE92E0468462694CDE91F44CDE92344C6
:103480002A94CDE93044FEF7FBFD00287FF4BEAE60
:1034900040F202201AA9CDE91A004FF480001D90D5
:1034A00010201E90684641F2883200251C95FEF7D8
:1034B0005FFD00287FF4AAAE21A9EB20012441F290
:1034C000883231C14FF44070269006201FA9CDE903
:1034D000300568462495CDE91F454FF400562A95DE
:1034E000CDE927654FF040772D972F95FEF7C8FD62
:1034F00000287FF48BAE21A902201F9032200025E6
:1035000041F2883231C14FF480701FA9CDE92606FF
:1035100068462095249528952A952D97CDE92F5515
:103520003195FEF7ADFD00287FF470AE082018A994
:10353000CDE918056846FEF71BFF33B0BDE8F08FF4
:1035400042F210703290329801383290FBD12DA99E
:10355000052021904FF080700026012561C168464A
:103560001FA941F288322496CDE91F66CDE9225683
:1035700026962A96CDE93066FEF782FD00287FF474
:10358000A8AD4FF480001D9010201E9068461AA927
:1035900041F288321C96CDE91A65FEF7E9FC002855
:1035A0007FF497AD00209F21CDE91F0021910125D7
:1035B000CDE9225024904FF08071269041F288325C
:1035C0002A902D910321CDE92E10CDE930006846D7
:1035D0001FA9FEF755FD00287FF47BAD684632A990
:1035E00041F28832FEF79CFF00284FF001057FF47E
:1035F00070AD48F2C2013298C0F2390188427FF4BE
:1036000068AD00207121CDE91F00CDE92115CDE97C
:10361000230025904FF4807126914FF44051CDE95D
:1036200027102A904FF08071CDE92D15CDE92F009C
:10363000319068461FA941F28832FEF721FD00282B
:103640007FF447AD684632A941F28832FEF768FF41
:1036500000284FF001057FF43CAD21A9062000268B
:1036600041F2883261C168461FA9CDE91F662496E0
:1036700026962A962D96CDE93066FEF701FD0028A4
:103680007FF427AD2DA9052021904FF080700125F2
:1036900041F2883261C168461FA9CDE91F66CDE9B4
:1036A0002256249626962A96CDE93066FEF7E8FC47
:1036B00000287FF40EAD02201AA9CDE91A004FF4BC
:1036C00080001D9010201E90684641F2883200262E
:1036D0001C96FEF74DFC00284FF001057FF4F9AC75
:1036E0009DF8C80021A941F288322A9600F0FC001A
:1036F00002308DF8C800722061C12DA94FF480708E
:1037000026904FF44050CDE927064FF0807061C1FC
:1037100068461FA9CDE91F66CDE92466CDE930666C
:10372000FEF7AEFC00287FF4D4AC684632A941F223
:103730008832FEF791FF00284FF001057FF4C9ACF5
:10374000002047F28E11CDE91F0021910421229122
:10375000102223920822CDE924204FF48062269281
:103760004FF4405227924FF4006228922A904FF073
:103770008062CDE92D25CDE92F014FF00050319029
:1037800068461FA941F28832FEF77AFC00287FF4D0
:10379000A0AC684632A941F28832FEF7C1FE00288B
:1037A0007FF496AC9DF8C80000F0030002287FF477
:1037B0008FAC684601210125FEF73EFF00287FF40B
:1037C00088AC40F2F960219068461FA941F2883226
:1037D0000026CDE91F664FF0040ACDF888A04FF00F
:1037E000100BCDF88CB00827249726964FF000597F
:1037F0002A962D963096CDF8C490FEF741FC00280D
:103800004FF001057FF465AC21A940F2FA5041F276
:1038100088322A9681E8010C2DA94FF48060269009
:103820004FF4405027904FF4006028904FF0806094
:1038300081E8610468461FA9CDE91F66CDE92476B9
:10384000CDF8C490FEF71CFC00287FF442AC0220A7
:103850001AA9CDE91A004FF480001D90684641F284
:10386000883200261C9610271E97FEF781FB002841
:103870004FF001057FF42DAC4EF61160219004202D
:103880001FA9CDE92207082024904FF480602690DC
:1038900014203090684641F28832CDE91F564FF42B
:1038A000405727974FF40069CDF8A0902A964FF023
:1038B00080662D964FF0006ACDF8BCA04FF0005BFB
:1038C000CDF8C4B0FEF7DCFB00287FF402AC26A9DB
:1038D00002201F9041F2ED20219004202290102020
:1038E0002390082024904FF4806081E8810268468C
:1038F0001FA941F28832002520952A952D96CDE901
:103900002FA5CDF8C4B0FEF7BBFB00287FF4E0ABD9
:10391000082018A9CDE918056846FEF729FD0546D7
:10392000002818BF0125FFF7D4BB000000000000ED
:1039300010B540F2980441F20001C2F20044C4F212
:103940000021C4E9001000202061C4E902000C211C
:10395000C4E90510C4E90700C4E90900204600F0E5
:1039600023F840F294010122C2F200412046BDE852
:103970001040AFF3008040F6296CC9F2000C60479C
:1039800040F6212CC9F2000C604741F6716CC9F277
:10399000000C604741F6A95CC9F2000C604741F693
:1039A000416CC9F2000C604740F6C15CC9F2000CE2
:1039B000604702E008C8121F08C1002AFAD1704708
:1039C0007047002001E001C1121F002AFBD170479F
:1039D0000102030406070809F83900080000002462
:1039E00010000000B2390008083A00081000002456
:1039F00090120000C23900080090D00301000000BE
:083A00001000000000000000AE
:0200000490006A
:100000002DE9F05F0546002092469B46884606464D
:10001000814640241BE0284641464746224600F0E0
:100020002FF853465A46C01A914110D3114618462C
:10003000224600F016F82D1A67EB01084F462246BB
:100040000120002100F00DF817EB00094E41201EA1
:10005000A4F10104DFDC484631462A464346BDE8A8
:10006000F09F202A04DB203A00FA02F100207047BA
:100070009140C2F1200320FA03F3194390407047E6
:10008000202A04DB203A21FA02F00021704721FAED
:1000900002F3D040C2F12002914008431946704754
:1000A000B0B5044601F029FF2CB3054694F854007E
:1000B000022822D12068416941F0040141610520F4
:1000C00084F854002168086980041AD401F015FFEF
:1000D000401B0628F6D3A06D40F01000A065032059
:1000E00084F8540094F8500000064FF001001ED52B
:1000F000616F08731BE00120B0BD2020A0650120C6
:1001000015E04869012240F002004861042084F8AB
:1001100054004FF4FE40C86084F8542094F8500016
:1001200000064FF0000002D5636F1A738864002147
:1001300084F84C10B0BD000080B190F85410022932
:100140000AD1042180F85410006842F20402416987
:1001500011434161002070472021816501207047D3
:1001600090F83C20012A01D102207047B0B5D1E9B6
:10017000022323F47C5322F4705242EA030548F22E
:10018000FF73D1E900CECEF6F0730EEA030203F559
:10019000006445EA020E0CEA04050C6903F5C0523E
:1001A00045EA0E0522402A434D692A4303F560556E
:1001B0000C6B03F5F0432A40234000251A438B695A
:1001C000CEF6FF7505EA0343CD6915430268B2F127
:1001D000844F43EA05034FF0010480F83C4018D1F6
:1001E0004FF6FF7540F2000CCDF60F458C6ACDF648
:1001F000F04C03EA050E0D6A0CEA04544B6A44EA1B
:100200000E0425F0085523F000532543C96A2B43FB
:100210000B435364002180F83C100020B0BD000067
:100220004722082908BF4622042908BF4522002981
:1002300008BF4422825C012A08D1022241B1082968
:1002400009D004290AD180F8452009E0012070472F
:1002500080F8442004E080F8462001E080F8472040
:10026000026801F00F00042101FA00F0116A8143D5
:100270001162116A0843106241F2FF70516CC4F2BE
:100280000000824241F4004050640BDC40F2FF70F9
:10029000C4F20000824215DCB2F1804F2BD040F254
:1002A000004017E043F6FF70C4F20020824216DCE3
:1002B00041F60000C4F2000082421CD0B2F1844F2B
:1002C00019D024E040F60000C4F20000824212D0AF
:1002D00040F60040C4F2000082420CD017E044F621
:1002E0000040C4F20020824205D044F20000C4F273
:1002F000002082420BD107219068C0F20101014029
:100300000020062918BFB1F5803F00D17047106862
:1003100040F0010010600020704700000000000065
:1003200090F83C30012B01D1022070474FEAB20314
:100330000122052B80F83C2000F2FF812DE9F041DD
:10034000DFE803F003933F6923BD036844F2FF36FF
:10035000C4F200261C6AB3421A6A24F0020422F096
:1003600001021A621A46D3F804C052F818EF8D68D9
:1003700044EA0504D1F8008000F33D81B3F1844FD5
:1003800000F0458144F200073DE1036844F2FF3785
:10039000C4F20027D3F820C0BB421A6A22F480328C
:1003A0001A621A465C6852F8506F0D68D1F808E07E
:1003B00000F3A180B3F1844F00F0A98044F200075C
:1003C000A1E00368B3F1844F1F6A1A6A27F400772B
:1003D00022F480721A621A465D6852F81CCF8E6849
:1003E00047EA062407D1CF6840F2FF463F0224F4D3
:1003F0004064B7433C4344F2FF37D1F800E0C4F215
:100400000027BB4200F3A380B3F1844F00F0AB8020
:1004100044F20007A3E00368B3F1844F1F6A1A6A2D
:1004200027F4005722F480521A621A465D6852F887
:100430001CCF8E6847EA063407D1CF6844F6FF76B2
:100440003F0324F44044B7433C4344F2FF37D1F820
:1004500000E0C4F20027BB4200F3A380B3F1844F55
:1004600000F0AB8044F20007A3E00368B3F1844FCF
:100470001F6A1A6A27F0200722F010021A621A4631
:100480005D6852F818CF8E6847EA061407D1CF6826
:100490006FF0400624F0C00406EA07173C4344F21C
:1004A000FF37D1F800E0C4F20027BB4200F3BD8063
:1004B000B3F1844F00F0C58044F20007BDE003684B
:1004C00044F2FF37C4F20027D3F820C0BB421A6AB7
:1004D00022F480121A621A465C6852F8506F0D6856
:1004E000D1F808E000F3F680B3F1844F00F0FE800D
:1004F00044F20007F6E044F60007C4F20027BB42CE
:1005000005D044F20047C4F20027BB4204D14F6932
:1005100024F4803444EA07244FF68C775C60CFF6ED
:10052000FE7703373E402CF4003746EA05041C658D
:100530004E6809699E6447EA0E471F621F6D47F0C7
:1005400008071F651F6D27F004071F65EFE044F6DD
:100550000007C4F20027BB4205D044F20047C4F2B2
:100560000027BB4206D1D1E905763E4325F440552C
:1005700045EA06154FF68C765D60CFF6FE760CEAFE
:10058000060747EA0E07DF614F680969DF631C62EF
:10059000DF6947F00807DF61DF6927F00407DF61E3
:1005A000C5E044F60007C4F20027BB4205D044F280
:1005B0000047C4F20027BB4206D1D1E905763E438D
:1005C00025F4404545EA861548F6FF465D60CFF6BE
:1005D000FF660CEA060747EA0E27DF614F680969E4
:1005E0001F641C62DF6947F40067DF61DF6927F47D
:1005F0008067DF619AE044F60007C4F20027BB423F
:1006000005D044F20047C4F20027BB4205D1CF68B1
:1006100024F00C0427F004073C43B3422FDCB3F171
:10062000844F38D044F2000631E044F60007C4F2AB
:100630000027BB4205D044F20047C4F20027BB426A
:1006400006D1D1E905763E4325F4406545EA8605A5
:1006500048F6FF465D60CFF6FF660CEA060747EAFC
:100660000E279F614F6809699F631C629F6947F469
:1006700000679F619F6927F480679F6156E044F699
:100680000006C4F20026B34205D044F20046C4F28C
:100690000026B34206D12CF44077D1E905653743F3
:1006A00047EA050C4FF68C75C3F804C0CFF6FE750B
:1006B0000EEA050747EA08079F614F6809695F630B
:1006C0001C629F6947F008079F619F6927F0040734
:1006D0009F612CE044F60007C4F20027BB4205D01E
:1006E00044F20047C4F20027BB4204D14F6924F40E
:1006F000802444EA872448F6FF475C60CFF6FF6712
:1007000007F540773E402CF4001746EA05241C65A7
:100710004E680969DE6447EA0E571F621F6D47F491
:1007200000671F651F6D27F480671F650902136846
:10073000194311600022BDE8F041002180F83C100F
:10074000104670470000000060B310B5044690F8F2
:100750003D0028B9002084F83C00204600F024F831
:10076000022084F83D002068211D00F091FB01204B
:1007700084F8480084F83E0084F83F0084F8400084
:1007800084F8410084F8420084F8430084F844006F
:1007900084F8450084F8460084F8470084F83D005A
:1007A000002010BD012070472DE9F04186B000689F
:1007B0000026B0F1844F0596CDE9036602960196B6
:1007C00002D006B0BDE8F08144F2405040F200088B
:1007D000C5F60200C5F6020801AD02270168012432
:1007E00041F004010160016800910099016841F045
:1007F00010010160016800910099016841F0010158
:100800000160016800910099016941F001010161F5
:100810000069009000980420019008F500602946C6
:100820000297CDE90346059401F06CFB4FF480700C
:100830002946CDE9010708F580500594CDE9034626
:1008400001F060FB40202946CDE9010740460594B0
:10085000CDE9037601F056FB06B0BDE8F08100005B
:1008600080B559B10B1F4FF03F0E4FEAB30C432236
:10087000BCF1040F38BF0EEBB30200E03E22825CF5
:10088000012A0DD171B10A1F4FEAB202032A19D809
:10089000DFE802F002140C10022280F83F2014E07E
:1008A000012080BD022280F83E200EE0022280F866
:1008B00041200AE0022280F8422006E0022280F86D
:1008C000402002E0022280F84320026801F01F006D
:1008D0000121B2F1844F01FA00F0116A21EA00010E
:1008E0001162116A40EA0100106216DA40F2FF70EC
:1008F000C4F2000082423EDD40F60000C4F2000077
:10090000824267D040F60040C4F20000824261D0CB
:1009100041F60000C4F200005AE044F2FF30C4F295
:10092000002082420EDD44F20040C4F200208242E8
:1009300011D044F60040C4F2002082424AD044F66E
:10094000000004E0B2F1844F05D044F20000C4F28C
:10095000002082424AD141F2FF70516CC4F2000083
:10096000824241F4004050640DDC40F2FF70C4F25A
:100970000000824217DCB2F1804F2BD040F20040E1
:10098000C4F2000024E043F6FF70C4F2002082426B
:1009900014DC41F60000C4F2000082421AD0B2F129
:1009A000844F17D022E040F60000C4F200008242DB
:1009B00010D040F60040C4F2000009E044F60040C8
:1009C000C4F20020824205D044F20000C4F20020AC
:1009D00082420BD107219068C0F201010140002042
:1009E000062918BFB1F5803F00D180BD106840F0E6
:1009F00001001060002080BD704700000000000072
:100A00007047000000000000704700000000000078
:100A10007047000000000000704700000000000068
:100A200070B5046840F62F01E26911402029216861
:100A3000A66805D101F0200306F080555B1939D175
:100A400040F60F0313400DD0012340F22015C1F2F0
:100A50000003C0F2004506EA030C01EA050313EBAC
:100A60000C032DD1D306C36E16D5012B14D111F072
:100A7000100311D010212162A168490600F1FB800A
:100A8000B0F85C10B0F85E20B0F85E30002B18BFF4
:100A9000914240F0518170BDD30240F1CA8016F4FA
:100AA000800300F0C6804FF480112162BDE87040E1
:100AB000FFF7AEBF416F0029EDD0BDE87040084799
:100AC000D30718BF11F4807307D001232362D0F835
:100AD000903043F00103C0F89030930706F0010E08
:100AE0000AD5BEF1000F07D002232362D0F8903060
:100AF00043F00403C0F8903053070AD5BEF1000F4D
:100B000007D004232362D0F8903043F00203C0F8EA
:100B1000903013070CD501F0200353EA0C0307D0E3
:100B200008232362D0F8903043F00803C0F89030D7
:100B300013050BD511F0806308D04FF400632362D6
:100B4000D0F8903043F02003C0F89030D0F89030C7
:100B5000002BA0D092060AD501F0200106F08052A9
:100B6000891804D0416F11B10446884720460168B6
:100B7000D0F89020896802F0280201F0400189181D
:100B800006D10446FFF748FF0020C4F8900070BD6E
:100B9000016851E8001F026821F4907142E80013D7
:100BA000002BF5D14FF6FE71CEF6FF71026852E8C8
:100BB000022F03680A4043E80226002EF6D1C16ED8
:100BC000012909D1016851E8001F026821F01001D4
:100BD00042E80013002BF5D12021C0F88C10002131
:100BE000C166026841679168490640F1988000BF7C
:100BF000016851E8021F026821F0400142E8021337
:100C0000002BF5D1D0F88010002900F0888041F247
:100C1000791204460846C9F20002CA66FFF78CFA48
:100C200000283FF438AFD4F88000C16EBDE87040B2
:100C30000847130606D501F0800306F400069B1949
:100C400040F0AB8053066ED511F040036BD000BF6F
:100C5000016851E8001F026821F0400142E80013DA
:100C6000002BF5D12021C0F8881000218167BDE854
:100C7000704000F009B9D0F880100A68926C93B205
:100C8000002B3FF408AFB0F85C60B342BFF403AF91
:100C9000A0F85E20096D812935D000BF016851E8B8
:100CA000001F026821F4807142E80013002BF5D187
:100CB000016851E8021F026821F0010142E80213B5
:100CC000002BF5D1016851E8021F026821F04001B4
:100CD00042E80213002BF5D12021C0F88C1000212E
:100CE000C16600BF016851E8001F026821F01001D1
:100CF00042E80013002BF5D1D0F8801004460846D6
:100D0000FFF7CEF9204602210167B0F85C10B0F879
:100D10005E20891A89B2BDE87040FFF76DBEBDE85C
:100D20007040FFF779BE13023ED511F080433BD0EF
:100D3000BDE87040FFF768BE891A00BF026852E83C
:100D4000002F036822F4907243E80026002EF5D1AC
:100D50004FF6FE72CEF6FF72036853E8023F066854
:100D6000134046E80235002DF6D12022C0F88C2031
:100D70000022C266426700BF026852E8002F036883
:100D800022F0100243E80026002EF5D189B202229B
:100D90000267BDE87040FFF72FBE816F00293FF466
:100DA0007AAEBDE870400847D2017FF574AEB1F16C
:100DB000FF3FC8BF70BDBDE87040FFF721BE000017
:100DC00010B5D8B10446D0F8880028B9002084F8BE
:100DD0008400204601F09BF82420C4F88800206895
:100DE000A16A0268002922F00101016002D02046B8
:100DF00000F0F2F8204600F06BFC08B1012010BDB5
:100E00002068416821F490414160816821F02A0105
:100E10008160016841F0010101602046BDE8104099
:100E200000F04AB900000000D0F88C30202B06D129
:100E30000123002918BF002A03D118467047022059
:100E4000704780B50023C36640F60043D0F800C069
:100E5000C5F600039C450FD0DCF804301B020BD50F
:100E6000036853E800CFD0F800E04CF080634EE810
:100E7000003CBCF1000FF3D100F066FE0023BDE89A
:100E800080401846704700007047000000000000D6
:100E900040F2FF72C4F20002904202680BDD40F69D
:100EA0000003C4F20003984218BFB0F1844F0BD086
:100EB00040F6004304E0B0F1804F05D040F200431B
:100EC000C4F20003984203D122F070024B681A4327
:100ED00041F6FF7344F2FF3CC4F20003C4F2002C5D
:100EE000984213DC40F6FF33C4F2000398421BDC47
:100EF000B0F1804F3BD040F20043C4F2000398426F
:100F000035D040F60003C4F200032EE060451CDC3F
:100F100042F20003C4F20003984218BFB0F1844FBC
:100F200025D044F200031EE040F60043C4F2000363
:100F300098421CD041F60003C4F20003984216D038
:100F400041F60043C4F200030FE044F20043C4F250
:100F5000002398420BD044F60043C4F20023984289
:100F600005D044F60003C4F20023984203D122F4D2
:100F70004072CB681A4310B522F08002D1F800E02D
:100F80004C698B6822430260C3626045C0F828E068
:100F9000BDE8104005DCB0F1844F0ED044F20002F1
:100FA00007E044F60002C4F20022904205D044F269
:100FB0000042C4F20022904201D10969016301217B
:100FC00041610169C90708BF7047016921F001014A
:100FD0000161704700000000816A0A070CD4CA074B
:100FE00015D18A071ED44A0727D4CA0630D48A06E8
:100FF00039D44A0642D454E00268D0F838C0536865
:1010000023F4004343EA0C035360CA07E9D00268A3
:10101000D0F82CC0536823F4003343EA0C03536028
:101020008A07E0D50268D0F830C0536823F48033D3
:1010300043EA0C0353604A07D7D50268D0F834C09E
:10104000536823F4802343EA0C035360CA06CED5C9
:101050000268D0F83CC0936823F4805343EA0C0341
:1010600093608A06C5D50268D0F840C0936823F41F
:10107000005343EA0C0393604A0612D50268D0F885
:1010800044C0BCF5801F536823F4801343EA0C036B
:10109000536006D1536823F4C00C836C43EA0C03FD
:1010A0005360090658BF70470168C06C4A6822F453
:1010B0000022104348607047B0B582B0044600205B
:1010C000C4F8900000F019FF216805460968090777
:1010D00018D54FF4001100226FF07E40009020469A
:1010E0002B4600F0C1FD68B1206850E8000F216870
:1010F00020F0800041E80002002AF5D103202021E1
:10110000882230E020680068400723D54FF4800132
:1011100000226FF07E40009020462B4600F0A4FD98
:10112000C0B100BF206850E8000F216820F4907023
:1011300041E80002002AF5D1206850E8020F21683A
:1011400020F0010041E80202002AF5D1032020210D
:101150008C2208E02020C4F88800C4F88C0000210C
:1011600070220020E166A150002184F8841002B0B2
:10117000B0BD000000000000C06D0021A0F85E10AE
:10118000A0F85610FFF748BCB0F860200168D0F80E
:101190008C30222B58D1496A836D114023F8021BF1
:1011A0008365B0F85E100139A0F85E10B0F85E10EB
:1011B000002918BF704700BF016851E8001F02688E
:1011C00021F4907142E80013002BF5D1016851E839
:1011D000021F026821F0010142E80213002BF5D141
:1011E0002021C0F88C1000214167016740F60042C1
:1011F0000168C5F6000291420CD04968090209D580
:10120000016851E8001F026821F0806142E8001384
:10121000002BF5D1C16E01291BD10021C16600BF91
:10122000016851E8001F026821F0100142E8001334
:10123000002BF5D10168CA69D20601D510220A62D5
:10124000B0F85C10FFF7D8BB886940F008008861EF
:10125000704700F061BE00002DE9F04F81B00446F8
:101260000368B0F86050DA6918689968D4F88C702F
:10127000222F2AD1B4F86860002E18BF12F0200285
:101280002AD1B4F85E00E8B1B4F86810884219D2E7
:10129000206850E8020F216820F0805041E80202E7
:1012A000002AF5D141F28910C9F20000606700BF41
:1012B000206850E8000F216840F0200041E800025B
:1012C000002AF5D101B0BDE8F08F986940F0080020
:1012D000986101B0BDE8F08F4FF6FE774FF000093E
:1012E000CEF6FF7700F4807B01F0010807E020468E
:1012F00000F012FE002E18BF1AF02000C1D02068A6
:10130000A16D426A2A4021F8022BA165B4F85E1053
:101310000139A4F85E10D0F81CA05FEA4A7134D0FD
:101320005FEACA7218BFBBF1000F03D15FEA8A728D
:101330000BD415E001220262D4F8902042F00102A1
:10134000C4F890205FEA8A720AD5B8F1000F07D07E
:1013500002220262D4F8902042F00402C4F89020E5
:1013600000290AD5B8F1000F07D004210162D4F892
:10137000900040F00200C4F89000D4F8900020B132
:101380002046FFF749FBC4F89090B4F85E000028AF
:10139000B0D100BF206850E8000F216820F48070B1
:1013A00041E80002002AF5D1206850E8020F2168C8
:1013B000384041E80202002AF6D12020C4F88C000F
:1013C000C4F8749040F60041C4F87090C5F600016E
:1013D000206888420CD04068000209D5206850E897
:1013E000000F216820F0806041E80002002AF5D15A
:1013F000E06E01287FF47BAFC4F86C90206850E861
:10140000000F216820F0100041E80002002AF5D109
:101410002068C169C90601D510210162B4F85C10C9
:101420002046FFF7E9FA65E7B0F860100268D0F8E7
:101430008C30222B58D1526A836D11401970816D06
:1014400001318165B0F85E100139A0F85E10B0F886
:101450005E10002918BF7047016851E8001F02683C
:1014600021F4907142E80013002BF5D1016851E896
:10147000021F026821F0010142E80213002BF5D19E
:101480002021C0F88C1000214167016740F600421E
:101490000168C5F6000291420CD04968090209D5DD
:1014A000016851E8001F026821F0806142E80013E2
:1014B000002BF5D1C16E01291BD10021C16600BFEF
:1014C000016851E8001F026821F0100142E8001392
:1014D000002BF5D10168CA69D20601D510220A6233
:1014E000B0F85C10FFF788BA906940F0080090618E
:1014F000704700F011BD00002DE9F04F81B00446A7
:101500000368B0F86050DA6918689968D4F88C708C
:10151000222F2AD1B4F86860002E18BF12F02002E2
:101520002AD1B4F85E00E8B1B4F86810884219D244
:10153000206850E8020F216820F0805041E8020244
:10154000002AF5D141F22940C9F20000606700BFCE
:10155000206850E8000F216840F0200041E80002B8
:10156000002AF5D101B0BDE8F08F986940F008007D
:10157000986101B0BDE8F08F4FF6FE774FF000099B
:10158000CEF6FF7700F4807B01F0010807E02046EB
:1015900000F0C2FC002E18BF1AF02000C1D0206855
:1015A000A16D406A28400870A06D0130A0652068D8
:1015B000B4F85E100139A4F85E10D0F81CA05FEA00
:1015C0004A7134D05FEACA7218BFBBF1000F03D171
:1015D0005FEA8A720BD415E001220262D4F89020EF
:1015E00042F00102C4F890205FEA8A720AD5B8F18D
:1015F000000F07D002220262D4F8902042F00402C9
:10160000C4F8902000290AD5B8F1000F07D00421B2
:101610000162D4F8900040F00200C4F89000D4F8C1
:10162000900020B12046FFF7F7F9C4F89090B4F885
:101630005E000028AED100BF206850E8000F21688E
:1016400020F4807041E80002002AF5D1206850E8BB
:10165000020F2168384041E80202002AF6D120201A
:10166000C4F88C00C4F8749040F60041C4F870903F
:10167000C5F60001206888420CD04068000209D5F8
:10168000206850E8000F216820F0806041E80002E7
:10169000002AF5D1E06E01287FF479AFC4F86C9090
:1016A000206850E8000F216820F0100041E8000297
:1016B000002AF5D12068C169C90601D5102101624F
:1016C000B4F85C102046FFF797F963E700000000CC
:1016D000F0B581B00446006822696669D4E9021356
:1016E000114346F6F312D4F81CC00568CCF6FF721D
:1016F00031432A404FF2FF461143C1F2FF1641EA3F
:101700000C010160416847F2FF7521F44051C4F2B9
:101710000005194340F600434160C5F60003A16986
:1017200098421CBF226A11438268A84202EA06025C
:101730004FF0800541EA02018160C26A44F2004133
:10174000C5F6020122F00F02666A42EA0602C26290
:101750000EDC44F6FF32C4F20002904218DC44F280
:101760000042C4F2000290421ED044F6000217E08C
:1017700040F6FF72C4F20022904200F3EF8047F679
:101780000002C4F2000290420ED047F6004207E089
:1017900044F60042C4F20002904205D045F2000235
:1017A000C4F20002904208D10A6D02F00706062E2C
:1017B00003D20FF2843216443578984240F6001076
:1017C000C0F23D0000F05180BCF5004F40F0798040
:1017D000402D00F22C810027DFE815F04100540174
:1017E000290129015C01290129012901A0012901FF
:1017F0002901290129012901290129013201290190
:101800002901290129012901290129012901290188
:101810002901290129012901290129015E01290143
:101820002901290129012901290129012901290168
:101830002901290129012901290129012901290158
:101840002901290129012901290129012901290148
:101850002901290129012901290129014C0100F04F
:1018600060FB002840F019814CE1AA1E1E2A00F2FC
:101870008E800027DFE812F01F009200A300920084
:1018800092009200D6009200920092009200920084
:1018900092009200960092009200920092009200B4
:1018A00092009200920092009200920092009200A8
:1018B00092009200A50000F039FB002840F08480DF
:1018C00020E1402D00F2B7800027DFE815F041004D
:1018D000DF00B400B4000201B400B400B4002C0175
:1018E000B400B400B400B400B400B400B400C60046
:1018F000B400B400B400B400B400B400B400B40048
:10190000B400B400B400B400B400B400B4000401E6
:10191000B400B400B400B400B400B400B400B40027
:10192000B400B400B400B400B400B400B400B40017
:10193000B400B400B400B400B400B400B400B40007
:10194000B400B400B400B400B400B400B400D700D4
:1019500000F0E7FA002840F0BF80D3E098420ED0B4
:1019600041F20002C4F2002290427FF426AF4A6D99
:1019700002F00706062EBFF420AF71A21BE78A6DA6
:1019800002F00706062EBFF418AF69A213E7402D38
:1019900004D14FF400400027B0B9B3E00020012784
:1019A00090B9AFE00868800649F20000C0F2D0307C
:1019B00007D50968C1F3C101C84028B9A2E000F009
:1019C000BAFA002800F09E80616A41F65E72C9F2A0
:1019D0000002656832F8112005EB4501B0FBF2F317
:1019E0008B424FF00101C0F090802E03B34200F211
:1019F0008C8000210023FEF703FB0902002341EA4B
:101A000010612A46000210EB550041F10001FEF77B
:101A1000F7FA4FF60052A0F54071C0F20F02914262
:101A20006ED371E000F08CFA0028CDD16AE000207E
:101A3000012790BB66E00020012700284CD161E01F
:101A40000868800649F20000C0F2D03024D5096849
:101A5000C1F3C101C84000BB54E00868800649F2E8
:101A60000000C0F2D03036D50968C1F3C101C840CA
:101A700090BB47E04FF4004078B943E04FF400409A
:101A800050BB3FE000F061FA38B93BE000F05DFA8E
:101A900010BB37E000F04FFAA0B3616A41F65E7206
:101AA000C9F2000232F811106268B0FBF1F051087F
:101AB00001EB4000B0FBF2F0A0F110014FF6EF7225
:101AC000914221D84FF6F0710140C0F34200084422
:101AD00016E000F030FAA8B1616A41F65E72C9F210
:101AE000000232F811106268B0FBF1F000EB520016
:101AF000B0FBF2F0A0F110014FF6EF72914203D863
:101B00002168C860394600E001214FF00110A0664D
:101B10000020C4E91D00084601B0F0BD00F010FA35
:101B20000028BAD1EEE700F00BFA0028D4D1E9E79B
:101B300002040810204000000004081020400000AB
:101B4000010408102040000081650023A0F85C20FB
:101B5000A0F85E208168436771B1B1F1805F07D062
:101B6000B1F5805F0ED1016951B940F2FF110AE071
:101B7000016919B13F2106E0016909B17F2102E045
:101B8000FF2100E00021A0F860100021C0F89010B3
:101B90002221C0F88C1000BF016851E8021FD0F864
:101BA00000C041F001014CE80213002BF4D1416E5A
:101BB000B1F1005F03D1B0F86810914225D9816876
:101BC000B1F5805F02D10169002941D041F229417C
:101BD000C9F200010269416762B100BF016851E8C2
:101BE000001F026841F4907142E80013002BF5D108
:101BF0002CE000BF016851E8001F026841F020019D
:101C000042E80013002BF5D120E08168B1F5805F38
:101C100001D1016909B341F2F941C9F20001026938
:101C200041674AB1016851E8001F026841F48071C0
:101C300042E80013002BF5D1016851E8021F026849
:101C400041F0805142E80213002BF5D1002070478B
:101C500041F28911C9F20001BCE741F25921C9F2F0
:101C60000001DCE7000000002DE9F04381B00446EC
:101C70000068C0690840401AB0FA80F040099042FC
:101C800057D1DDF820800D461646994608F1010728
:101C900009E000BF2068C0692840401BB0FA80F00E
:101CA0004009B04245D1002FF4D000F026F9B8F138
:101CB000000F01464FF003003CD0A1EB0901414564
:101CC00038D8206801684907E4D5402D18BF802D19
:101CD000E0D0C169090730D4C1690905DAD54FF4EC
:101CE00000610162206850E8000F216820F49070C4
:101CF00041E80002002AF5D14FF6FE70CEF6FF70E3
:101D0000216851E8021F2268014042E80213002BBB
:101D1000F6D1E06E012809D1206850E8000F216853
:101D200020F0100041E80002002AF5D10320202114
:101D30002CE0002001B0BDE8F0830821016200BF63
:101D4000206850E8000F216820F4907041E80002FC
:101D5000002AF5D14FF6FE70CEF6FF70216851E8EB
:101D6000021F2268014042E80213002BF6D1E06E08
:101D7000012809D1206850E8000F216820F01000E8
:101D800041E80002002AF5D1012008212022C4F8F0
:101D90008C200022E2666267C4F8901084F88420E8
:101DA00001B0BDE8F083000070B588B040F21004C7
:101DB0000026C2F2004405464FF084420796C4E96B
:101DC000030620462260CDE90566CDE90366CDE92C
:101DD0000166C4E90116C4E90566FEF7B5FC60209A
:101DE0000190681C01A9400802900220039008207D
:101DF00004904FF4807006904FF40070079000221A
:101E00002046FEF78DFA40F25C014FF48050C2F29A
:101E100000414FF40052C1E904024FF480400863CE
:101E200020468E60C1E90066FEF79AF9002120463F
:101E3000FEF716FD00212046FEF7F2F908B070BD4E
:101E4000B0B540F25C0240F21005C2F20042C2F2AC
:101E5000004504462846D1601146FEF781F92868FE
:101E6000416C41F4004141644463B0BD0000000096
:101E70002DE9F04387B044F240500027C5F6020038
:101E80000697CDE90477CDE90277016840F60008AE
:101E900041F008010160016801910199016841F078
:101EA00004010160C5F602080068019008F580652C
:101EB00002AE01984FF4804002902846314601243A
:101EC00003944FF00209CDF8109000F01BF8404643
:101ED0003146CDE90244CDE9049700F013F84FF400
:101EE00080410122284600F035F8012101224046B8
:101EF00000F030F807B0BDE8F08340F2F15CC0F6C6
:101F0000000C604740F2594CC0F6000C604741F6A7
:101F1000D94CC0F6000C604741F6A95CC0F6000C35
:101F2000604741F2A14CC0F6000C604741F2115CE1
:101F3000C0F6000C604741F2495CC0F6000C6047F7
:101F400041F2116CC0F6000C604741F2D94CC0F66A
:101F5000000C604740F2E15CC0F6000C60470100F5
:101F600002000400060008000A000C001000200017
:081F70004000800000010000A8
:04000005080002B13C
:00000001FF
