:020000040800F2
:1000000038590624C50200088138000871380008F4
:100010007938000899030008413B000800000000FF
:10002000000000000000000000000000013B00088C
:10003000A10300080000000089380008093B0008FF
:10004000DF02000800000000DF020008DF020008F5
:10005000DF020008DF0200080000000000000000CE
:10006000DF020008DF020008DF02000800000000D5
:1000700000000000DF020008000000000000000097
:10008000DF020008DF020008DF020008DF020008CC
:10009000DF020008DF020008DF020008DF020008BC
:1000A000DF020008DF020008DF020008DF020008AC
:1000B000DF020008DF020008DF020008DF0200089C
:1000C000DF0200080000000000000000DF0200085E
:1000D000DF020008DF020008DF020008DF0200087C
:1000E000DF020008DF020008DF020008DF0200086C
:1000F000DF020008DF020008DF020008DF0200085C
:10010000DF020008DF020008DF020008DF0200084B
:10011000DF020008DF020008DF020008DF0200083B
:10012000DF020008DF020008DF020008DF0200082B
:10013000DF020008DF020008DF020008DF0200081B
:10014000DF020008DF020008DF020008DF0200080B
:10015000DF020008DF020008DF020008DF020008FB
:10016000DF020008DF020008DF020008DF020008EB
:10017000DF020008DF020008DF020008DF020008DB
:10018000DF020008DF020008313B0008DF02000840
:10019000DF020008DF020008DF020008DF020008BB
:1001A000DF020008DF020008DF020008DF020008AB
:1001B000DF020008DF020008DF020008DF0200089B
:1001C000DF020008DF020008DF020008DF0200088B
:1001D000DF020008DF02000800000000000000004D
:1001E00000000000DF020008DF020008DF02000854
:1001F000DF020008DF02000800000000000000002D
:10020000DF020008DF020008DF020008DF0200084A
:10021000DF020008DF020008DF020008DF0200083A
:10022000DF020008DF020008DF020008DF0200082A
:10023000DF020008DF020008DF020008DF0200081A
:10024000DF020008DF020008DF020008DF0200080A
:10025000DF020008DF020008DF020008DF020008FA
:10026000DF020008DF020008DF020008DF020008EA
:10027000DF020008DF020008DF020008DF020008DA
:10028000DF020008DF020008DF020008DF020008CA
:10029000DF020008DF020008DF020008DF020008BA
:1002A000DF020008DF020008DF020008DF020008AA
:1002B000DFF80CD000F02AF800480047B93D0008EC
:1002C000385906240648804706480047FEE7FEE7FF
:1002D000FEE7FEE7FEE7FEE7FEE7FEE7FEE7FEE7F6
:1002E000113B0008B1020008D2B201E000F8012B76
:1002F000491EFBD270470022F6E710B513460A46A6
:1003000004461946FFF7F0FF204610BD1CB509480A
:100310000090094801900546009C06E0E06840F026
:10032000010394E8070098471034AC42F6D3FFF776
:10033000C3FF0000B06C0008D06C000870B58C18CA
:1003400010F8015B15F0070301D110F8013B2A11E9
:1003500006D110F8012B03E010F8016B01F8016BD6
:100360005B1EF9D12B0705D40023521E0DD401F8D2
:10037000013BFAE710F8013BCB1A921C03E013F89B
:10038000015B01F8015B521EF9D5A142D8D30020D0
:1003900070BD000000000000FEE70000000000004B
:1003A000704700000000000080B54EF2180140F2D6
:1003B000DC32CEF20001C2F20042002351F804CC3C
:1003C000126850434FF47A7200FB02FE086800BFC7
:1003D0000A688242FCD003448242A3EB0203104627
:1003E00028BF63447345F3D380BD000000000000C4
:1003F000002908BF70472DE9F04F81B04FF67F729A
:1004000040F2040EC0F22902C5F6000E02EA902264
:10041000009200F1200B00220027002429E000BFF9
:100420000323056803FA02F96FF0030303EA540398
:1004300045EA0905056007F01C050F2606FA05FCCC
:100440005BF8035025EA0C054BF80350836823EA58
:1004500009038360436823EA08034360C36823EA0F
:100460000903C3600134043731FA04F302F10202D4
:100470003CD0012303FA04F818EA0109F2D040F253
:10048000305324F00305C5F6000307F00C0CED58BB
:100490000F2303FA0CFA009B05EA0A0503FA0CF68F
:1004A000B542BDD1DEF87C604FF0B04326EA0906C4
:1004B000CEF87C60DEF8806026EA0906CEF880601F
:1004C000DEF8006026EA0906CEF800601D68A6087E
:1004D00025EA09051D6040F23053C5F6000353F8C4
:1004E000265025EA0A0543F8265099E701B0BDE8F1
:1004F000F04F7047000000002DE9F04F82B00F6808
:10050000002F00F0B2804FF67F7340F2040EC0F26D
:100510002903C5F6000E00F12002009203EA9022A2
:1005200000234FF0010A0025002601920AE000BFD7
:1005300001360F6837FA06F205F1020503F10403EC
:1005400000F093800AFA06FC17EA0C09F0D0D1F803
:1005500004B003220BF0030702FA05F87C1E012CFD
:1005600012D88468D1F80CA024EA08040AFA05F22B
:1005700022438260CBF3001442684FF0010A22EA62
:100580000C02B44022434260032F20D0C2688C6822
:1005900022EA0802AC40022F42EA0402C26016D1ED
:1005A0006FF0030203F01C0402EA560B009A0F27B7
:1005B00052F80BC007FA04FA0F692CEA0A0C4FF044
:1005C000010A07FA04F444EA0C0742F80B700268C7
:1005D0004F6807F0030422EA0802AC4017F4403FDA
:1005E00042EA04020260A3D040F2305826F003022F
:1005F000C5F6000803F00C070F2452F808C0BC40F1
:100600002CEA040C019C04FA07F747EA0C0742F8AD
:1006100008704FF0B048D8F800C04F684CEA0904A1
:10062000FA0258BF2CEA0904BA02C8F80040DEF802
:1006300000C04CEA090458BF2CEA0904BA03CEF8FA
:100640000040DEF880C04CEA090458BF2CEA0904D7
:10065000FF03CEF88040DEF87C2042EA090458BF50
:1006600022EA0904CEF87C4062E702B0BDE8F08FD0
:100670000069084018BF012070470000000000001A
:10068000426902EA0103914341EA034181617047F3
:100690001823002A08BF2823C1507047000000001B
:1006A00044F6D400C2F20640006870470000000023
:1006B00040F2242044F6D401C2F20040C2F20641C6
:1006C00000780A68104408607047000000000000CD
:1006D00080B5032000F0DCF80F2000F009F80028B6
:1006E0001CBF012080BD00F08BF8002080BD000001
:1006F00040F22421C2F20041097819B310B5044632
:1007000040F20400C2F200404FF47A72B2FBF1F101
:100710000068B0FBF1F002F0BBFA0F2C01464FF07D
:1007200001000ED8002918BF10BD4FF0FF30002285
:10073000214600F07DF840F228210020C2F200415D
:100740000C6010BD0120704710B54EF6A0514378E3
:10075000CEF2000190F800C041F8083C0B6823F08D
:1007600001030B600B6823F001030B60436841F841
:10077000043C90F80CE0C27A837A447B120642EA89
:100780000E7290F80EE042EAC342C37B42EA844212
:10079000447A42EA4E42007A42EA034242EA0422A2
:1007A00042EA400040EA0C00086010BD0000000072
:1007B0004EF62450CEF20000BFF35F8F016821F4A3
:1007C0008031016000210167BFF34F8FBFF36F8F4E
:1007D00070470000000000004EF6245140F0010078
:1007E000CEF20001BFF35F8F0867086840F48030E5
:1007F0000860BFF34F8FBFF36F8F7047000000009A
:100800007047000000000000002848BF704700F05B
:100810001F01012202FA01F14EF20012C0F34A1048
:10082000CEF2000242F820107047000000000000E5
:1008300070B54EF60C5C4FF0FF36CEF2000C00F1B6
:10084000604505F56445DCF80030C3F3022E8EF0F8
:100850000703042B28BF0423BEF1030406FA03F3A5
:1008600021EA030100F00F0338BF0024043B0028F5
:10087000634406FA04F048BF03F10C05A14022EAE4
:10088000000008430001287070BD00000000000057
:100890004EF60C514FF6FF03CEF200010A681A40E3
:1008A00060F30A2242F0806040F0FD7008607047FB
:1008B00070B544F60C060446C5F602063168306889
:1008C00001F00701062912D120F01F0020433060FB
:1008D000FFF7E6FE054600BF56F8080C80070CD46B
:1008E000FFF7DEFE401BB0F57A7FF5D915E000F08A
:1008F0001F00001B18BF012070BDA4F11D000128BE
:100900000DD8FFF7CDFE04463068C00307D4FFF7CB
:10091000C7FE001BB0F57A7FF6D9012070BD00201C
:1009200070BD000000000000B0B544F61405C5F627
:100930000205296821F0010108432860FFF7B0FE95
:10094000044600BF2868800707D4FFF7A9FE001BF4
:10095000B0F57A7FF6D90120B0BD0020B0BD00000F
:10096000B0B544F60C05C5F60205286840F0807065
:100970002860FFF795FE04462868400107D4FFF77A
:100980008FFE001BB0F57A7FF6D90120B0BD0020A4
:10099000B0BD00000000000044F60C00C5F60200E7
:1009A000016841F4804101607047000000000000D0
:1009B00044F60C00C5F60200016841F400410160F4
:1009C000704700000000000080B50146B0F5804F80
:1009D0004FF000002DDBB1F5800F80F28280B1F581
:1009E000802F80F2C380B1F5803F80F24581B1F560
:1009F000804F00F04982B1F5004F40F0AC8344F2E3
:100A00000040C5F60200816D01F00701052900F2E2
:100A10003384DFE811F085020600F9032E04D502C5
:100A2000DC02C06A800340F12784BDE8804001F009
:100A300027BB7F2900F37E804A1E3F2A00F2738184
:100A4000DFE812F04000EE0189039F01890389036A
:100A50008903C801890389038903890389038903F9
:100A60008903DB01890389038903890389038903D6
:100A70008903890389038903890389038903890316
:100A80008903AE01890389038903890389038903E3
:100A900089038903890389038903890389038903F6
:100AA00089038903890389038903890389038903E6
:100AB00089038903890389038903890389038903D6
:100AC00089038C0144F20040C5F60200D0F8001101
:100AD00001F4E041B1F5A04F40F0D1824FF4A041C4
:100AE000D0E2B1F1806F80F26680B1F1807F80F258
:100AF000D280B1F5800F00F0E181B1F5000F40F038
:100B00002A8344F20040C5F60200416DC1F3022180
:100B1000042900F2B183DFE811F0BF0205007E0274
:100B200079023902C06AC00340F1A683BDE8804063
:100B300001F042BAB1F5806F63DBB1F5805F80F2FE
:100B40007B80B1F5806F00F07881B1F5006F40F0E7
:100B5000028344F20040C5F60200016DC1F3013189
:100B6000DFE811F02A02E601A2022E02B1F5801F91
:100B700080F2AD80B1F5802F00F0AD81B1F5002F8E
:100B800040F0E98244F20040C5F60200416DC1F335
:100B90000241042900F27083DFE811F07E020500B3
:100BA0003D023802F801C06AC00340F16583BDE828
:100BB000804001F001BAB1F1005F80F29B80B1F199
:100BC000806F00F09B81B1F1805F40F0C48244F2FD
:100BD0000040C5F60200416D01F00701052900F251
:100BE0004B83DFE811F07000060018036102ED018D
:100BF000F401C06A800340F13F83BDE8804001F00A
:100C00003FBA802900F0F281B1F5807F00F0E581E4
:100C1000B1F5007F40F09F8244F20040C5F602002B
:100C2000016D01F44001B1F5000F00F0A781B1F5AD
:100C3000800F40F074802FE200F00C81B1F5005F6E
:100C400040F0898244F20040C5F60200816DC1F394
:100C50000221052900F21083DFE811F0620106008D
:100C6000BA02B901DB019801C06AC00340F10483F4
:100C7000BDE8804001F0A0B900F05681B1F5003F19
:100C800040F0698244F20040C5F60200C16C0901DF
:100C900040F14E817AE100F05381B1F1007F40F0E4
:100CA0005A8244F20040C5F60200416DC1F30211C0
:100CB000052900F2E182DFE811F00600CA02B50260
:100CC000E10283013202BDE8804001F0D9B800F0B2
:100CD0004681B1F5001F40F03E8244F20040C5F667
:100CE0000200C16CC06A490700F1FD81000340F1B8
:100CF000C382C0E100F04E81B1F1804F40F02B8201
:100D000044F20040C5F60200C16C01F44051B1F557
:100D1000005F00F03982B1F5805F00F01482002995
:100D200000F0FD81A8E2B1F1004F40F0148244F2DE
:100D30000040C5F60200C16CC1F38131022900F008
:100D4000EE81012900F02782002940F09582006899
:100D500046F600418004C0F2DC21FAE144F2004092
:100D6000C5F60200016D01F04051B1F1005F00F0E5
:100D70002781B1F1805F00F04C81002940F07C8236
:100D800025E144F20041C5F60201D1F8000100F46A
:100D9000E060B0F5806F40F046814FF4806245E13D
:100DA00044F20040C5F60200C16CC1F302510529AE
:100DB00000F26282DFE811F06C010600F6012A0100
:100DC0000401FD01C06AC00340F15682BDE88040C5
:100DD00001F0F2B844F20040C5F60200C16C01F027
:100DE0004051B1F1005F00F09A81B1F1805F00F0F5
:100DF000E780002940F0408256E144F20040C5F609
:100E00000200C16C01F04071B1F1007F00F0BE80C2
:100E1000B1F1807F00F08C80002940F02D82ADE0A0
:100E200044F20041C5F60201D1F8000100F0700063
:100E3000402840F00E8104220EE144F20040C5F645
:100E40000200016DC1F30121DFE811F0B60072006C
:100E50002E01BA0044F20040C5F60200016DC1F354
:100E60000241052900F20882DFE811F0A600060021
:100E7000AB01B100D3009000C06AC00340F1FC8117
:100E8000BDE8804001F098B844F20040C5F6020089
:100E9000816DC1F30231052900F2EE81DFE811F026
:100EA000400006009F019700B9007600C06AC003A9
:100EB00040F1E281BDE8804001F07EB844F200409C
:100EC000C5F60200016DC1F30161DFE811F0E50034
:100ED00010013100ED0044F20041C5F60201086F37
:100EE00000F44070B0F5407F40F0F08008694FF4A6
:100EF0007C3202EA001000F54070EAE044F2004063
:100F0000C5F60200816DC1F30211052900F2B4811A
:100F1000DFE811F006008F016C01A4015600050105
:100F2000BDE8804000F0C8BF44F20040C5F60200B2
:100F3000C06A800040F1A081BDE8804001F0F8BAAD
:100F400044F20040C5F60200016DC1F3021104290C
:100F500000F29281DFE801F0A0125F5A1A0044F219
:100F60000040C5F60200416DC1F30251042900F2B0
:100F70008381DFE801F09103504B0B00C06AC0038E
:100F800040F17A81BDE8804001F016B8BDE88040AC
:100F900002F07EBC44F20040C5F60200016D01F093
:100FA0000701052900F26881DFE811F006004A0117
:100FB00027015C010A001100BDE8804000F044BF39
:100FC000006840F60011C005C0F23D01C1E0006FAD
:100FD0004FF4004101EA803080BD44F20040C5F684
:100FE0000200C16C490340F19A809FE044F2004046
:100FF000C5F60200C16C01F44031B1F5003F00F0CC
:101000008B80B1F5803F00F08A8035E14BF680306F
:1010100080BD406F93E0C06A000140F12D81BDE8C2
:10102000804001F0BDB9C86C00F0C0027F2A4FF0CB
:10103000000004DC002A2BD0402A18D08BE0802A44
:101040005DD0B2F5806F18BF80BD00F0E5FE80086E
:1010500080BDC86CC0F30112042A4FF0000000F2FA
:101060007A80DFE802F015044C780300EDE7C86AE7
:10107000000340F10181BDE8804001F0C9B8C16CB6
:1010800001F00301032942D8DFE801F00206310E26
:10109000BDE8804000F0C0BEC06A400640F1EC8070
:1010A000BDE8804000F024BF0168490740F1E480BA
:1010B0000168890640F1E080006849F20001C0F251
:1010C000D031C0F3C10021FA00F080BD086F00F4F8
:1010D000407000283FD0B0F5007F2FD0B0F5807F62
:1010E0003AD1086F74E7C00240F1C6800BE0C06AD5
:1010F000400340F1C180BDE8804001F025B8C86AD6
:10110000C00240F1B980BDE8804001F0E5B8B1F51A
:10111000A04F40F0B18098E7C16C490306D4006845
:1011200043F200618003C0F26E1112E0C06A400019
:1011300040F1A280BDE8804001F05EBA486F8007B0
:101140004FF4FA4105E0006841F600318003C0F237
:10115000B70101EAE07080BD086F00F44070B0F59F
:10116000407F40F089800868800340F185800869ED
:10117000C0F305200228C0F0888043F20061C0F26D
:101180006E11B1FBF0F080BDC06AC00074D5BDE83F
:10119000804001F069B9C06AC0006DD5BDE88040EB
:1011A00001F062B9C06A000166D5BDE8804001F077
:1011B000F7B8016849075FD5016889063FF57CAF3C
:1011C00063E0C06A800057D5BDE8804001F0B0B947
:1011D000C06A800050D5BDE8804001F0A9B9C06A5E
:1011E000800049D5BDE8804001F0A2B9C06AC000C6
:1011F00042D5BDE8804001F037B9C06AC0003BD598
:10120000BDE8804001F030B9C06AC00034D5BDE807
:10121000804001F029B9C06AC0002DD5BDE88040EA
:1012200001F022B9C06AC00026D5BDE8804001F0B7
:101230001BB9C06A80031FD5BDE8804000F020BF05
:10124000C06A800318D5BDE8804000F019BFC06AAD
:10125000800311D5BDE8804000F012BF0168490746
:101260000AD525E70168490706D50168890603D52F
:1012700022E70168490704D4002080BD01684907BE
:10128000FAD5016889063FF517AF002080BD000040
:101290002DE9F041817844F22C45C5F60205490755
:1012A00002D4002600213DE0696C11F440711ED08B
:1012B000C26F02F44072914219D0D5F8D41341F4B0
:1012C0008071C5F8D413D5F8D413C90503D4012609
:1012D000002179B925E0696C6A6C42F480326A6455
:1012E0006A6C21F4407122F480326A6469640026D9
:1012F0000121B1B1C16FB1F5807F0FD18046FFF7F9
:10130000CFF9044641F28937686C800705D4FFF7AE
:10131000C7F9001BB842F7D303264046002E00F061
:101320000A8131460268D3073AD1930746D453075E
:1013300061D4130700F17E80930200F18480D3060C
:1013400000F19280930600F1BC80530600F11781F2
:10135000130600F11D81D30500F12381930500F1EF
:101360002E81130500F15781530500F16981D304E3
:1013700000F17B81930400F1AE81530400F1C5813B
:10138000130400F1DC81D30300F1F181930300F138
:10139000F581130300F10082D20200F1298298E264
:1013A0004368032B00F2C280DFE803F002A8B80212
:1013B000002E00F0AA8031469307B8D58368ABB100
:1013C000202B0FD0102B40F08B802F6847F4002784
:1013D0002F606EB92F6A27F030073B432B6253070B
:1013E000A7D508E02F6847F480172F60002EF1D0B2
:1013F000314653079DD5C368B3B1802B10D0402B25
:1014000040F073802F6847F400272F6076B92F6A69
:1014100027F0C0073B432B6213077FF58DAF09E030
:101420002F6847F480172F60002EF0D03146130745
:101430007FF582AF2B6A076923F040533B432B6251
:1014400093027FF57CAF436D23B1042B23D14FF47E
:10145000801701E04FF400272C6827432F60EEB17E
:101460003146D3067FF56EAF4369B3F1007F22D0DA
:10147000B3F1807F1BD0002B3CD12F6847F480371D
:101480002F60D6B92F6A27F040773B432B62930633
:101490007FF55BAF15E00126002EE1D12F6A27F022
:1014A00004073B432B62D3067FF54CAFDCE72F6884
:1014B00047F000572F60002EE4D0314693067FF5A9
:1014C00044AF83694FEA3357052F00F2B281DFE85A
:1014D00007F04F034B4F4F4F2F6847F4803746E0DC
:1014E0000126002E7FF484AF74E70126002E7FF4DE
:1014F0009DAF8CE70126002EDFD1C3E72F6847F0B0
:1015000040072F60002E7FF456AF2F6A27F00307A5
:101510003B432B6293077FF50AAF4FE72F6847F4F1
:1015200080272F60002E7FF446AFEEE70126002EC5
:101530007FF441AFE9E7C16F55F81C2C6FF0300321
:1015400022F47C5203EA111311F47C3F18BF1A43B2
:1015500001F4407145F81C2C6A6C11436964696C94
:1015600041F4004169649DE62F6847F000672F60F1
:10157000002E00F06281314653067FF5E9AE6B6ABA
:10158000C76923F040533B436B6213067FF5E3AE1C
:101590002B6A076A23F440333B432B62D3057FF564
:1015A000DDAE436A33B1B3F5802F1ED12F6847F00B
:1015B00080472F60E6B1314693057FF5D2AE836A4E
:1015C0001BB3B3F5000F1CD0B3F5800F5CD12F68AF
:1015D00047F040072F60D6B96F6A27F440073B43B6
:1015E0006B6213057FF5C0AE15E00126002EE2D137
:1015F0002F6A27F480273B432B6293057FF5B1AE1A
:10160000DDE72F6847F480372F60002EE4D03146A5
:1016100013057FF5A9AEC36A6FF0010707EB3337F7
:10162000022F08D34FEA33372FB1012F30D12F6863
:1016300047F000572F6076B3314653057FF597AEDC
:10164000036B6FF0010707EB3327022F08D34FEA34
:1016500033272FB1012F27D12F6847F000572F6074
:101660002EB33146D3047FF585AE436B4FEA334743
:10167000052F00F2EB80DFE807F027032327272759
:101680002F6847F480371EE00126002EBFD1A3E764
:101690000126002ED0D16F6A27F440573B436B627E
:1016A00053057FF564AECBE70126002ED9D16F6AD2
:1016B00027F440773B436B62D3047FF55BAED4E7FE
:1016C0002F6847F000572F60002E00F0C38031468E
:1016D00093047FF552AE836B4FEA3327052F00F258
:1016E000C280DFE807F00B03070B0B0B2F6847F4F2
:1016F000803702E02F6847F000572F60002E00F07F
:10170000B680314653047FF53BAEC36B4FEA3337A7
:10171000052F00F2B580DFE807F00B03070B0B0B7A
:101720002F6847F4803702E02F6847F000572F609A
:10173000002E00F0A980314613047FF524AE036C1F
:10174000052B00F2AA80DFE803F00B03070B0B0B5D
:101750002F6847F4003702E02F6847F080572F606A
:10176000002E00F09E803146D3037FF50FAE2B682C
:1017700043F000532B6093037FF50BAE836CB3F102
:10178000006F04D0BBB92F6847F000572F60AEB18F
:10179000314613037FF500AEC36C4FEA3347042F85
:1017A0003BD8DFE807F0183314030300CEB131460D
:1017B000D2021DD48DE00126002EE9D12F6A27F038
:1017C00000673B432B6213037FF5E6ADE4E72F6828
:1017D00047F0006702E02F6847F040072F60002EB7
:1017E000E5D1AF6A27F4E0273B43AB62D20270D564
:1017F000026D4FEA3253052B5CD8DFE803F0125F2D
:1018000016030303002E5FD0314662E02F6847F4D1
:1018100080372F60002ECAD1E3E70126002EC6D103
:10182000DFE72B6843F040034BE02B6843F0006395
:1018300047E00126002E7FF49EAE2F6A27F4E007D2
:101840003B432B6253067FF583AD98E60126002EBD
:101850007FF43DAF6F6A27F4E0273B436B6293044C
:101860007FF58BAD37E70126002E7FF44AAFEF6A94
:1018700027F4E0673B43EB6253047FF581AD44E717
:101880000126002E7FF457AFEF6A27F4E0473B4371
:10189000EB6213047FF577AD51E70126002E7FF44C
:1018A00062AFEF6A27F007073B43EB62D3037FF594
:1018B0006DAD5CE70126002EA6D105E02B6843F450
:1018C00080332B60002E9FD1AB6A23F4E0031A43D0
:1018D000AA620268530227D4130248D4D30156D413
:1018E000930100F16480530100F1BC80D30000F14A
:1018F000D380930000F1E880530000F1FC80B2F146
:10190000FF3F40F30481120108D555F81C2CD0F894
:10191000800022F40042104345F81C0C002918BF37
:1019200001210846BDE8F081836E4FEA3367032F3B
:101930004CD8DFE807F0020613172F6847F040077E
:1019400002E02F6847F480272F606EB96F6A27F096
:1019500040773B436B621302C0D508E02F6847F025
:1019600000572F60002EF1D031461302B6D5836D9B
:101970004FEA3327042F00F26180DFE807F033518C
:101980002B030300002E33D03146D301A8D5C36DFD
:101990004FEA3317042F56D8DFE807F03349200306
:1019A0000300002E33D0314693017FF59CAF036EC8
:1019B0004FEA3317052F00F2E080DFE807F04C0311
:1019C000484C4C4C2F6847F4003743E00126002E6A
:1019D000CAD1BBE72F6847F0006706E02F6847F0E1
:1019E000006711E02F6847F040072F60002ECBD131
:1019F000AF6A27F4E0673B43AB62D3017FF570AF7A
:101A0000C5E72F6847F040072F60002ECBD16F6AE3
:101A100027F070073B436B6293017FF564AFC6E725
:101A20002F6847F480372F60002EADD1E0E72F6894
:101A300047F480372F60002EB5D1E8E70126002E4D
:101A40007FF4A2AFD4E70126002EACD1DFE72F68E8
:101A500047F080572F60002E00F0938031465301ED
:101A60007FF544AF436E4FEA3317052F00F29280A3
:101A7000DFE807F00B03070B0B0B2F6847F4003769
:101A800002E02F6847F080572F60002E00F086801C
:101A90003146D3007FF52DAFC36E052B00F2878052
:101AA000DFE803F00B03070B0B0B2F6847F400373D
:101AB00002E02F6847F080572F60002E00F07B80F7
:101AC000314693007FF518AF036F052B00F27C8041
:101AD000DFE803F00B03070B0B0B2F6847F400370D
:101AE00002E02F6847F080572F60002E70D03146FB
:101AF00053007FF504AF436F002B18BFB3F5805F31
:101B000025D1D6B13146B2F1FF3F3FF7FCAE836F2E
:101B10006FF0010707EBB337022F08D34FEAB33753
:101B20002FB1012F1DD12F6847F080572F60DEB1F4
:101B3000012112013FF5E9AEF0E62F6A27F4405784
:101B40003B432B62B2F1FF3F3FF7DDAEDFE7B3F57A
:101B5000005F04D12F6847F080572F60D1E701263E
:101B6000CFE70126002EE3D12F6A27F440473B43FD
:101B70002B6212013FF5C9AED0E60126002E7FF49C
:101B80006DAFAF6A27F070073B43AB6253017FF53F
:101B9000ADAE67E70126002E7FF47AAFEF6A27F03B
:101BA00070073B43EB62D3007FF5A3AE74E70126D9
:101BB000002E7FF485AFAF6A27F007073B43AB6287
:101BC00093007FF599AE7FE70126002E7FF48FAF5B
:101BD0006F6A27F007073B436B6253007FF58FAEB8
:101BE00089E70000000000002DE9F04381B00028E3
:101BF00000F0E78042F200080446C5F2002889465A
:101C0000D8F8000000F03F0088420ED2D8F800005B
:101C100020F03F0040EA0900C8F80000D8F80000B2
:101C200000F03F00484540F0CC80206844F2204757
:101C30004107C5F602070AD521693A6802F0070292
:101C4000914204D93A6822F0070211433960010732
:101C50000AD561693A6802F07002914204D93A6883
:101C600022F0700211433960C1060AD5A1693A68B1
:101C700002F4E062914204D93A6822F4E06211432E
:101C8000396081060AD5E1693A6802F4E04291427E
:101C900004D93A6822F4E0421143396081070DD536
:101CA000E16857F8042C02F00F02914206D957F868
:101CB000042C22F00F02114347F8041CC0076AD11C
:101CC000206881070DD5E16857F8042C02F00F0257
:101CD000914206D257F8042C22F00F02114347F824
:101CE000041CD8F8001001F03F0149450DD9D8F87F
:101CF000001021F03F0141EA0901C8F80010D8F8AE
:101D0000001001F03F0149455BD141070AD5216927
:101D10003A6802F00702914204D23A6822F00702C0
:101D20001143396001070AD561693A6802F070020F
:101D3000914204D23A6822F0700211433960C10620
:101D40000AD5A1693A6802F4E062914204D23A6885
:101D500022F4E0621143396080060AD5E0693968EF
:101D600001F4E041884204D2396821F4E04108439B
:101D7000386000F0A5FC40F2282140F20402C2F2D3
:101D80000041C2F2004209681060084601B0BDE897
:101D9000F043FEF7ADBC57F8080C20F00F01D4E972
:101DA0000102114347F8081C012857F8201C0CD0E9
:101DB000032804D0022829D1890302D507E089012C
:101DC00005D4012001B0BDE8F083C905F9D557F865
:101DD000101C21F00701084347F8100CFEF760FCC7
:101DE000064641F2883500BF57F8100C616800F0D4
:101DF0003800B0EBC10F3FF463AFFEF751FC801B1E
:101E0000A842F1D9032001B0BDE8F0834907D8D535
:101E1000DDE700000000000080B500F051FC44F256
:101E20001C41C5F60201096801F00F01082938BFFD
:101E300080BD46F65632C0F60002114411F8081C67
:101E4000C84080BD0000000010B544F21C44C5F637
:101E5000020400F035FC216801F00F01082907D3C6
:101E600046F65632C0F60002114411F8081CC8406C
:101E7000616801F00701033938BF0021C84010BD77
:101E800010B544F21C44C5F6020400F019FC2168A8
:101E900001F00F01082907D346F65632C0F60002BA
:101EA000114411F8081CC8406168C1F302110339DC
:101EB00038BF0021C84010BD10B544F21C44C5F61F
:101EC000020400F0FDFB216801F00F01082907D38F
:101ED00046F65632C0F60002114411F8081CC840FC
:101EE0006168C1F30221033938BF0021C84010BD29
:101EF00010B544F20043C5F60203D3F830E09A6A05
:101F0000186BC2F305144CB16FF35F20D96AC9078F
:101F100000F1010C04D19FED240A0CE000213CE00B
:101F2000586B9FED221AC0F3CC0000EE100AB8EEF9
:101F3000400A20EE010A02F0030002280BD001281B
:101F400006D010B91868800608D49FED171A12E061
:101F50009FED181A0FE09FED161A0CE0186849F271
:101F60000001C0F2D031C0F3C10021FA00F001EE4F
:101F7000100AB8EE411A02EE104A03EE10CAB8EE8B
:101F8000422AB8EE433A81EE021A30EE030A20EEFE
:101F9000010ABCEEC00A10EE101ACEF30640013062
:101FA000B1FBF0F010BD00BF0000000000000039E0
:101FB000001BB74B0024744A10B544F20043C5F629
:101FC0000203D3F838E09A6A986BC2F305344CB137
:101FD0006FF35F20D96A090500F1010C04D49FED6D
:101FE000240A0CE000213CE0D86B9FED221AC0F3DC
:101FF000CC0000EE100AB8EE400A20EE010A02F012
:10200000030002280BD0012806D010B918688006FA
:1020100008D49FED171A12E09FED181A0FE09FEDFC
:10202000161A0CE0186849F20001C0F2D031C0F372
:10203000C10021FA00F001EE100AB8EE411A02EEDA
:10204000104A03EE10CAB8EE422AB8EE433A81EEC7
:10205000021A30EE030A20EE010ABCEEC00A10EEAE
:10206000101ACEF346200130B1FBF0F010BD00BFD6
:102070000000000000000039001BB74B0024744A28
:1020800010B544F20043C5F60203D3F838E09A6A6B
:10209000986BC2F305344CB16FF35F20D96A090520
:1020A00000F1010C04D49FED240A0CE000213CE077
:1020B000D86B9FED221AC0F3CC0000EE100AB8EEE8
:1020C000400A20EE010A02F0030002280BD001288A
:1020D00006D010B91868800608D49FED171A12E0D0
:1020E0009FED181A0FE09FED161A0CE0186849F2E0
:1020F0000001C0F2D031C0F3C10021FA00F001EEBE
:10210000100AB8EE411A02EE104A03EE10CAB8EEF9
:10211000422AB8EE433A81EE021A30EE030A20EE6C
:10212000010ABCEEC00A10EE101ACEF306400130D0
:10213000B1FBF0F010BD00BF00000000000000394E
:10214000001BB74B0024744A10B544F20043C5F697
:102150000203D3F838E09A6A986BC2F305344CB1A5
:102160006FF35F20D96A090500F1010C04D49FEDDB
:10217000240A0CE000213CE0D86B9FED221AC0F34A
:10218000CC0000EE100AB8EE400A20EE010A02F080
:10219000030002280BD0012806D010B91868800669
:1021A00008D49FED171A12E09FED181A0FE09FED6B
:1021B000161A0CE0186849F20001C0F2D031C0F3E1
:1021C000C10021FA00F001EE100AB8EE411A02EE49
:1021D000104A03EE10CAB8EE422AB8EE433A81EE36
:1021E000021A30EE030A20EE010ABCEEC00A10EE1D
:1021F000101ACEF306600130B1FBF0F010BD00BF45
:102200000000000000000039001BB74B0024744A96
:1022100010B544F20043C5F60203D3F8C4E09A6A4D
:10222000986BC2F305344CB16FF35F20D96A09058E
:1022300000F1010C04D49FED240A0CE000213CE0E5
:10224000D86B9FED221AC0F3CC0000EE100AB8EE56
:10225000400A20EE010A02F0030002280BD00128F8
:1022600006D010B91868800608D49FED171A12E03E
:102270009FED181A0FE09FED161A0CE0186849F24E
:102280000001C0F2D031C0F3C10021FA00F001EE2C
:10229000100AB8EE411A02EE104A03EE10CAB8EE68
:1022A000422AB8EE433A81EE021A30EE030A20EEDB
:1022B000010ABCEEC00A10EE101A0EF00700013041
:1022C000B1FBF0F010BD00BF0000000000000039BD
:1022D000001BB74B0024744A10B544F20043C5F606
:1022E0000203D3F8C4E09A6A986BC2F305344CB188
:1022F0006FF35F20D96A090500F1010C04D49FED4A
:10230000240A0CE000213CE0D86B9FED221AC0F3B8
:10231000CC0000EE100AB8EE400A20EE010A02F0EE
:10232000030002280BD0012806D010B918688006D7
:1023300008D49FED171A12E09FED181A0FE09FEDD9
:10234000161A0CE0186849F20001C0F2D031C0F34F
:10235000C10021FA00F001EE100AB8EE411A02EEB7
:10236000104A03EE10CAB8EE422AB8EE433A81EEA4
:10237000021A30EE030A20EE010ABCEEC00A10EE8B
:10238000101ACEF302200130B1FBF0F010BD00BFF7
:102390000000000000000039001BB74B0024744A05
:1023A00010B544F20043C5F60203D3F840E09A6A40
:1023B000186CC2F305544CB16FF35F20D96A49021F
:1023C00000F1010C04D49FED240A0CE000213CE054
:1023D000586C9FED221AC0F3CC0000EE100AB8EE44
:1023E000400A20EE010A02F0030002280BD0012867
:1023F00006D010B91868800608D49FED171A12E0AD
:102400009FED181A0FE09FED161A0CE0186849F2BC
:102410000001C0F2D031C0F3C10021FA00F001EE9A
:10242000100AB8EE411A02EE104A03EE10CAB8EED6
:10243000422AB8EE433A81EE021A30EE030A20EE49
:10244000010ABCEEC00A10EE101ACEF3462001308D
:10245000B1FBF0F010BD00BF00000000000000392B
:10246000001BB74B0024744A10B544F20043C5F674
:102470000203D3F840E09A6A186CC2F305544CB1D9
:102480006FF35F20D96A490200F1010C04D49FED7B
:10249000240A0CE000213CE0586C9FED221AC0F3A6
:1024A000CC0000EE100AB8EE400A20EE010A02F05D
:1024B000030002280BD0012806D010B91868800646
:1024C00008D49FED171A12E09FED181A0FE09FED48
:1024D000161A0CE0186849F20001C0F2D031C0F3BE
:1024E000C10021FA00F001EE100AB8EE411A02EE26
:1024F000104A03EE10CAB8EE422AB8EE433A81EE13
:10250000021A30EE030A20EE010ABCEEC00A10EEF9
:10251000101ACEF306400130B1FBF0F010BD00BF41
:102520000000000000000039001BB74B0024744A73
:1025300010B544F20043C5F60203D3F840E09A6AAE
:10254000186CC2F305544CB16FF35F20D96A49028D
:1025500000F1010C04D49FED240A0CE000213CE0C2
:10256000586C9FED221AC0F3CC0000EE100AB8EEB2
:10257000400A20EE010A02F0030002280BD00128D5
:1025800006D010B91868800608D49FED171A12E01B
:102590009FED181A0FE09FED161A0CE0186849F22B
:1025A0000001C0F2D031C0F3C10021FA00F001EE09
:1025B000100AB8EE411A02EE104A03EE10CAB8EE45
:1025C000422AB8EE433A81EE021A30EE030A20EEB8
:1025D000010ABCEEC00A10EE101ACEF306600130FC
:1025E000B1FBF0F010BD00BF00000000000000399A
:1025F000001BB74B0024744A10B544F20043C5F6E3
:102600000203D3F8C8E09A6A186CC2F305544CB1BF
:102610006FF35F20D96A490200F1010C04D49FEDE9
:10262000240A0CE000213CE0586C9FED221AC0F314
:10263000CC0000EE100AB8EE400A20EE010A02F0CB
:10264000030002280BD0012806D010B918688006B4
:1026500008D49FED171A12E09FED181A0FE09FEDB6
:10266000161A0CE0186849F20001C0F2D031C0F32C
:10267000C10021FA00F001EE100AB8EE411A02EE94
:10268000104A03EE10CAB8EE422AB8EE433A81EE81
:10269000021A30EE030A20EE010ABCEEC00A10EE68
:1026A000101A0EF007000130B1FBF0F010BD00BFB2
:1026B0000000000000000039001BB74B0024744AE2
:1026C00080B544F20040C5F602000169C1F3C201C1
:1026D000032914D002290DD021BB0168890626D513
:1026E000016849F20002C0F2D032C1F3C10122FAFE
:1026F00001F161E043F20061C0F26E115CE0826AB8
:10270000816AC36AD0F834C0C1F3051179B102F00F
:102710000302022A0DD07AB9026892060FD49FED07
:102720002D0A3BE040F60011C0F23D0144E00021DB
:1027300042E09FED270A0FE09FED240A0CE00268BB
:10274000C2F3C10E49F20002C0F2D03222FA0EF2F8
:1027500000EE102AB8EE400A03F001029FED1E3A87
:10276000524202EADC026FF35F3201EE102A026B82
:102770006FF35F2202EE102AB8EE411AB8EE422A39
:1027800001EE032A01EE101AB7EE003AB8EE411A34
:1027900080EE010A32EE031A20EE010A016BC1F34A
:1027A0004621013101EE101AB8EE411A80EE010AFD
:1027B000BCEEC00A10EE101A806900F00F00073856
:1027C00038BF002021FA00F080BD00BF0024744A09
:1027D000001BB74B000000000000003900000000A3
:1027E00000286AD02DE9F04381B044F20046044647
:1027F000C5F602063069B16A3768227800F03808F9
:1028000001F00309D2070ED0B8F1100F07D017F06E
:10281000285F00F0C780B9F1020F40F0C380606804
:10282000002800F08B802078800748D42078C006EC
:102830000DD5B8F1080F07D017F0285F00F004811C
:10284000B9F1010F40F00081206A002876D020788D
:10285000000777D42078800600F18B80207840072D
:1028600000F1CE80214651F8240F002800F03A8173
:10287000B8F1180F40F02C8101285FD0706BA16C6B
:10288000C0F3CC00814200F02D81F06A20F00100FD
:10289000F062FDF705FF0546FDF702FFA842FBD0F9
:1028A000706B4FF6F871A26C884340EAC200706307
:1028B000F06A40F00100F06214E101207047B8F1C5
:1028C000000F05D017F0285F79D0B9F1000F76D14D
:1028D000E06898B3B9F1000F306807D117F02851BC
:1028E00004D000F018002169884227D1306821699E
:1028F00020F01800B8F1000F40EA010040F001009C
:1029000030600DD1306840F2040249F20001C2F299
:102910000042C0F3C100C0F2D03121FA00F01060D3
:1029200040F22820C2F200400068FDF7E1FE0028D6
:1029300000F0F680012001B0BDE8F083012001B075
:10294000BDE8F083A0690028706F6AD040F00100F4
:102950007067FDF7A5FE0546706F80073FF57AAFFB
:10296000FDF79EFE401B0128F6D9032001B0BDE80B
:10297000F083E0690028306800F0978040F48050D0
:102980003060FDF78DFE0546306880043FF566AF88
:10299000FDF786FE401B01284FF00300F4D901B07B
:1029A000BDE8F08361683068B1F5A02F64DA0029D2
:1029B00000F0DF80B1F5803F00F0EE80CEE0E0680F
:1029C0003168002800F0B48021F01901D4E9042313
:1029D000114308433060706820F0FE4040EA036015
:1029E0007060FDF75DFE0546306840073FF51EAF9D
:1029F000FDF756FE401B01284FF00300F4D9CEE747
:102A0000D6F8000440F48070C6F80004A568306F62
:102A1000042D3DDC002D00F0FC80012D00F00C8128
:102A2000ECE020F001007067FDF73AFE054600BFBC
:102A3000706F80077FF50EAFFDF732FE401B012857
:102A40004FF00300F4D9AAE7206A0028306800F0AC
:102A5000C38040F080003060FDF722FE054600BFD5
:102A60003068C0053FF5F3AEFDF71AFE401B0128A4
:102A70004FF00300F4D992E700F08680B1F5502FB3
:102A80006CD140F480203060306840F4002081E058
:102A9000052D00F0C980852D40F0B08040F0040085
:102AA0003067306F40F08000C4E020F48050306028
:102AB000FDF7F6FD054600BF306880047FF5CEAE19
:102AC000FDF7EEFD401B01284FF00300F4D966E747
:102AD00001206064002000F00FFF01460120002962
:102AE0007FF45DAF214651F84C0F38B1012000F062
:102AF00003FF0146012000297FF451AF214651F820
:102B0000740F38B30120C4F89400022000F0F4FEE2
:102B100001460120002908BF002001B0BDE8F08374
:102B20007068616920F0FE4040EA016070607DE6F7
:102B300021F001003060FDF7B3FD05463068400725
:102B40007FF574AEFDF7ACFD401B01284FF003008C
:102B5000F4D924E7002001B0BDE8F08320F48030F0
:102B60003060306820F480203060306820F400202D
:102B700014E020F480303060306820F400203060B1
:102B8000306820F4802009E040F480203060306814
:102B900020F400203060306840F480303060FDF771
:102BA0007FFD6168054699B1306880033FF53BAE13
:102BB000FDF776FD401B64284FF00300F4D9EEE6E4
:102BC000FDF76EFD401B64284FF003003FF6E7AEB3
:102BD00030688003F4D426E620F080003060FDF7F2
:102BE0005FFD05463068C0057FF531AEFDF758FD45
:102BF000401B01284FF00300F4D9D0E620F001007B
:102C00003067306F20F004003067306F20F08000B4
:102C100014E020F001003067306F20F08000306752
:102C2000306F20F0040009E040F004003067306F9E
:102C300020F080003067306F40F001003067FDF712
:102C40002FFD002D054641F2883713D0306F8007E5
:102C50003FF508AEFDF724FD401BB8424FF00300DE
:102C6000F4D99CE6FDF71CFD401BB8424FF0030071
:102C70003FF695AE306F8007F4D4F3E50000000016
:102C800040F21051C5F600010A6810430860704711
:102C9000411E0020B0EB116F01D0012070474EF2B1
:102CA0001002F023CEF2000251604EF62351CEF214
:102CB00000010B7007219060116070470000000058
:102CC0002DE9F043A7B0044606A88421FDF713FBC5
:102CD00041F200022168C4F20022002091420590D6
:102CE000CDE903000290019002D027B0BDE8F08347
:102CF000219006A84FF080510691FEF7C9FA44F2E0
:102D0000405040F20044C5F60200C5F6020401AD91
:102D10004FF0020801694FF0010941F01001016113
:102D2000016900910099016841F0020101600168A8
:102D300000910099016841F0020101600068009073
:102D400000984FF48040019020462946CDF8088035
:102D5000CDF80C900326049604270597FDF7CCFBCD
:102D600001A94FF40040CDE9046781E80103204642
:102D70002946FDF7C1FB522003210022FDF758FD33
:102D80005220FDF741FD27B0BDE8F08300000000B0
:102D900041F200010068C4F20021884218BF704768
:102DA00040F2DC60C2F20040B0F90010002922D4E9
:102DB00089B240F29042C2F20042B1F5804F1378DE
:102DC00004D20D2B0CD141F4804213E048F2000CE8
:102DD0000022CFF6FF7C0A2B08BF41EA0C0209E073
:102DE00040F2146C4A1CC2F2004CC6290CF80130A7
:102DF00088BF0022028040F2805040F29041C2F22F
:102E00000040C2F20041012203F046BE0000000073
:102E1000F0B586B04BF200470023C5F200276A46A2
:102E20004FF0010C0593CDE90333CDE90133009355
:102E300005E000BF0024D4500C330C2B1CD13D689E
:102E400002EB030453B13E6885EA56062CEA0606F7
:102E500066603E68F606EDD5402406E0C5F3400501
:102E600065603D68ED06E5D520243E6826424FF0BA
:102E7000700408BF1024DEE745F2000CC5F2002CF8
:102E8000DCF80020D20701D1002306E0DCF80020A6
:102E9000012322F00102CCF800204AF2000EC5F214
:102EA000002EDEF80020D20706D0DEF80020023324
:102EB00022F00102CEF8002000223A603A688C68C5
:102EC000002522F47F02CFF6FF7505EB0444224370
:102ED0003A600068704508D0604538D1D1E90001FA
:102EE000019160B16FF0300105E0D1E9000104917A
:102EF00028B16FF050013A681140084338600198DA
:102F00000499884212D1396841F0010139600128E1
:102F10000ED0D80712D1980705D5DEF8000040F092
:102F20000100CEF80000002006B0F0BD0128F0D16D
:102F3000386840F002003860D807ECD0DCF80000B8
:102F400040F00100CCF800009807E6D4EBE7012040
:102F500006B0F0BD000000002DE9F04715460F4611
:102F60000446FDF79DFB2168D1F84880D1F8109107
:102F7000626D042A49D18246F868B0F5800F44D1C9
:102F8000086A800653D42068D4F80CC097E84C0037
:102F9000F968C0F88820C0F88030BCF1806F3A69C9
:102FA000C0F89020026822F0435242EA060241EA49
:102FB000020141F0005101604FF0480107D0D0F804
:102FC000002112F4E06204BF4FF48871C84640F853
:102FD0000180006A00071DD46E1C03E02068006AAF
:102FE000000717D4002EF9D0FDF75AFB1DB1A0EB56
:102FF0000A00A842F2D94FF400706065A06D00216C
:1030000040F00100A065032006E01020A06501202B
:10301000BDE8F08700200121002908BFBDE8F08746
:10302000216808224A6202216165BDE8F0876E1CB2
:1030300004E000BF2068006A8006A4D5002EF9D005
:10304000FDF72EFB1DB1A0EB0A00A842F2D94FF408
:1030500000706065A06D40F00100A0650220BDE831
:10306000F0870000000000002DE9F0411546884679
:103070000446FDF715FB616D0646242913D014297B
:1030800009D0022922D1E068B0F1806F11D1242942
:1030900009D014291AD1D8F8000020F00100022824
:1030A00007D0242912D1D8F8000040F002000328EC
:1030B0000CD12068006A80060DD40020A06520464F
:1030C000414600F041FDF8B1BDE8F0811020A06557
:1030D0000120BDE8F0816F1C04E000BF2068006A99
:1030E0008006EAD5002FF9D0FDF7DAFA15B1801B7A
:1030F000A842F3D94FF400706065A06D40F0010064
:10310000A0650220BDE8F081D8F8381069B1D8F880
:103110000010022932D0012929D0002918BFBDE8AA
:10312000F08104216165BDE8F0812068006A8007B4
:1031300017D46F1C04E000BF2068006A800710D419
:10314000002FF9D0FDF7ACFA15B1801BA842F3D9D6
:103150004FF400706065A06D40F00100A065032091
:1031600000E00020216802224A62BDE8F081616D22
:103170002429D6D014216165BDE8F081616D142940
:10318000CFD024216165BDE8F0810000000000007F
:1031900078B110B5016804460A6822F001020A609D
:1031A0008A6822F002028A6000F0CAF90020606595
:1031B00010BD0120704700002DE9F04116468846F9
:1031C0000446FDF76DFA616D013901291CD80746E7
:1031D0002068006A80061CD40021012000284FF0DE
:1031E000020008BFBDE8F08198E88C001B02D8F807
:1031F0000C6043EA024223683A433243C3F8002298
:1032000060650846BDE8F0811020A0650120BDE89A
:10321000F081751C04E000BF2068006A8006DBD5E1
:10322000002DF9D0FDF73CFA16B1C01BB042F3D91E
:103230004FF400706065A06D032140F00100A065AF
:103240000020CBE7000000002DE9F041164688463B
:103250000446FDF725FA616D02292DD10746E06885
:10326000B0F1806F28D12068006A800629D4002040
:10327000012100293FD021680A6822F040520A60EB
:103280008A6822F08072D8E90037D8E902651A43CB
:103290008A60D8E904231A43324342F0006242F4C0
:1032A0004062C1F80021C1F880216A1E0A648F645F
:1032B00004216165BDE8F0811020A0650120BDE812
:1032C000F081751C04E000BF2068006A8006CED53E
:1032D000002DF9D0FDF7E4F916B1C01BB042F3D9C7
:1032E0004FF400706065A06D002140F00100A06502
:1032F00003200029BFD10220BDE8F08100000000BA
:10330000F0B581B00446FDF7CBF934B10546002095
:10331000A065616D21B101B0F0BD012001B0F0BD2B
:10332000204600F031F941F28830E065206804F170
:103330000C074CF2FC068CCF8168CFF6E0060E40FD
:103340006FF0FF013243E66942EA034201EB0723D3
:1033500032431A438260C268236A22F4E0221A438D
:10336000C2600269236B22F4F81242EA034202614E
:103370000269636B22F0FF021A430261A26B426191
:103380000268636822F47C5201EB0321114301605F
:10339000006A80060BD541F2893600BFFDF780F93F
:1033A000401BB04208D22068006A8006F6D4002094
:1033B00001210029AFD00AE04FF400706065A06DD4
:1033C000002140F00100A06503200029A3D021685E
:1033D0004AF20007626AC5F20027CB68B94223F0BF
:1033E000FF0342EA0302CA6005D045F20002C5F2BB
:1033F0000022914208D1E66D086A800631D400208F
:10340000012100293FF487AF21684FF6BF75A268FC
:10341000CFF6FF65A369A76A0E682E40E56B3243BD
:10342000022B42EA05020A60D1F80821E66A22F07E
:10343000A04242EA070242EA0602C1F808210A68ED
:1034400042F001020A6003D18A6842F002028A60F7
:10345000E1680222B1F1806F08BF0122626501B00C
:10346000F0BD771C04E000BF2068006A8006C6D566
:10347000002FF9D0FDF714F916B1401BB042F3D973
:103480004FF400706065A06D002140F00100A06560
:10349000032000293FF43FAFB6E700000000000022
:1034A0002DE9F04188460446FDF7FAF8616D0429DC
:1034B00026D106462068E76D006A800625D40020E4
:1034C0000121002908BFBDE8F08188216165D8F895
:1034D000001008290AD12268D8F80430C2F8303127
:1034E00010235362136843F4801313602268136837
:1034F00023F00803194341F040511160BDE8F08109
:103500001020A0650120BDE8F0817D1C04E000BF13
:103510002068006A8006D2D5002DF9D0FDF7C0F8EA
:1035200017B1801BB842F3D94FF400706065A06DED
:10353000002140F00100A0650320C2E70000000068
:1035400045F200010068C5F20021884218BF7047AB
:1035500010B544F2345043F60004C5F60200C5F637
:103560000204016821F480410160016821F020011A
:10357000016004F58060FF21FCF73AFF1521204629
:10358000BDE81040FCF734BF2DE9F043A7B0044676
:1035900006A88421FCF7AFFE45F200012068C5F2C1
:1035A0000021002688420596CDE903660296019621
:1035B00002D027B0BDE8F0831020089006A84FF095
:1035C0000208CDF81880FDF763FE44F2345043F64C
:1035D0000004C5F60200C5F6020401AD4FF0030970
:1035E0000168092741F48041016001680091009958
:1035F000016841F020010160016800910099C168F3
:1036000041F40041C160C16800910099C16841F472
:103610008041C160C06800900098FF20CDE901089A
:1036200004F5806029460396CDF810900597FCF7C5
:1036300063FF15202946CDE9010820460597CDE90D
:103640000369FCF759FF27B0BDE8F08300000000D4
:103650002DE9F04381B0154688460446FDF720F871
:10366000D4F800900646B8F1000FD9F84800D9F810
:1036700010115FD0626D042A5ED1D9F84020012379
:103680000132A264A26C6264C4F84080D9F80020C0
:1036900063F31D72C9F80020E268B2F1806F04D0B4
:1036A000D9F8002112F4E06F4CD0C9F848006F1C23
:1036B0004FF400780EE00020012111B399F850007A
:1036C000216C0870206CA16C01302064481EA0643D
:1036D000A06C00B32068006A10F0060FEBD1002F39
:1036E000F8D0FCF7DDFF15B1801BA842F2D9C4F871
:1036F00054800021A06D40F00100A0650320002946
:10370000DCD101B0BDE8F0832FB1FCF7C9FFE5B112
:10371000801BA84219D82068006A8007F4D50020D1
:1037200001210029EDD0216802224A62626501B0C0
:10373000BDE8F083082000E01020A065012001B062
:10374000BDE8F083C9F81011B1E74FF4007060656F
:10375000A06D002140F00100A06503200029D0D019
:10376000E1E7000000000000426D120708D4026883
:103770004162D06820F0FF000843D060002070470D
:1037800010218165012070472DE9F04381B0154675
:103790000F460446FCF784FF002F52D00646D4F8AB
:1037A0000080606D04284ED1D8F840004FF40079B5
:1037B0000130A064A06C606427646F1CD8F800001E
:1037C00020F04050C8F800002068006A400711D47B
:1037D000002FF9D0FCF764FF15B1801BA842F3D984
:1037E000C4F854900021A06D40F00100A0650320B2
:1037F00019B92BE00020012141B3206C007888F832
:103800005000206CA16C01302064481EA064A06CA4
:103810000028D9D107E000BF2FB1FCF741FFC5B1A7
:10382000801BA84215D82068006A8007F4D50020C4
:10383000012159B1216802224A62626501B0BDE8E6
:10384000F083082000E01020A065012001B0BDE851
:10385000F0834FF400706065A06D002140F001001E
:10386000A06503200029E5D1F0E70000000000007A
:10387000FEE7000000000000FEE70000000000007E
:10388000FEE700000000000070470000000000009C
:1038900044F20040C5F60200C16C01F04051B1F1A4
:1038A000005F15D0B1F1805F09D031B901684907D7
:1038B00044BF01685FEA816113D40020704700684B
:1038C00040F60011C005C0F23D0101EAE07070470A
:1038D000006843F200618003C0F26E1101EAE070FB
:1038E0007047006849F20001C0F2D031C0F3C10056
:1038F00021FA00F0704700002DE9F04F83B0044634
:1039000044F22C470B20C5F6020704FB00F9381DD2
:1039100001904FF47870884600FA09F039684FEA50
:10392000440B07F19402029221EA000038604FF044
:10393000807000FA0BFA57F82C0C20EA0A0047F8BE
:103940002C0CFCF7ADFE4FF00071064601FA0BF5AA
:1039500057F82C0C284208D0FCF7A2FE801B322816
:10396000F6D9032003B0BDE8F08FD8F80000022894
:103970000FD1D8F8040002281DD008BB57F82C1C22
:1039800049F20002C0F2D032C1F3C10122FA01F1C2
:103990001BE0E0004FF47C71043057F8042C01FA6E
:1039A00000F022EA000040F0030047F8040C002079
:1039B00003B0BDE8F08F43F20061C0F26E1104E085
:1039C00040F6FF01C0F23D010131D8F808E0B1FB3B
:1039D000FEF341F2FF11C0F27A018B4202D94FF09F
:1039E000180C12E040F6FF01C0F23D018B4202D9F3
:1039F0004FF0100C09E048F27F464FF0020CC0F285
:103A00001E06B34288BF4FF0080CE6004FF47C71ED
:103A1000B1406FF0030257F8043C5140321D194089
:103A20000EFA02F21143014347F8041C57F8041C34
:103A300001F0030181425ED11B20396800FA09F0D0
:103A400008F10C030CFA09F221EA00001043386077
:103A50004FF600660FCBCFF6FF76A0F1010006EB24
:103A6000412140EA010040F20001CFF6FF7101EB75
:103A70000241A3F1010240EA0100019940EA02601B
:103A80006FF0FF0241F82B00D8E90701A0F1010017
:103A900002EB012140EA0100029941F824001CB91F
:103AA000386840F020003860D8F8240070B107EB87
:103AB0008B014FF6F8738A689A4342EAC000886027
:103AC0000120396800FA09F00843386057F82C0CD7
:103AD00040EA0A0047F82C0CFCF7E2FD044600BF60
:103AE00057F82C0C28427FF462AFFCF7D9FD001B7D
:103AF0003228F5D935E7012003B0BDE8F08F00008A
:103B00007047000000000000FCF7D2BD000000007C
:103B10004EF6885140F20000CEF20001C0F60000DF
:103B200041F8800C086840F470000860704700009D
:103B300040F28050C2F2004002F0B3BF000000002B
:103B4000FEE70000000000002DE9F04702688368EE
:103B50001768002B27F04053136005D113684F6896
:103B600023F040433B4313600B68022B0AD0032B26
:103B700011D14FF4B0744FF4A87C4FF4A4734FF4F8
:103B8000A07E10E04FF4D0744FF4C87C4FF4C4739F
:103B90004FF4C07E07E04FF490744FF4887C4FF4EC
:103BA00084734FF4807E8D6C42F80E50CD6A6DB1F7
:103BB0008D6A155152F80E40CD6A24F47C144E6B78
:103BC0002C430D6B34432C4342F80E40D4584D6CBB
:103BD00024F01F042C43D4508B6B23B10C6814B910
:103BE000CC6B013C1464CD68CC69DDB152F80E6039
:103BF000D1E9048754B3D1E9089AD3B34CF2C00099
:103C0000CFF2FF0030400E6C3043384340EA0800EA
:103C100040EA0A0040EA090018432843204342F8DA
:103C20000E0041E0002C43D052F80E60002BD1E989
:103C3000080742D04CF2C005CFF2FF053F352E40B9
:103C40000D6C2E433743384318433AE0002B40D0E5
:103C50004CF2C0000C6CCFF2FF0000F57C503040FD
:103C60002043384340EA08001843284342F80E0036
:103C700043E043F63F7326EA03033B4343EA08036A
:103C800043EA0A0343EA09032B43234342F80E3075
:103C9000C06AB0F1805F07D14869082804D152F8A2
:103CA0000E0040F00060BAE7886842F80C000BE0B4
:103CB000082181650120BDE8F08726F47C533B4351
:103CC0001843204342F80E00886990640020BDE844
:103CD000F08726F03F033B4343EA08032B4342F8B7
:103CE0000E30C06AB0F1805F07D14869082804D15E
:103CF00052F80E0040F00060B8E7886842F80C0007
:103D00000020BDE8F087000040F2DC31C2F2004143
:103D1000086070470000000080B54EF2180140F2C4
:103D2000DC32CEF20001C2F20042002351F804CC92
:103D3000126850434FF47A7200FB02FE086800BF1D
:103D40000A688242FCD003448242A3EB020310467D
:103D500028BF63447345F3D380BD0000000000001A
:103D600080B54EF2180140F2DC32CEF20001C2F210
:103D70000042002351F804CC126802FB00FE0868E0
:103D80000A688242FCD003448242A3EB020310463D
:103D900028BF63447345F3D380BD000000000000DA
:103DA00041F21C01C4F200210A685206FCD5C2B2DD
:103DB000CA6070470000000086B040F60044C5F6B7
:103DC000020401F019FB01F0CBFAFCF781FC4FF47F
:103DD00096700621022201F08FFB4FF41670FFF758
:103DE00093FF4FF4E13002F037F902F05FFE02F08A
:103DF00062FE02F065FE40F260054FF49670C2F27A
:103E0000004569688847002002F05FFE012002F04B
:103E10005CFE022002F059FE032002F056FE042050
:103E200002F053FEB3A001901E203221C8221023BD
:103E3000102600964FF47847029702F04BFEAFA091
:103E400001901E204621C82210230096029702F0FE
:103E500041FEADA001901E205A21C82210230096D9
:103E6000029702F037FEACA001901E206E21C822FE
:103E700010230096029702F02DFE02F030FE30B3C0
:103E80000FF2A8280FF2B4291E208221C822102385
:103E9000CDE90068029702F01DFE4FF4FA70FFF7BB
:103EA0003BFF1E208221C8221023CDE90069029722
:103EB00002F010FE4FF4FA70FFF72EFF4FF480412E
:103EC0002046FCF7DDFB02F00AFE0028DCD102F000
:103ED0000BFE40F2D0369DA1C2F2004601223068AE
:103EE00002F007FE46F632417068C0F6000101227A
:103EF00002F0FFFD0D2832D195A001901E208221F5
:103F0000C82210234FF01008CDF800804FF47847F6
:103F1000029702F0DFFD46F632400021C0F60000B5
:103F200000224FF4007302F0E9FD08B190A009E00F
:103F300046F66C40C0F6000002F0E5FD46F6924001
:103F4000C0F60000CDE900801E208221C822102387
:103F5000029702F0BFFD4FF47A70FFF7DDFE46F6E0
:103F60003541B068C0F60001012202F0C2FD0D2803
:103F700036D146F615401026C0F600008221CDE964
:103F800000601E20C82210234FF47847029702F0E9
:103F9000A1FD46F635400021C0F6000000224FF496
:103FA000007302F0ABFD20B146F6E530C0F600002C
:103FB00009E046F66340C0F6000002F0A4FD46F6B4
:103FC0007740C0F60000CDE900601E208221C822A3
:103FD0001023029702F07EFD4FF47A70FFF79CFEEB
:103FE00046F6304005A9C0F6000004AA02F090FD94
:103FF000A0B346F630484FF0100B4FF6FF79C0F6ED
:1040000000080DF1140A04AF4FF4784646F600405C
:104010008221C0F6000001901E20C8221023CDF896
:1040200000B0029602F056FDC820FFF775FE1E2074
:104030008221F022A623CDF8009002F06EFDC82068
:10404000FFF76AFE4FF480412046FCF719FB40461B
:1040500051463A4602F05CFD0028D7D146F6D030F2
:104060001026C0F600008221CDE900601E20C82283
:1040700010231F27029702F02DFD46F64D40962192
:10408000C0F60000C822CDE900601E201023029770
:1040900002F020FD46F63840AA21C0F60000C822F2
:1040A000CDE900601E201023029702F013FD059851
:1040B0009621820A8E200523CDE9006702F032FDA9
:1040C0000498AA21820A86200523CDE9006702F020
:1040D00029FD00BF286980470A20FFF71DFE013631
:1040E000F0B21428F6D14FF480412046FCF7C8FA0C
:1040F0000026EFE753544D3332000000464154464A
:10410000532054455354000041544F4D40414C49B5
:10411000454E54454B0000005573652055534D41A5
:10412000525420666F7220746573740053442043A8
:10413000617264204572726F72210000506C65617B
:10414000736520436865636B21200000303A0000EE
:104150004E4F5220466C617368204469736B204651
:104160006F726D617474696E672E2E2E00000000F0
:104170004E4F5220466C617368204469736B204631
:104180006F726D6174204572726F722000000000C2
:104190002DE9F04F99B08846044606A84C21FCF75B
:1041A000AAF80020002CCDE90400CDE9020001901E
:1041B00057D0CDE9060040F2F96108910D9006A9AB
:1041C000119041F2883214900426179020460996E7
:1041D00010270A9708250B954FF00059CDF86090ED
:1041E000FEF742FF00284FF0010002D019B0BDE8F1
:1041F000F08F08AA40F2FA514FF0000ACDF844A01F
:10420000C2C24FF480610D914FF440510E914FF4B2
:1042100000610F914FF0806141F28832CDE91410B6
:1042200006A92046CDE906AACDE90B5ACDE916A686
:10423000CDF86090FEF718FF014601200029D5D186
:10424000022001A9CDE901004FF48000049041F261
:1042500088322046CDF80CA010250595FEF77CFE8F
:1042600018B1012019B0BDE8F08F4DF62340089039
:1042700006A941F2883220460026CDE906664FF0B5
:1042800004094FF0080ACDE90995CDE90BA84FF4D0
:1042900080670D974FF440550E954FF4006BCDF8A5
:1042A0003CB011964FF0005814961796CDF86080E8
:1042B000FEF7DAFE00284FF0010097D140F2FA51E4
:1042C00041F28832CDE9081910211196CDE90A1A78
:1042D0004FF08061CDF86080CDE9141006A920462A
:1042E000CDE90666CDE90C67CDE90E5BCDE916692F
:1042F000FEF7BAFE0146012000297FF477AF0020C7
:104300000190012141F28832CDE902104FF4800082
:1043100004901020059001A92046FEF71DFE0028FC
:1043200018BF012019B0BDE8F08F000000000000A8
:104330002DE9F04399B0044606A84C21FBF7DBFFBA
:104340000020002CCDE90400CDE90200019056D0F8
:10435000CDE9060040F2F96108910D9006A911908F
:1043600041F28832149004251790204609951026B2
:104370000A9608270B974FF00058CDF86080FEF79B
:1043800073FE00284FF0010002D019B0BDE8F083A1
:1043900008AA40F2FA514FF00009CDF8449082E8A3
:1043A000E2024FF480610D914FF440510E914FF4B1
:1043B00000610F914FF0806141F28832CDE9141015
:1043C00006A92046CDE90699CDE91695CDF860807D
:1043D000FEF74AFE014601200029D6D1022001A99C
:1043E000CDE901004FF48000049041F2883220466C
:1043F000CDF80C9010270597FEF7AEFD18B10120FF
:1044000019B0BDE8F08346F29F00089006A941F27A
:10441000883220460025CDE9065504260D95CDE9C4
:10442000096708270B9711954FF0005914951795B8
:10443000CDF86090FEF718FE00284FF00100A4D1DF
:1044400040F2FA5141F28832CDE908164FF480610A
:104450000D914FF440510E914FF400610F914FF0C8
:1044600080614FF01008CDE9141016A806A9CDE917
:10447000065580E8600220460C95CDE90A87119523
:10448000FEF7F2FD0146012000297FF47EAF44F6DD
:10449000F012002001900121CDE902104FF48000BC
:1044A00001A9CDE90408C0F202022046FEF754FD3E
:1044B000002818BF012019B0BDE8F08300000000FB
:1044C0002DE9F04F99B08846044606A84C21FBF729
:1044D00012FF0020002CCDE90400CDE9020001907C
:1044E00057D0CDE9060040F2F96108910D9006A978
:1044F000119041F2883214900426179020460996B4
:1045000010270A9708250B954FF00059CDF86090B9
:10451000FEF7AAFD00284FF0010002D019B0BDE857
:10452000F08F08AA40F2FA514FF0000ACDF844A0EB
:10453000C2C24FF480610D914FF440510E914FF47F
:1045400000610F914FF0806141F28832CDE9141083
:1045500006A92046CDE906AACDE90B5ACDE916A653
:10456000CDF86090FEF780FD014601200029D5D1ED
:10457000022001A9CDE901004FF48000049041F22E
:1045800088322046CDF80CA010250595FEF7E4FCF6
:1045900018B1012019B0BDE8F08F42F2DE1008908A
:1045A00006A941F2883220460026CDE906664FF082
:1045B00004094FF0080ACDE90995CDE90BA84FF49D
:1045C00080670D974FF440550E954FF4006BCDF872
:1045D0003CB011964FF0005814961796CDF86080B5
:1045E000FEF742FD00284FF0010097D140F2FA514A
:1045F00041F28832CDE9081910211196CDE90A1A45
:104600004FF08061CDF86080CDE9141006A92046F6
:10461000CDE90666CDE90C67CDE90E5BCDE91669FB
:10462000FEF722FD0146012000297FF477AF00202C
:104630000190012141F28832CDE902104FF480004F
:1046400004901020059001A92046FEF785FC002863
:1046500018BF012019B0BDE8F08F00000000000075
:104660002DE9F04399B000284FF0010500F0B48027
:1046700006AE04464C213046FBF73DFE08A96620F5
:10468000002741F28832A1C120463146CDE90377A7
:10469000CDE90177CDE9057707970B970D9711972E
:1046A0001497CDE91777FEF7DFFC002840F09380E0
:1046B00099200890012006A9CDE9090741F2883226
:1046C0002046CDE906770B970D9711971497CDE902
:1046D0001777FEF7C9FC00287DD10120FFF71CFBEE
:1046E00046F29960089006A941F2883220460025DA
:1046F000CDE906550426099610270D95CDE90A75D2
:1047000011951495CDE91755FEF7AEFC002862D13E
:1047100008A949F6661041F288320B95C1C106A975
:104720002046CDE906550D9511951495CDE91755FF
:10473000FEF79AFC00284ED10120FFF7EDFA46F271
:104740009960089006A941F2883220460025CDE9FB
:1047500006554FF00408CDF824804FF01009CDF82D
:10476000289008260B960D954FF00057119514953B
:1047700017951897FEF778FC68BB08A949F66610EC
:1047800041F288320B9681E8010306A92046CDE963
:1047900006550D9511951495CDE91757FEF764FC54
:1047A000C8B901200125FFF7B7FA08A9052000269E
:1047B00041F2883261C114A94FF08070CDE90666DC
:1047C00061C106A920460B960D961196CDE9176694
:1047D000FEF74AFC20B10125284619B0BDE8F08358
:1047E0004FF4800004901020059001A941F2883216
:1047F00020460396CDE90165FEF7AEFB0028EBD11C
:1048000006AD4C212846FBF776FD00209F21CDE91F
:10481000060008910121CDE909100B904FF080713D
:104820000D9041F28832119014910321CDE91510B9
:10483000CDE9170020462946FEF716FC0028CAD10C
:1048400001A941F288322046FEF702FF0028C2D1BA
:1048500048F2C2010198C0F2390101258842BBD15A
:1048600006AE4C213046FBF746FD00200790CDE90F
:104870000300CDE90100CDE9050071210C90CDE9DF
:104880000815CDE90A004FF480710D914FF44051A5
:104890001190CDE90E104FF080711890CDE91415EC
:1048A000CDE9160041F2883220463146FEF7DCFBA6
:1048B000002891D10DF1030141F288322046FEF724
:1048C000C7FE00284FF0010586D108A90620002662
:1048D00041F2883261C106A92046CDE906660B96F1
:1048E0000D9611961496CDE91766FEF7BDFB0028CC
:1048F0007FF472AF14A9052008904FF08070012555
:1049000041F2883261C106A92046CDE90666CDE9AB
:1049100009560B960D961196CDE91766FEF7A4FB86
:1049200000287FF459AF022001A9CDE901004FF41E
:10493000800004901020059041F288322046002625
:104940000396FEF709FB00284FF001057FF444AF02
:104950009DF8030008A941F28832119600F0FC008E
:1049600002308DF80300722061C114A94FF48070E9
:104970000D904FF44050CDE90E064FF0807061C1AC
:1049800006A92046CDE90666CDE90B66CDE9176696
:10499000FEF76AFB00287FF41FAF0DF1030141F21F
:1049A00088322046FEF7F0FE00284FF001057FF424
:1049B00013AF002047F28E11CDE9060008910421C3
:1049C000099110220A920822CDE90B204FF480624F
:1049D0000D924FF440520E924FF400620F921190DC
:1049E0004FF08062CDE91425CDE916014FF000505B
:1049F000189006A941F288322046FEF735FB0028C0
:104A00007FF4EAAE0DF1030141F288322046FEF751
:104A10001FFE00287FF4DFAE9DF8030000F00300C6
:104A2000851E18BF0125D7E62DE9F04F9BB004463F
:104A300008A84C21FBF75FFC0020002C0790CDE973
:104A40000500CDE903000190009000F0A480CDE9BD
:104A5000080040F2F9610A910F9008A9139041F201
:104A6000883216900425199020460B9510260C9636
:104A700008270D974FF00058CDF86880FEF7F4FA3C
:104A800000284FF0010002D01BB0BDE8F08F0AAA49
:104A900040F2FA514FF00009CDF84C9082E8E20262
:104AA0004FF480610F914FF4405110914FF4006129
:104AB00011914FF0806141F28832CDE9161008A9BA
:104AC0002046CDE90899CDE91895CDF86880FEF724
:104AD000CBFA014601200029D6D1022003A9CDE955
:104AE00003004FF48000069041F288322046CDF852
:104AF000149010260796FEF72FFA00284FF00100B9
:104B0000C2D108904EF611600A900420CDE90B0640
:104B100008200D901420199008A941F288322046EF
:104B2000002509954FF4806ACDF83CA04FF4405B16
:104B3000CDF840B04FF4006611964FF080671395A2
:104B40004FF0006816974FF00059CDF86080CDF80F
:104B50006890FEF789FA01460120002994D10220CD
:104B600008A9CDE9080541F2ED200A9004200B9038
:104B700010200C9008200D9041F288322046CDE99B
:104B80000FAB119613951697CDE91885CDF868905F
:104B9000FEF76AFA18B101201BB0BDE8F08F0820BB
:104BA00000900020019069462046FEF779FC00281D
:104BB00018BF01201BB0BDE8F08F0000000000000E
:104BC0002DE9F04F99B08946044606A84C211E46AF
:104BD0001546FBF790FB0020CDE90400CDE902006B
:104BE00001904FF001002CB3B6F5807F009521D8DD
:104BF00040F2F960089006A941F28832204600256B
:104C0000CDE906554FF0040BCDF824B010270A97D4
:104C10004FF00808CDF82C800D954FF0005A1195F3
:104C200014951795CDF860A0FEF71EFA00284FF0F6
:104C3000010002D019B0BDE8F08F40F2FA5141F204
:104C40008832CDE9081B4FF480610D914FF440513B
:104C50000E914FF400610F914FF080610C95CDE9FA
:104C6000141006A92046CDE90655CDE90A7811951C
:104C7000CDE9165BCDF860A0FEF7F6F901460120FC
:104C80000029D7D1022001A9CDE901004FF480000D
:104C9000049041F28832204600250395102705979D
:104CA000FEF75AF930BB41F2ED200890042006A926
:104CB000CDE90907082041F28832CDE90B094FF40C
:104CC00080600D904FF440500E904FF400600F90B4
:104CD0004FF080601195CDE914064FF00060CDE9EA
:104CE00016054FF0005018902046CDE90655FEF706
:104CF000BBF918B1012019B0BDE8F08F41F288323C
:104D000020460099FEF740FD00284FF0010091D1A8
:104D1000002540F2FA510891042109910822CDE9B9
:104D20000B254FF480620D924FF440520E924FF4D7
:104D300000620F924FF080621026CDE91420CDE979
:104D400016514FF00050189006A941F288322046C3
:104D50000A96CDE906551195FEF786F90146012020
:104D600000297FF467AFCDE901504FF4800001A91D
:104D7000CDE9040641F2883220460395FEF7ECF8AF
:104D8000002818BF012019B0BDE8F08F0000000016
:104D9000F0B593B00F46054668464C211E461446B2
:104DA000FBF7A9FA4DB300204EF61161CDE90000E2
:104DB000029104210391102104910821CDE90517E6
:104DC0004FF4806107914FF4405108914FF4006116
:104DD00009910B904FF08060CDE90E064FF0006016
:104DE0001090142011904FF000501290694641F23B
:104DF00088322846FEF738F910B1012013B0F0BD13
:104E000041F2883228462146FEF722FC002818BFCE
:104E1000012013B0F0BD000080B500F065F828B1A6
:104E200000F00EF9002818BF012080BD012080BDD0
:104E300080B572B600F024F962B680BD00000000B3
:104E40002DE9F0474EF6805372B6CEF200030027EC
:104E5000BFF34F8FBFF36F8FC3F8D0718946BFF395
:104E60004F8FBFF36F8F5F608246BFF34F8F1F6816
:104E70009046F808C7F34E34C7F3C90143F6E0770C
:104E80004E1C8107620100BF02EA07000D18304680
:104E90000138C3F8E05105F14045F9D1002CA4F1E7
:104EA0000104A2F12002EFD1BFF34F8FBFF36F8F48
:104EB00000F01AF830B150464946424600F01CF95D
:104EC000044602E0B0FA80F0440900F00DF800F06A
:104ED000B7F810B12046BDE8F08762B62046BDE8BD
:104EE000F0870000000000002DE9F04F83B042F28F
:104EF0007C74C2F206442068A0B1C16929B144F6AD
:104F0000D800C2F20640884730B944F6D800C2F251
:104F10000640FEF73DF918B1012003B0BDE8F08F5F
:104F20000020206044F6D8040025C2F206440FF2A7
:104F3000081B671E4FF0000905E000BFB9F1000F24
:104F400009F1010973D15BF8298098F800A0029556
:104F50000195AAF10300009510F1020F02D201267B
:104F600046E000BF60203946013801F8015FFBD1FF
:104F700045F20000C5F2002020602046FEF708F947
:104F80004FF00106A0BBBAF1010045F2000118BFC5
:104F90000120C5F2002121604FF00071BAF1010F2C
:104FA0004FF00402626008BF4FF0807180012562FB
:104FB000C4E902011820E563C4E904060320C4E93A
:104FC00009052046C4E90655C4E90B55C4E90D5549
:104FD000FEF796F960B9102041F28832CDE900055C
:104FE00020466946FDF714FF0646002818BF012633
:104FF000EEB9D8F818100029A0D02046884700281C
:105000009CD198F80000012806D144F6D80001216F
:10501000C2F20640FEF7A8FB42F27C7198F800004D
:10502000C2F20641C1F8008003B0BDE8F08F002055
:1050300003B0BDE8F08F00BF606B0008986B0008FC
:1050400042F27C70C2F206400068A0B144F6D8017A
:10505000C2F20641496D882901D100207047416B99
:1050600049B180B544F6D800C2F20640884700280E
:10507000BDE88040F1D00120704700000000000032
:1050800010B542F27C73C2F206431C686CB38646CC
:1050900044F6D800C2F2064013468C46406D88287C
:1050A00019D158080AD0AEF1E041ACF10202023940
:1050B00031F8024F013822F8024FF9D1D80716D043
:1050C0000EEB03006FF0E0410CEB0302405C02F8D2
:1050D000010C002010BD246B3CB144F6D800714691
:1050E000C2F206406246A04708B1012010BD002070
:1050F00010BD0000000000002DE9F04F89B042F221
:105100007C75C2F206452B685BB144F6D80488462C
:10511000C2F20644616D882903D01E69B6F5005FAE
:1051200003D9012009B0BDE8F08F002A00F01381F7
:10513000B0FBF6F9710803916FF0E04109FB16002E
:105140003144029142F280715B69C2F206410893D8
:10515000314401910596A6EB000B29685A4538BFEA
:1051600093460029DDD0079209FB06FA626D882A72
:105170001BD1022E10D34FF6FE7142F28072C8F698
:10518000FF71C2F206425144023A039C31F8027F99
:10519000013C22F8027FF9D1F1071CD0029911F8E5
:1051A0000A10019A02F8011C15E00F6B002FB8D00D
:1051B000214642F28072044608465146C2F2064237
:1051C0003346B84742F27C750146089BC2F2064559
:1051D00020460029A5D1CDF818A0DA4642F2807108
:1051E000CDF81090BBF1010FC2F2064198BF4FF00D
:1051F000010A01EB00090799A1EB0B01079129684E
:105200004A46574605E000BF0024A64208D1013FA8
:105210003BD012F8016B0029F6D00C79A642F6D0EB
:1052200000293FF47EAF44F6D804C2F20644606D14
:1052300088281CBF8A6A002A3FF473AF204606996B
:10524000904700287FF46DAFA8F10100A9F101019A
:1052500010F8012FBAF1010A01F8012FF8D10599D0
:10526000089B42F27C758B4200F10108C2F20645B0
:1052700040D9079ADDF81090002A09F101094FF092
:105280000000059E7FF467AF66E0B0FBF3F909FB11
:10529000130044F6D804C2F20644DDF818A01F1A21
:1052A0002968BB4538BF5F4600291CBF626D882A4C
:1052B0003FF437AF4A69BA42FFF433AFCE6A002EEB
:1052C0003FF42FAF09FB03A142463B460144204671
:1052D000B04700287FF425AF42F27C75BBEB070B8B
:1052E000B84409F101094FF00000C2F20645089BDD
:1052F000D5D1BEE742F2807A0026B1FBF3F9C2F2C3
:10530000064A286800281CBF616D88293FF409AF50
:1053100041699942FFF405AFC46A002C3FF401AF24
:105320000698524606FB030144F6D800C2F2064036
:105330001F46A04700287FF4F4AE013642F27C7588
:1053400044F6D8044E45BA44C2F20645C2F20644B9
:105350003B46D6D38DE7002009B0BDE8F08F0000B2
:105360004EF61450CEF200000168890312D4BFF348
:105370004F8FBFF36F8F0021C0F83C12BFF34F8FE8
:10538000BFF36F8F016841F400310160BFF34F8FAD
:10539000BFF36F8F0168C90348BF7047B0B50021E4
:1053A0000167BFF34F8FC26E43F6E07ED308C2F3AE
:1053B0004E31C2F3C90202F1010C9B074A0100BF42
:1053C00002EA0E0465461C44013DC0F84C4204F15B
:1053D0004044F9D10029A1F10101A2F12002EFD14D
:1053E000BFF34F8F016841F480310160BFF34F8FED
:1053F000BFF36F8FB0BD0000F0B585B00025CDE9DB
:105400000355CDE90155FBF7D3F901AC0120ADF807
:10541000040048F21F71CDE9031020460295FBF706
:1054200093F902950F2740F20015204640F201162D
:10543000ADF80460C0F201370397C0F2011504957E
:10544000FBF782F940F20120ADF804004FF0005064
:105450000495CDE902072046FBF776F940F20130CA
:10546000ADF804004FF0105002901220C0F201304D
:10547000CDE903052046FBF767F940F20140ADF89E
:1054800004004FF0405002900E20C0F20130CDE9F0
:1054900003052046FBF758F940F20150ADF804002F
:1054A0004FF0C04002901920C0F20030CDE9030651
:1054B0002046FBF749F940F20160ADF804004FF0D7
:1054C0001040029018262046C0F20136CDE903654F
:1054D000FBF73AF940F20170ADF804004FF0E040FC
:1054E0000495CDE902062046FBF72EF90420FBF7D0
:1054F00073F905B0F0BD00002DE9F0418AB0064611
:10550000042000230993CDE90733CDE90533CDE924
:10551000033390460F460293FBF7CAF908B1012402
:1055200088E044F23C55C5F60205FBF735FAFBF777
:105530003FFAA86940F00200A861A86901900198AB
:105540004FF40030FDF79CFB4FF48020FDF798FBF3
:1055500001200124FBF7E8F900286BD1FBF700FAE2
:1055600000284FF0010465D12868292140F000503F
:105570002860286801900198286840F080402860E1
:1055800028680190019844F28070C2F206404FF4FE
:10559000803200F1780C0025C0E900124FF48051F0
:1055A0000622C0E9064102214164C0E90911C0E9AF
:1055B0000B76C0E90D81C0E90F11C0E912510165F8
:1055C0004FF4967342650C27C0E91631C0E9187292
:1055D0000326C0F88410C0E91A62C0E91C518CE8A7
:1055E0000E003222C0F89850C0E92221C0E924718F
:1055F000FDF7F6F8F0B93F203721CDE90206082083
:10560000059004200690402007904FF48060089099
:105610004FF48040099002A80495FCF7E5FA4FF09A
:10562000010438B900F00CF844F6D000C2F206408C
:105630000470002420460AB0BDE8F081000000009C
:105640002DE9F04FB3B000206C4600212190CDE948
:105650001F0000BF605401316029FBD145F20008F2
:105660002046C5F20028CDF80080FDF791FD04200A
:10567000019000274FF080700390182004900320C1
:10568000CDE909072046CDF8008002970125CDE934
:105690000557CDE90777CDE90B77CDE90D770F9762
:1056A000FDF72EFE10201FA9CDE91F0741F2883219
:1056B0002046FDF7ADFB1FAE4C213046FAF71BFE2E
:1056C00021A9662041F288322097A1C120463146A7
:1056D000CDE91C77CDE91A77CDE91877CDE91E77AA
:1056E000249726972A972D97CDE93077FDF7BCFCB4
:1056F000002840F0828021A9992041F28832249725
:10570000A1C168461FA9CDE91F7726972A972D9733
:10571000CDE93077FDF7A8FC00286ED142F2107079
:10572000329000BF329801383290FBD146F2996036
:10573000219068461FA941F288320025CDE91F5506
:105740000426229610272695CDE923752A952D95B6
:10575000CDE93055FDF788FC00284DD121A949F647
:10576000661041F288322495C1C168461FA9CDE96F
:105770001F5526952A952D95CDE93055FDF774FCDA
:10578000D0BB42F210703290329801383290FBD187
:1057900046F29960219068461FA941F2883200259F
:1057A000CDE91F554FF00409CDF888904FF0100A4D
:1057B000CDF88CA00826249626954FF000572A9500
:1057C0002D9530953197FDF74FFCA8B921A949F6E1
:1057D000661041F28832249681E8010668461FA9C6
:1057E000CDE91F5526952A952D95CDE93057FDF722
:1057F0003BFC002800F038820125002D00F09A8043
:10580000002004F1280500212190CDE91F0000BFF0
:10581000605401316029FBD16C46CDF800802046F0
:10582000FDF7B6FC04200190402002904FF000707C
:10583000039018200490032009902046CDF80080A2
:105840000127059700260896CDE90666C5E900669A
:10585000C5E90266C5E90466FDF752FD10201FA9DF
:10586000CDE91F0641F288322046FDF7D1FA1FAD7F
:105870004C212846FAF73FFD662041F28832CDE9F7
:10588000210720462946CDE91C66CDE91A66CDE9F7
:105890001866CDE91E662096CDE9236626962A96DF
:1058A0002D96CDE93066FDF7DFFB002842D1992027
:1058B0001FA9CDE92107684641F28832CDE91F666C
:1058C000CDE9236626962A962D96CDE93066FDF71A
:1058D000CBFB78BB42F21070329000BF3298013897
:1058E0003290FBD100209021CDE91F0021910121B0
:1058F000CDE92210CDE924004FF4807126914FF4B8
:1059000000512A90CDE927104FF080712D9104218C
:1059100041F28832CDE92E10CDE9300068461FA94A
:10592000FDF7A2FB30B9684632A941F28832FDF793
:105930008FFE10B133B0BDE8F08F9DF8CA009DF81E
:10594000C81041EA002141F2687081420FD041F253
:10595000EF729142EED19DF8CB309DF8C97047EAC5
:10596000032393420BD041F268729142E2D19DF839
:10597000CB109DF8C92042EA01218142DAD10020F2
:105980003521CDE91F0021910121CDE9221024907C
:105990004FF08071269041F288322A902D91022199
:1059A000CDE92E10CDE9300068461FA9FDF75CFB5C
:1059B0000028BFD1684632A941F28832FDF748FE7F
:1059C0000028B7D10620219068461FA941F28832ED
:1059D0000024CDE91F4401252494CDE922542694C6
:1059E0002A942D94CDE93044FDF73EFB0028A1D147
:1059F00005201FA9CDE921054FF080702D900220D0
:105A000041F28832CDE92E0468462694CDE91F4440
:105A1000CDE923442A94CDE93044FDF725FB002845
:105A20007FF488AF4FF480001D9010201E906846D0
:105A30001AA941F2883240F20225CDE91A55002414
:105A40001C94FDF789FA00287FF474AFBDF8C800F4
:105A50001FA941F2883224942843ADF8C8003120B0
:105A6000219001202694CDE922044FF080702D90E2
:105A700002202A94CDE92E046846CDE91F44CDE9E1
:105A80003044FDF7F1FA00287FF454AF684632A99C
:105A900041F28832FDF778FE00287FF44BAF0024F6
:105AA000052021900120CDE922044FF080702D9037
:105AB00002201FA9CDE92E04684641F28832CDE9C3
:105AC0001F44249426942A94CDE93044FDF7CCFA5F
:105AD00000287FF42FAF40F201101AA9CDE91B0472
