:020000040800F2
:1000000060400624C5020008A129000891290008C3
:100010009929000879030008F92B00080000000066
:10002000000000000000000000000000B92B0008E4
:100030008103000800000000A9290008C12B000866
:10004000DF02000800000000DF020008DF020008F5
:10005000DF020008DF0200080000000000000000CE
:10006000DF020008DF020008DF02000800000000D5
:1000700000000000DF020008000000000000000097
:10008000DF020008DF020008DF020008DF020008CC
:10009000DF020008DF020008DF020008DF020008BC
:1000A000DF020008DF020008DF020008DF020008AC
:1000B000DF020008DF020008DF020008DF0200089C
:1000C000DF0200080000000000000000DF0200085E
:1000D000DF020008DF020008DF020008DF0200087C
:1000E000DF020008DF020008DF020008DF0200086C
:1000F000DF020008DF020008DF020008DF0200085C
:10010000DF020008DF020008DF020008DF0200084B
:10011000DF020008DF020008DF020008DF0200083B
:10012000DF020008DF020008DF020008DF0200082B
:10013000DF020008DF020008DF020008DF0200081B
:10014000DF020008DF020008DF020008DF0200080B
:10015000DF020008DF020008DF020008DF020008FB
:10016000DF020008DF020008DF020008DF020008EB
:10017000DF020008DF020008DF020008DF020008DB
:10018000DF020008DF020008E92B0008DF02000898
:10019000DF020008DF020008DF020008DF020008BB
:1001A000DF020008DF020008DF020008992100904A
:1001B000DF020008DF020008DF020008DF0200089B
:1001C000DF020008DF020008DF020008DF0200088B
:1001D000DF020008DF02000800000000000000004D
:1001E00000000000DF020008DF020008DF02000854
:1001F000DF020008DF02000800000000000000002D
:10020000DF020008DF020008DF020008DF0200084A
:10021000DF020008DF020008DF020008DF0200083A
:10022000DF020008DF020008DF020008DF0200082A
:10023000DF020008DF020008DF020008DF0200081A
:10024000DF020008DF020008DF020008DF0200080A
:10025000DF020008DF020008DF020008DF020008FA
:10026000DF020008DF020008DF020008DF020008EA
:10027000DF020008DF020008DF020008DF020008DA
:10028000DF020008DF020008DF020008DF020008CA
:10029000DF020008DF020008DF020008DF020008BA
:1002A000DF020008DF020008DF020008DF020008AA
:1002B000DFF80CD000F02AF800480047592E00085B
:1002C000604006240648804706480047FEE7FEE7F0
:1002D000FEE7FEE7FEE7FEE7FEE7FEE7FEE7FEE7F6
:1002E000C92B0008B1020008D2B201E000F8012BCE
:1002F000491EFBD270470022F6E710B513460A46A6
:1003000004461946FFF7F0FF204610BD1CB509480A
:100310000090094801900546009C06E0E06840F026
:10032000010394E8070098471034AC42F6D3FFF776
:10033000C3FF0000043F0008243F000830B58C18BC
:1003400010F8012B12F00F0301D110F8013B120934
:1003500006D110F8012B03E010F8015B01F8015BF6
:100360005B1EF9D101E001F8013B521EFBD1A14215
:10037000E6D3002030BD0000FEE7000000000000D2
:10038000704700000000000080B54EF2180140F2F6
:100390004432CEF20001C2F20042002351F804CCF4
:1003A000126850434FF47A7200FB02FE086800BFE7
:1003B0000A688242FCD003448242A3EB0203104647
:1003C00028BF63447345F3D380BD000000000000E4
:1003D000002908BF70472DE9F04F81B04FF67F72BA
:1003E00040F2040EC0F22902C5F6000E02EA902285
:1003F000009200F1200B00220027002429E000BF1A
:100400000323056803FA02F96FF0030303EA5403B8
:1004100045EA0905056007F01C050F2606FA05FCEC
:100420005BF8035025EA0C054BF80350836823EA78
:1004300009038360436823EA08034360C36823EA2F
:100440000903C3600134043731FA04F302F10202F4
:100450003CD0012303FA04F818EA0109F2D040F273
:10046000305324F00305C5F6000307F00C0CED58DB
:100470000F2303FA0CFA009B05EA0A0503FA0CF6AF
:10048000B542BDD1DEF87C604FF0B04326EA0906E4
:10049000CEF87C60DEF8806026EA0906CEF880603F
:1004A000DEF8006026EA0906CEF800601D68A6089E
:1004B00025EA09051D6040F23053C5F6000353F8E4
:1004C000265025EA0A0543F8265099E701B0BDE811
:1004D000F04F7047000000002DE9F04F82B00F6828
:1004E000002F00F0B2804FF67F7340F2040EC0F28E
:1004F0002903C5F6000E00F12002009203EA9022C3
:1005000000234FF0010A0025002601920AE000BFF7
:1005100001360F6837FA06F205F1020503F104030C
:1005200000F093800AFA06FC17EA0C09F0D0D1F823
:1005300004B003220BF0030702FA05F87C1E012C1D
:1005400012D88468D1F80CA024EA08040AFA05F24B
:1005500022438260CBF3001442684FF0010A22EA82
:100560000C02B44022434260032F20D0C2688C6842
:1005700022EA0802AC40022F42EA0402C26016D10D
:100580006FF0030203F01C0402EA560B009A0F27D7
:1005900052F80BC007FA04FA0F692CEA0A0C4FF064
:1005A000010A07FA04F444EA0C0742F80B700268E7
:1005B0004F6807F0030422EA0802AC4017F4403FFA
:1005C00042EA04020260A3D040F2305826F003024F
:1005D000C5F6000803F00C070F2452F808C0BC4011
:1005E0002CEA040C019C04FA07F747EA0C0742F8CE
:1005F00008704FF0B048D8F800C04F684CEA0904C2
:10060000FA0258BF2CEA0904BA02C8F80040DEF822
:1006100000C04CEA090458BF2CEA0904BA03CEF81A
:100620000040DEF880C04CEA090458BF2CEA0904F7
:10063000FF03CEF88040DEF87C2042EA090458BF70
:1006400022EA0904CEF87C4062E702B0BDE8F08FF0
:100650000069084018BF012070470000000000003A
:10066000426902EA0103914341EA03418161704713
:100670001823002A08BF2823C1507047000000003B
:1006800043F25C00C2F206400068704700000000C0
:1006900040F2341043F25C01C2F20040C2F2064163
:1006A00000780A68104408607047000000000000ED
:1006B00080B5032000F0DCF80F2000F009F80028D6
:1006C0001CBF012080BD00F08BF8002080BD000021
:1006D00040F23411C2F20041097819B310B5044652
:1006E00040F21C00C2F200404FF47A72B2FBF1F10A
:1006F0000068B0FBF1F001F04FFB0F2C01464FF00A
:1007000001000ED8002918BF10BD4FF0FF300022A5
:10071000214600F07DF840F238110020C2F200417D
:100720000C6010BD0120704710B54EF6A051437803
:10073000CEF2000190F800C041F8083C0B6823F0AD
:1007400001030B600B6823F001030B60436841F861
:10075000043C90F80CE0C27A837A447B120642EAA9
:100760000E7290F80EE042EAC342C37B42EA844232
:10077000447A42EA4E42007A42EA034242EA0422C2
:1007800042EA400040EA0C00086010BD0000000092
:100790004EF62450CEF20000BFF35F8F016821F4C3
:1007A0008031016000210167BFF34F8FBFF36F8F6E
:1007B00070470000000000004EF6245140F0010098
:1007C000CEF20001BFF35F8F0867086840F4803005
:1007D0000860BFF34F8FBFF36F8F704700000000BA
:1007E0007047000000000000002848BF704700F07C
:1007F0001F01012202FA01F14EF20012C0F34A1069
:10080000CEF2000242F82010704700000000000005
:1008100070B54EF60C5C4FF0FF36CEF2000C00F1D6
:10082000604505F56445DCF80030C3F3022E8EF018
:100830000703042B28BF0423BEF1030406FA03F3C5
:1008400021EA030100F00F0338BF0024043B002815
:10085000634406FA04F048BF03F10C05A14022EA04
:10086000000008430001287070BD00000000000077
:100870004EF60C514FF6FF03CEF200010A681A4003
:1008800060F30A2242F0806040F0FD70086070471B
:1008900070B544F60C060446C5F6020631683068A9
:1008A00001F00701062912D120F01F00204330601B
:1008B000FFF7E6FE054600BF56F8080C80070CD48B
:1008C000FFF7DEFE401BB0F57A7FF5D915E000F0AA
:1008D0001F00001B18BF012070BDA4F11D000128DE
:1008E0000DD8FFF7CDFE04463068C00307D4FFF7EC
:1008F000C7FE001BB0F57A7FF6D9012070BD00203D
:1009000070BD000000000000B0B544F61405C5F647
:100910000205296821F0010108432860FFF7B0FEB5
:10092000044600BF2868800707D4FFF7A9FE001B14
:10093000B0F57A7FF6D90120B0BD0020B0BD00002F
:1009400044F60C00C5F60200016841F00061016048
:100950007047000000000000B0B544F60C05C5F675
:100960000205286840F080702860FFF789FE044681
:100970002868400107D4FFF783FE001BB0F57A7F9B
:10098000F6D90120B0BD0020B0BD0000000000007D
:1009900044F60C00C5F60200016841F48041016094
:1009A000704700000000000044F60C00C5F602008D
:1009B000016841F400410160704700000000000040
:1009C0002DE9F041817844F22C45C5F6020549072E
:1009D00002D4002600213DE0696C11F440711ED064
:1009E000C26F02F44072914219D0D5F8D41341F489
:1009F0008071C5F8D413D5F8D413C90503D40126E2
:100A0000002179B925E0696C6A6C42F480326A642D
:100A10006A6C21F4407122F480326A6469640026B1
:100A20000121B1B1C16FB1F5807F0FD18046FFF7D1
:100A300027FE044641F28937686C800705D4FFF72A
:100A40001FFE001BB842F7D303264046002E00F0DD
:100A50000A8131460268D3073AD1930746D4530737
:100A600061D4130700F17E80930200F18480D306E5
:100A700000F19280930600F1BC80530600F11781CB
:100A8000130600F11D81D30500F12381930500F1C8
:100A90002E81130500F15781530500F16981D304BC
:100AA00000F17B81930400F1AE81530400F1C58114
:100AB000130400F1DC81D30300F1F181930300F111
:100AC000F581130300F10082D20200F1298298E23D
:100AD0004368032B00F2C280DFE803F002A8B802EB
:100AE000002E00F0AA8031469307B8D58368ABB1D9
:100AF000202B0FD0102B40F08B802F6847F400275D
:100B00002F606EB92F6A27F030073B432B625307E3
:100B1000A7D508E02F6847F480172F60002EF1D08A
:100B2000314653079DD5C368B3B1802B10D0402BFD
:100B300040F073802F6847F400272F6076B92F6A42
:100B400027F0C0073B432B6213077FF58DAF09E009
:100B50002F6847F480172F60002EF0D0314613071E
:100B60007FF582AF2B6A076923F040533B432B622A
:100B700093027FF57CAF436D23B1042B23D14FF457
:100B8000801701E04FF400272C6827432F60EEB157
:100B90003146D3067FF56EAF4369B3F1007F22D0B3
:100BA000B3F1807F1BD0002B3CD12F6847F48037F6
:100BB0002F60D6B92F6A27F040773B432B6293060C
:100BC0007FF55BAF15E00126002EE1D12F6A27F0FB
:100BD00004073B432B62D3067FF54CAFDCE72F685D
:100BE00047F000572F60002EE4D0314693067FF582
:100BF00044AF83694FEA3357052F00F2B281DFE833
:100C000007F04F034B4F4F4F2F6847F4803746E0B4
:100C10000126002E7FF484AF74E70126002E7FF4B6
:100C20009DAF8CE70126002EDFD1C3E72F6847F088
:100C300040072F60002E7FF456AF2F6A27F003077E
:100C40003B432B6293077FF50AAF4FE72F6847F4CA
:100C500080272F60002E7FF446AFEEE70126002E9E
:100C60007FF441AFE9E7C16F55F81C2C6FF03003FA
:100C700022F47C5203EA111311F47C3F18BF1A438B
:100C800001F4407145F81C2C6A6C11436964696C6D
:100C900041F4004169649DE62F6847F000672F60CA
:100CA000002E00F06281314653067FF5E9AE6B6A93
:100CB000C76923F040533B436B6213067FF5E3AEF5
:100CC0002B6A076A23F440333B432B62D3057FF53D
:100CD000DDAE436A33B1B3F5802F1ED12F6847F0E4
:100CE00080472F60E6B1314693057FF5D2AE836A27
:100CF0001BB3B3F5000F1CD0B3F5800F5CD12F6888
:100D000047F040072F60D6B96F6A27F440073B438E
:100D10006B6213057FF5C0AE15E00126002EE2D10F
:100D20002F6A27F480273B432B6293057FF5B1AEF2
:100D3000DDE72F6847F480372F60002EE4D031467E
:100D400013057FF5A9AEC36A6FF0010707EB3337D0
:100D5000022F08D34FEA33372FB1012F30D12F683C
:100D600047F000572F6076B3314653057FF597AEB5
:100D7000036B6FF0010707EB3327022F08D34FEA0D
:100D800033272FB1012F27D12F6847F000572F604D
:100D90002EB33146D3047FF585AE436B4FEA33471C
:100DA000052F00F2EB80DFE807F027032327272732
:100DB0002F6847F480371EE00126002EBFD1A3E73D
:100DC0000126002ED0D16F6A27F440573B436B6257
:100DD00053057FF564AECBE70126002ED9D16F6AAB
:100DE00027F440773B436B62D3047FF55BAED4E7D7
:100DF0002F6847F000572F60002E00F0C380314667
:100E000093047FF552AE836B4FEA3327052F00F230
:100E1000C280DFE807F00B03070B0B0B2F6847F4CA
:100E2000803702E02F6847F000572F60002E00F057
:100E3000B680314653047FF53BAEC36B4FEA333780
:100E4000052F00F2B580DFE807F00B03070B0B0B53
:100E50002F6847F4803702E02F6847F000572F6073
:100E6000002E00F0A980314613047FF524AE036CF8
:100E7000052B00F2AA80DFE803F00B03070B0B0B36
:100E80002F6847F4003702E02F6847F080572F6043
:100E9000002E00F09E803146D3037FF50FAE2B6805
:100EA00043F000532B6093037FF50BAE836CB3F1DB
:100EB000006F04D0BBB92F6847F000572F60AEB168
:100EC000314613037FF500AEC36C4FEA3347042F5E
:100ED0003BD8DFE807F0183314030300CEB13146E6
:100EE000D2021DD48DE00126002EE9D12F6A27F011
:100EF00000673B432B6213037FF5E6ADE4E72F6801
:100F000047F0006702E02F6847F040072F60002E8F
:100F1000E5D1AF6A27F4E0273B43AB62D20270D53C
:100F2000026D4FEA3253052B5CD8DFE803F0125F05
:100F300016030303002E5FD0314662E02F6847F4AA
:100F400080372F60002ECAD1E3E70126002EC6D1DC
:100F5000DFE72B6843F040034BE02B6843F000636E
:100F600047E00126002E7FF49EAE2F6A27F4E007AB
:100F70003B432B6253067FF583AD98E60126002E96
:100F80007FF43DAF6F6A27F4E0273B436B62930425
:100F90007FF58BAD37E70126002E7FF44AAFEF6A6D
:100FA00027F4E0673B43EB6253047FF581AD44E7F0
:100FB0000126002E7FF457AFEF6A27F4E0473B434A
:100FC000EB6213047FF577AD51E70126002E7FF425
:100FD00062AFEF6A27F007073B43EB62D3037FF56D
:100FE0006DAD5CE70126002EA6D105E02B6843F429
:100FF00080332B60002E9FD1AB6A23F4E0031A43A9
:10100000AA620268530227D4130248D4D30156D4EB
:10101000930100F16480530100F1BC80D30000F122
:10102000D380930000F1E880530000F1FC80B2F11E
:10103000FF3F40F30481120108D555F81C2CD0F86D
:10104000800022F40042104345F81C0C002918BF10
:1010500001210846BDE8F081836E4FEA3367032F14
:101060004CD8DFE807F0020613172F6847F0400757
:1010700002E02F6847F480272F606EB96F6A27F06F
:1010800040773B436B621302C0D508E02F6847F0FE
:1010900000572F60002EF1D031461302B6D5836D74
:1010A0004FEA3327042F00F26180DFE807F0335165
:1010B0002B030300002E33D03146D301A8D5C36DD6
:1010C0004FEA3317042F56D8DFE807F033492003DF
:1010D0000300002E33D0314693017FF59CAF036EA1
:1010E0004FEA3317052F00F2E080DFE807F04C03EA
:1010F000484C4C4C2F6847F4003743E00126002E43
:10110000CAD1BBE72F6847F0006706E02F6847F0B9
:10111000006711E02F6847F040072F60002ECBD109
:10112000AF6A27F4E0673B43AB62D3017FF570AF52
:10113000C5E72F6847F040072F60002ECBD16F6ABC
:1011400027F070073B436B6293017FF564AFC6E7FE
:101150002F6847F480372F60002EADD1E0E72F686D
:1011600047F480372F60002EB5D1E8E70126002E26
:101170007FF4A2AFD4E70126002EACD1DFE72F68C1
:1011800047F080572F60002E00F0938031465301C6
:101190007FF544AF436E4FEA3317052F00F292807C
:1011A000DFE807F00B03070B0B0B2F6847F4003742
:1011B00002E02F6847F080572F60002E00F08680F5
:1011C0003146D3007FF52DAFC36E052B00F287802B
:1011D000DFE803F00B03070B0B0B2F6847F4003716
:1011E00002E02F6847F080572F60002E00F07B80D0
:1011F000314693007FF518AF036F052B00F27C801A
:10120000DFE803F00B03070B0B0B2F6847F40037E5
:1012100002E02F6847F080572F60002E70D03146D3
:1012200053007FF504AF436F002B18BFB3F5805F09
:1012300025D1D6B13146B2F1FF3F3FF7FCAE836F07
:101240006FF0010707EBB337022F08D34FEAB3372C
:101250002FB1012F1DD12F6847F080572F60DEB1CD
:10126000012112013FF5E9AEF0E62F6A27F440575D
:101270003B432B62B2F1FF3F3FF7DDAEDFE7B3F553
:10128000005F04D12F6847F080572F60D1E7012617
:10129000CFE70126002EE3D12F6A27F440473B43D6
:1012A0002B6212013FF5C9AED0E60126002E7FF475
:1012B0006DAFAF6A27F070073B43AB6253017FF518
:1012C000ADAE67E70126002E7FF47AAFEF6A27F014
:1012D00070073B43EB62D3007FF5A3AE74E70126B2
:1012E000002E7FF485AFAF6A27F007073B43AB6260
:1012F00093007FF599AE7FE70126002E7FF48FAF34
:101300006F6A27F007073B436B6253007FF58FAE90
:1013100089E70000000000002DE9F04381B00028BB
:1013200000F0E78042F200080446C5F20028894632
:10133000D8F8000000F03F0088420ED2D8F8000034
:1013400020F03F0040EA0900C8F80000D8F800008B
:1013500000F03F00484540F0CC80206844F2204730
:101360004107C5F602070AD521693A6802F007026B
:10137000914204D93A6822F007021143396001070B
:101380000AD561693A6802F07002914204D93A685C
:1013900022F0700211433960C1060AD5A1693A688A
:1013A00002F4E062914204D93A6822F4E062114307
:1013B000396081060AD5E1693A6802F4E042914257
:1013C00004D93A6822F4E0421143396081070DD50F
:1013D000E16857F8042C02F00F02914206D957F841
:1013E000042C22F00F02114347F8041CC0076AD1F5
:1013F000206881070DD5E16857F8042C02F00F0230
:10140000914206D257F8042C22F00F02114347F8FC
:10141000041CD8F8001001F03F0149450DD9D8F857
:10142000001021F03F0141EA0901C8F80010D8F886
:10143000001001F03F0149455BD141070AD5216900
:101440003A6802F00702914204D23A6822F0070299
:101450001143396001070AD561693A6802F07002E8
:10146000914204D23A6822F0700211433960C106F9
:101470000AD5A1693A6802F4E062914204D23A685E
:1014800022F4E0621143396080060AD5E0693968C8
:1014900001F4E041884204D2396821F4E041084374
:1014A000386000F085F940F2381140F21C02C2F2B7
:1014B0000041C2F2004209681060084601B0BDE870
:1014C000F043FFF705B957F8080C20F00F01D4E9F5
:1014D0000102114347F8081C012857F8201C0CD0C2
:1014E000032804D0022829D1890302D507E0890105
:1014F00005D4012001B0BDE8F083C905F9D557F83E
:10150000101C21F00701084347F8100CFFF7B8F84A
:10151000064641F2883500BF57F8100C616800F0AC
:101520003800B0EBC10F3FF463AFFFF7A9F8801BA1
:10153000A842F1D9032001B0BDE8F0834907D8D50E
:10154000DDE700000000000080B500F031F944F252
:101550001C41C5F60201096801F00F01082938BFD6
:1015600080BD43F6B062C0F60002114411F8081CB9
:10157000C84080BD0000000010B544F21C44C5F610
:10158000020400F015F9216801F00F01082907D3C2
:1015900043F6B062C0F60002114411F8081CC840BE
:1015A000616801F00701033938BF0021C84010BD50
:1015B00010B544F21C44C5F6020400F0F9F82168A5
:1015C00001F00F01082907D343F6B062C0F600020C
:1015D000114411F8081CC8406168C1F302110339B5
:1015E00038BF0021C84010BD10B544F21C44C5F6F8
:1015F000020400F0DDF8216801F00F01082907D38B
:1016000043F6B062C0F60002114411F8081CC8404D
:101610006168C1F30221033938BF0021C84010BD01
:1016200010B544F20043C5F60203D3F838E09A6AD5
:10163000986BC2F305344CB16FF35F20D96A09058A
:1016400000F1010C04D49FED240A0CE000213CE0E1
:10165000D86B9FED221AC0F3CC0000EE100AB8EE52
:10166000400A20EE010A02F0030002280BD00128F4
:1016700006D010B91868800608D49FED171A12E03A
:101680009FED181A0FE09FED161A0CE0186849F24A
:101690000001C0F2D031C0F3C10021FA00F001EE28
:1016A000100AB8EE411A02EE104A03EE10CAB8EE64
:1016B000422AB8EE433A81EE021A30EE030A20EED7
:1016C000010ABCEEC00A10EE101ACEF3064001303B
:1016D000B1FBF0F010BD00BF0000000000000039B9
:1016E000001BB74B0024744A10B544F20043C5F602
:1016F0000203D3F840E09A6A186CC2F305544CB167
:101700006FF35F20D96A490200F1010C04D49FED08
:10171000240A0CE000213CE0586C9FED221AC0F333
:10172000CC0000EE100AB8EE400A20EE010A02F0EA
:10173000030002280BD0012806D010B918688006D3
:1017400008D49FED171A12E09FED181A0FE09FEDD5
:10175000161A0CE0186849F20001C0F2D031C0F34B
:10176000C10021FA00F001EE100AB8EE411A02EEB3
:10177000104A03EE10CAB8EE422AB8EE433A81EEA0
:10178000021A30EE030A20EE010ABCEEC00A10EE87
:10179000101ACEF306400130B1FBF0F010BD00BFCF
:1017A0000000000000000039001BB74B0024744A01
:1017B00080B544F20040C5F602000169C1F3C201E0
:1017C000032914D002290DD021BB0168890626D532
:1017D000016849F20002C0F2D032C1F3C10122FA1D
:1017E00001F161E043F20061C0F26E115CE0826AD7
:1017F000816AC36AD0F834C0C1F3051179B102F02F
:101800000302022A0DD07AB9026892060FD49FED26
:101810002D0A3BE040F60011C0F23D0144E00021FA
:1018200042E09FED270A0FE09FED240A0CE00268DA
:10183000C2F3C10E49F20002C0F2D03222FA0EF217
:1018400000EE102AB8EE400A03F001029FED1E3AA6
:10185000524202EADC026FF35F3201EE102A026BA1
:101860006FF35F2202EE102AB8EE411AB8EE422A58
:1018700001EE032A01EE101AB7EE003AB8EE411A53
:1018800080EE010A32EE031A20EE010A016BC1F369
:101890004621013101EE101AB8EE411A80EE010A1C
:1018A000BCEEC00A10EE101A806900F00F00073875
:1018B00038BF002021FA00F080BD00BF0024744A28
:1018C000001BB74B000000000000003900000000C2
:1018D00000286AD02DE9F04381B044F20046044666
:1018E000C5F602063069B16A3768227800F0380818
:1018F00001F00309D2070ED0B8F1100F07D017F08E
:10190000285F00F0C780B9F1020F40F0C380606823
:10191000002800F08B802078800748D42078C0060B
:101920000DD5B8F1080F07D017F0285F00F004813B
:10193000B9F1010F40F00081206A002876D02078AC
:10194000000777D42078800600F18B80207840074C
:1019500000F1CE80214651F8240F002800F03A8192
:10196000B8F1180F40F02C8101285FD0706BA16C8A
:10197000C0F3CC00814200F02D81F06A20F001001C
:10198000F062FEF77DFE0546FEF77AFEA842FBD028
:10199000706B4FF6F871A26C884340EAC200706326
:1019A000F06A40F00100F06214E101207047B8F1E4
:1019B000000F05D017F0285F79D0B9F1000F76D16C
:1019C000E06898B3B9F1000F306807D117F02851DB
:1019D00004D000F018002169884227D130682169BD
:1019E00020F01800B8F1000F40EA010040F00100BB
:1019F00030600DD1306840F21C0249F20001C2F2A1
:101A00000042C0F3C100C0F2D03121FA00F01060F2
:101A100040F23810C2F200400068FEF759FE00287C
:101A200000F0F680012001B0BDE8F083012001B094
:101A3000BDE8F083A0690028706F6AD040F0010013
:101A40007067FEF71DFE0546706F80073FF57AAFA1
:101A5000FEF716FE401B0128F6D9032001B0BDE8B1
:101A6000F083E0690028306800F0978040F48050EF
:101A70003060FEF705FE0546306880043FF566AF2E
:101A8000FEF7FEFD401B01284FF00300F4D901B022
:101A9000BDE8F08361683068B1F5A02F64DA0029F1
:101AA00000F0DF80B1F5803F00F0EE80CEE0E0682E
:101AB0003168002800F0B48021F01901D4E9042332
:101AC000114308433060706820F0FE4040EA036034
:101AD0007060FEF7D5FD0546306840073FF51EAF44
:101AE000FEF7CEFD401B01284FF00300F4D9CEE7EE
:101AF000D6F8000440F48070C6F80004A568306F82
:101B0000042D3DDC002D00F0FC80012D00F00C8147
:101B1000ECE020F001007067FEF7B2FD054600BF63
:101B2000706F80077FF50EAFFEF7AAFD401B0128FE
:101B30004FF00300F4D9AAE7206A0028306800F0CB
:101B4000C38040F080003060FEF79AFD054600BF7C
:101B50003068C0053FF5F3AEFEF792FD401B01284B
:101B60004FF00300F4D992E700F08680B1F5502FD2
:101B70006CD140F480203060306840F4002081E077
:101B8000052D00F0C980852D40F0B08040F00400A4
:101B90003067306F40F08000C4E020F48050306047
:101BA000FEF76EFD054600BF306880047FF5CEAEBF
:101BB000FEF766FD401B01284FF00300F4D966E7ED
:101BC00001206064002000F0F3FE0146012000299E
:101BD0007FF45DAF214651F84C0F38B1012000F081
:101BE000E7FE0146012000297FF451AF214651F85C
:101BF000740F38B30120C4F89400022000F0D8FE1E
:101C000001460120002908BF002001B0BDE8F08393
:101C10007068616920F0FE4040EA016070607DE616
:101C200021F001003060FEF72BFD054630684007CB
:101C30007FF574AEFEF724FD401B01284FF0030032
:101C4000F4D924E7002001B0BDE8F08320F480300F
:101C50003060306820F480203060306820F400204C
:101C600014E020F480303060306820F400203060D0
:101C7000306820F4802009E040F480203060306833
:101C800020F400203060306840F480303060FEF78F
:101C9000F7FC6168054699B1306880033FF53BAEBB
:101CA000FEF7EEFC401B64284FF00300F4D9EEE68B
:101CB000FEF7E6FC401B64284FF003003FF6E7AE5A
:101CC00030688003F4D426E620F080003060FEF710
:101CD000D7FC05463068C0057FF531AEFEF7D0FC75
:101CE000401B01284FF00300F4D9D0E620F001009A
:101CF0003067306F20F004003067306F20F08000D4
:101D000014E020F001003067306F20F08000306771
:101D1000306F20F0040009E040F004003067306FBD
:101D200020F080003067306F40F001003067FEF730
:101D3000A7FC002D054641F2883713D0306F80078D
:101D40003FF508AEFEF79CFC401BB8424FF0030085
:101D5000F4D99CE6FEF794FC401BB8424FF0030018
:101D60003FF695AE306F8007F4D4F3E50000000035
:101D70004EF21000CEF20000016841F00201016055
:101D8000704700000000000040F21051C5F600014D
:101D90000A68104308607047411E0020B0EB116FC5
:101DA00001D0012070474EF21002F023CEF2000263
:101DB00051604EF62351CEF200010B700721906066
:101DC00011607047000000004EF21000CEF20000DB
:101DD000016821F00201016070470000000000006E
:101DE0002DE9F043A7B0044606A88421FEF783FA44
:101DF00041F200022168C4F20022002091420590C5
:101E0000CDE903000290019002D027B0BDE8F08335
:101E1000219006A84FF080510691FEF7D1FD44F2C3
:101E2000405040F20044C5F60200C5F6020401AD80
:101E30004FF0020801694FF0010941F01001016102
:101E4000016900910099016841F002010160016897
:101E500000910099016841F0020101600068009062
:101E600000984FF48040019020462946CDF8088024
:101E7000CDF80C900326049604270597FEF72CFB5B
:101E800001A94FF40040CDE9046781E80103204631
:101E90002946FEF721FB522003210022FEF7B8FC61
:101EA0005220FEF7A1FC27B0BDE8F083000000003F
:101EB00041F200010068C4F20021884218BF704757
:101EC00040F68820C2F20040B0F90010002922D468
:101ED00089B240F6DC02C2F20042B1F5804F1378BD
:101EE00004D20D2B0CD141F4804213E048F2000CD7
:101EF0000022CFF6FF7C0A2B08BF41EA0C0209E062
:101F000040F6C01C4A1CC2F2004CC6290CF8013035
:101F100088BF0022028040F62C1040F6DC01C2F29D
:101F20000040C2F20041012201F06DBF000000003C
:101F3000F0B586B04BF200470023C5F200276A4691
:101F40004FF0010C0593CDE90333CDE90133009344
:101F500005E000BF0024D4500C330C2B1CD13D688D
:101F600002EB030453B13E6885EA56062CEA0606E6
:101F700066603E68F606EDD5402406E0C5F34005F0
:101F800065603D68ED06E5D520243E6826424FF0A9
:101F9000700408BF1024DEE745F2000CC5F2002CE7
:101FA000DCF80020D20701D1002306E0DCF8002095
:101FB000012322F00102CCF800204AF2000EC5F203
:101FC000002EDEF80020D20706D0DEF80020023313
:101FD00022F00102CEF8002000223A603A688C68B4
:101FE000002522F47F02CFF6FF7505EB044422435F
:101FF0003A600068704508D0604538D1D1E90001E9
:10200000019160B16FF0300105E0D1E90001049168
:1020100028B16FF050013A681140084338600198C8
:102020000499884212D1396841F0010139600128D0
:102030000ED0D80712D1980705D5DEF8000040F081
:102040000100CEF80000002006B0F0BD0128F0D15C
:10205000386840F002003860D807ECD0DCF80000A7
:1020600040F00100CCF800009807E6D4EBE701202F
:1020700006B0F0BD000000002DE9F04715460F4600
:102080000446FEF7FDFA2168D1F84880D1F8109196
:10209000626D042A49D18246F868B0F5800F44D1B8
:1020A000086A800653D42068D4F80CC097E84C0026
:1020B000F968C0F88820C0F88030BCF1806F3A69B8
:1020C000C0F89020026822F0435242EA060241EA38
:1020D000020141F0005101604FF0480107D0D0F8F3
:1020E000002112F4E06204BF4FF48871C84640F842
:1020F0000180006A00071DD46E1C03E02068006A9E
:10210000000717D4002EF9D0FEF7BAFA1DB1A0EBE4
:102110000A00A842F2D94FF400706065A06D00215A
:1021200040F00100A065032006E01020A06501201A
:10213000BDE8F08700200121002908BFBDE8F08735
:10214000216808224A6202216165BDE8F0876E1CA1
:1021500004E000BF2068006A8006A4D5002EF9D0F4
:10216000FEF78EFA1DB1A0EB0A00A842F2D94FF497
:1021700000706065A06D40F00100A0650220BDE820
:10218000F0870000000000002DE9F0411546884668
:102190000446FEF775FA616D0646242913D014290A
:1021A00009D0022922D1E068B0F1806F11D1242931
:1021B00009D014291AD1D8F8000020F00100022813
:1021C00007D0242912D1D8F8000040F002000328DB
:1021D0000CD12068006A80060DD40020A06520463E
:1021E000414600F00DFDF8B1BDE8F0811020A0657A
:1021F0000120BDE8F0816F1C04E000BF2068006A88
:102200008006EAD5002FF9D0FEF73AFA15B1801B07
:10221000A842F3D94FF400706065A06D40F0010052
:10222000A0650220BDE8F081D8F8381069B1D8F86F
:102230000010022932D0012929D0002918BFBDE899
:10224000F08104216165BDE8F0812068006A8007A3
:1022500017D46F1C04E000BF2068006A800710D408
:10226000002FF9D0FEF70CFA15B1801BA842F3D964
:102270004FF400706065A06D40F00100A065032080
:1022800000E00020216802224A62BDE8F081616D11
:102290002429D6D014216165BDE8F081616D14292F
:1022A000CFD024216165BDE8F0810000000000006E
:1022B00078B110B5016804460A6822F001020A608C
:1022C0008A6822F002028A6000F0CAF90020606584
:1022D00010BD0120704700002DE9F04116468846E8
:1022E0000446FEF7CDF9616D013901291CD8074676
:1022F0002068006A80061CD40021012000284FF0CD
:10230000020008BFBDE8F08198E88C001B02D8F8F5
:102310000C6043EA024223683A433243C3F8002286
:1023200060650846BDE8F0811020A0650120BDE889
:10233000F081751C04E000BF2068006A8006DBD5D0
:10234000002DF9D0FEF79CF916B1C01BB042F3D9AD
:102350004FF400706065A06D032140F00100A0659E
:102360000020CBE7000000002DE9F041164688462A
:102370000446FEF785F9616D02292DD10746E06814
:10238000B0F1806F28D12068006A800629D400202F
:10239000012100293FD021680A6822F040520A60DA
:1023A0008A6822F08072D8E90037D8E902651A43BA
:1023B0008A60D8E904231A43324342F0006242F4AF
:1023C0004062C1F80021C1F880216A1E0A648F644E
:1023D00004216165BDE8F0811020A0650120BDE801
:1023E000F081751C04E000BF2068006A8006CED52D
:1023F000002DF9D0FEF744F916B1C01BB042F3D955
:102400004FF400706065A06D002140F00100A065F0
:1024100003200029BFD10220BDE8F08100000000A8
:10242000F0B581B00446FEF72BF934B10546002023
:10243000A065616D21B101B0F0BD012001B0F0BD1A
:10244000204600F031F941F28830E065206804F15F
:102450000C074CF2FC068CCF8168CFF6E0060E40EC
:102460006FF0FF013243E66942EA034201EB0723C2
:1024700032431A438260C268236A22F4E0221A437C
:10248000C2600269236B22F4F81242EA034202613D
:102490000269636B22F0FF021A430261A26B426180
:1024A0000268636822F47C5201EB0321114301604E
:1024B000006A80060BD541F2893600BFFEF7E0F8CE
:1024C000401BB04208D22068006A8006F6D4002083
:1024D00001210029AFD00AE04FF400706065A06DC3
:1024E000002140F00100A06503200029A3D021684D
:1024F0004AF20007626AC5F20027CB68B94223F0AE
:10250000FF0342EA0302CA6005D045F20002C5F2A9
:102510000022914208D1E66D086A800631D400207D
:10252000012100293FF487AF21684FF6BF75A268EB
:10253000CFF6FF65A369A76A0E682E40E56B3243AC
:10254000022B42EA05020A60D1F80821E66A22F06D
:10255000A04242EA070242EA0602C1F808210A68DC
:1025600042F001020A6003D18A6842F002028A60E6
:10257000E1680222B1F1806F08BF0122626501B0FB
:10258000F0BD771C04E000BF2068006A8006C6D555
:10259000002FF9D0FEF774F816B1401BB042F3D902
:1025A0004FF400706065A06D002140F00100A0654F
:1025B000032000293FF43FAFB6E700000000000011
:1025C0002DE9F04188460446FEF75AF8616D04296A
:1025D00026D106462068E76D006A800625D40020D3
:1025E0000121002908BFBDE8F08188216165D8F884
:1025F000001008290AD12268D8F80430C2F8303116
:1026000010235362136843F4801313602268136825
:1026100023F00803194341F040511160BDE8F081F7
:102620001020A0650120BDE8F0817D1C04E000BF02
:102630002068006A8006D2D5002DF9D0FEF720F878
:1026400017B1801BB842F3D94FF400706065A06DDC
:10265000002140F00100A0650320C2E70000000057
:1026600045F200010068C5F20021884218BF70479A
:1026700010B544F2345043F60004C5F60200C5F626
:102680000204016821F480410160016821F0200109
:10269000016004F58060FF21FDF79AFE15212046B8
:1026A000BDE81040FDF794BE2DE9F043A7B0044605
:1026B00006A88421FDF71FFE45F200012068C5F23F
:1026C0000021002688420596CDE903660296019610
:1026D00002D027B0BDE8F0831020089006A84FF084
:1026E0000208CDF81880FEF76BF944F2345043F637
:1026F0000004C5F60200C5F6020401AD4FF003095F
:102700000168092741F48041016001680091009946
:10271000016841F020010160016800910099C168E1
:1027200041F40041C160C16800910099C16841F461
:102730008041C160C06800900098FF20CDE9010889
:1027400004F5806029460396CDF810900597FDF7B3
:10275000C3FE15202946CDE9010820460597CDE99D
:102760000369FDF7B9FE27B0BDE8F0830000000063
:102770002DE9F04381B0154688460446FDF780FFF9
:10278000D4F800900646B8F1000FD9F84800D9F8FF
:1027900010115FD0626D042A5ED1D9F84020012368
:1027A0000132A264A26C6264C4F84080D9F80020AF
:1027B00063F31D72C9F80020E268B2F1806F04D0A3
:1027C000D9F8002112F4E06F4CD0C9F848006F1C12
:1027D0004FF400780EE00020012111B399F8500069
:1027E000216C0870206CA16C01302064481EA0642C
:1027F000A06C00B32068006A10F0060FEBD1002F28
:10280000F8D0FDF73DFF15B1801BA842F2D9C4F8FE
:1028100054800021A06D40F00100A0650320002934
:10282000DCD101B0BDE8F0832FB1FDF729FFE5B1A0
:10283000801BA84219D82068006A8007F4D50020C0
:1028400001210029EDD0216802224A62626501B0AF
:10285000BDE8F083082000E01020A065012001B051
:10286000BDE8F083C9F81011B1E74FF4007060655E
:10287000A06D002140F00100A06503200029D0D008
:10288000E1E7000000000000426D120708D4026872
:102890004162D06820F0FF000843D06000207047FC
:1028A00010218165012070472DE9F04381B0154664
:1028B0000F460446FDF7E4FE002F52D00646D4F83A
:1028C0000080606D04284ED1D8F840004FF40079A4
:1028D0000130A064A06C606427646F1CD8F800000D
:1028E00020F04050C8F800002068006A400711D46A
:1028F000002FF9D0FDF7C4FE15B1801BA842F3D913
:10290000C4F854900021A06D40F00100A0650320A0
:1029100019B92BE00020012141B3206C007888F820
:102920005000206CA16C01302064481EA064A06C93
:102930000028D9D107E000BF2FB1FDF7A1FEC5B136
:10294000801BA84215D82068006A8007F4D50020B3
:10295000012159B1216802224A62626501B0BDE8D5
:10296000F083082000E01020A065012001B0BDE840
:10297000F0834FF400706065A06D002140F001000D
:10298000A06503200029E5D1F0E700000000000069
:10299000FEE7000000000000FEE70000000000006D
:1029A000FEE700000000000070470000000000008B
:1029B0002DE9F04F83B0044644F22C470B20C5F6B6
:1029C000020704FB00F9381D01904FF47870884627
:1029D00000FA09F039684FEA440B07F194020292B9
:1029E00021EA000038604FF0807000FA0BFA57F8C7
:1029F0002C0C20EA0A0047F82C0CFDF741FE4FF0A2
:102A00000071064601FA0BF557F82C0C284208D045
:102A1000FDF736FE801B3228F6D9032003B0BDE84F
:102A2000F08FD8F8000002280FD1D8F8040002284F
:102A30001DD008BB57F82C1C49F20002C0F2D0325E
:102A4000C1F3C10122FA01F11BE0E0004FF47C71F7
:102A5000043057F8042C01FA00F022EA000040F09C
:102A6000030047F8040C002003B0BDE8F08F43F2E8
:102A70000061C0F26E1104E040F6FF01C0F23D01BA
:102A80000131D8F808E0B1FBFEF341F2FF11C0F2CA
:102A90007A018B4202D94FF0180C12E040F6FF0188
:102AA000C0F23D018B4202D94FF0100C09E048F210
:102AB0007F464FF0020CC0F21E06B34288BF4FF0B3
:102AC000080CE6004FF47C71B1406FF0030257F838
:102AD000043C5140321D19400EFA02F211430143E9
:102AE00047F8041C57F8041C01F0030181425ED131
:102AF0001B20396800FA09F008F10C030CFA09F2FE
:102B000021EA0000104338604FF600660FCBCFF685
:102B1000FF76A0F1010006EB412140EA010040F2FE
:102B20000001CFF6FF7101EB0241A3F1010240EA7F
:102B30000100019940EA02606FF0FF0241F82B00AA
:102B4000D8E90701A0F1010002EB012140EA0100F0
:102B5000029941F824001CB9386840F02000386020
:102B6000D8F8240070B107EB8B014FF6F8738A6830
:102B70009A4342EAC00088600120396800FA09F0EF
:102B80000843386057F82C0C40EA0A0047F82C0C30
:102B9000FDF776FD044600BF57F82C0C28427FF461
:102BA00062AFFDF76DFD001B3228F5D935E7012036
:102BB00003B0BDE8F08F0000704700000000000087
:102BC000FDF766BD000000004EF6885140F200009F
:102BD000CEF20001C0F6000041F8800C086840F415
:102BE000700008607047000040F62C10C2F20040F0
:102BF00001F00EB900000000FEE700000000000038
:102C00002DE9F047026883681768002B27F04053CE
:102C1000136005D113684F6823F040433B431360B2
:102C20000B68022B0AD0032B11D14FF4B0744FF470
:102C3000A87C4FF4A4734FF4A07E10E04FF4D0743E
:102C40004FF4C87C4FF4C4734FF4C07E07E04FF4D8
:102C500090744FF4887C4FF484734FF4807E8D6CB5
:102C600042F80E50CD6A6DB18D6A155152F80E4082
:102C7000CD6A24F47C144E6B2C430D6B34432C43EF
:102C800042F80E40D4584D6C24F01F042C43D4500D
:102C90008B6B23B10C6814B9CC6B013C1464CD6808
:102CA000CC69DDB152F80E60D1E9048754B3D1E9A3
:102CB000089AD3B34CF2C000CFF2FF0030400E6C44
:102CC0003043384340EA080040EA0A0040EA09007D
:102CD00018432843204342F80E0041E0002C43D023
:102CE00052F80E60002BD1E9080742D04CF2C00523
:102CF000CFF2FF053F352E400D6C2E43374338434E
:102D000018433AE0002B40D04CF2C0000C6CCFF2DC
:102D1000FF0000F57C5030402043384340EA080073
:102D20001843284342F80E0043E043F63F7326EA77
:102D300003033B4343EA080343EA0A0343EA090364
:102D40002B43234342F80E30C06AB0F1805F07D1B5
:102D50004869082804D152F80E0040F00060BAE734
:102D6000886842F80C000BE0082181650120BDE86D
:102D7000F08726F47C533B431843204342F80E006F
:102D8000886990640020BDE8F08726F03F033B434C
:102D900043EA08032B4342F80E30C06AB0F1805F6B
:102DA00007D14869082804D152F80E0040F00060AD
:102DB000B8E7886842F80C000020BDE8F087000002
:102DC00040F24431C2F20041086070470000000048
:102DD00080B54EF2180140F24432CEF20001C2F248
:102DE0000042002351F804CC126850434FF47A7229
:102DF00000FB02FE086800BF0A688242FCD0034460
:102E00008242A3EB0203104628BF63447345F3D309
:102E100080BD00000000000080B54EF2180140F2B5
:102E20004432CEF20001C2F20042002351F804CC39
:102E3000126802FB00FE08680A688242FCD0034464
:102E40008242A3EB0203104628BF63447345F3D3C9
:102E500080BD00000000000084B000F081F900F0A7
:102E600033F9FDF725FC4FF496700621022200F09D
:102E7000F7F94FF41670FFF7A3FF4FF4E13000F0BD
:102E80009FFF00F0CAFF00F0CDFF00F0D0FF002050
:102E900000F0D2FF012000F0CFFF022000F0CCFFB5
:102EA000032000F0C9FF042000F0C6FF64A00190D9
:102EB0001E203221C8221023102400944FF478459C
:102EC000029500F0BEFF60A001901E204621C8229E
:102ED00010230094029500F0B4FF5FA001901E2023
:102EE0005A21C82210230094029500F0AAFF40F650
:102EF000204440F20001C2F20044C2F2004100222C
:102F0000204600F0A3FF40F220012046C2F200411B
:102F100000F0A1FF40F2A8012046C2F2004100F0FB
:102F20009FFF204600F0A1FF40F68A2B40F61C4987
:102F300040F653354FF47A70C2F2004BC2F20049AA
:102F40000FF24C18C2F2004557A64FF0000A4FF49A
:102F500078440021039103E00398013003900A2094
:102F600080B2FFF735FF00BF9BF80070BA4510D064
:102F700042A03DA1002F4FF0C80208BF0846102113
:102F80001023CDE900101E20BE21029400F059FF4D
:102F9000BA46B9F90070B7F1FF3F0FDC404600F0C8
:102FA00069FF6FF39F372846394600F068FF3046C7
:102FB00000F060FF0020A9F80000D5E7039841F673
:102FC000713187B247F69160C3F6FB20C0F20D0164
:102FD00078434FEAF000884208D843F6B860C0F65C
:102FE000000000F047FF32A000F044FF45F6294002
:102FF0004AF61461CCF28F20C0F2471178434FEAB1
:10300000F000884205D843F6E960C0F6000000F001
:1030100031FF4EF6EF6048F68801CEF6EE60C0F65E
:10302000880178434FEA7000884295D840F6004006
:103030004FF48041C5F60200FDF712FB8CE700BF9C
:1030400053544D3332000000555342205643502014
:10305000544553540000000041544F4D40414C49E9
:10306000454E54454B00000055534220446973635C
:103070006F6E6E65637465642000000055534220D6
:10308000436F6E6E6563746564202020200000002D
:103090000D0AC4FAB7A2CBCDB5C4CFFBCFA2CEAA3E
:1030A000A3BA0D0A000000000D0A0D0A000000007E
:1030B000D5FDB5E3D4ADD7D340414C49454E544539
:1030C0004B0D0A0D0A0D0A004EF61450CEF2000008
:1030D0000168890312D4BFF34F8FBFF36F8F0021B4
:1030E000C0F83C12BFF34F8FBFF36F8F016841F4FC
:1030F00000310160BFF34F8FBFF36F8F0168C903C9
:1031000048BF7047B0B500210167BFF34F8FC26E53
:1031100043F6E07ED308C2F34E31C2F3C90202F196
:10312000010C9B074A0100BF02EA0E0465461C44DD
:10313000013DC0F84C4204F14044F9D10029A1F10D
:103140000101A2F12002EFD1BFF34F8F016841F4DA
:1031500080310160BFF34F8FBFF36F8FB0BD0000B0
:10316000F0B585B00025CDE90355CDE90155FDF752
:103170000FFB01AC0120ADF8040048F21F71CDE94E
:10318000031020460295FDF7CFFA02950F2740F273
:103190000015204640F20116ADF80460C0F2013778
:1031A0000397C0F201150495FDF7BEFA40F2012025
:1031B000ADF804004FF000500495CDE90207204619
:1031C000FDF7B2FA40F20130ADF804004FF01050B4
:1031D00002901220C0F20130CDE903052046FDF730
:1031E000A3FA40F20140ADF804004FF040500290C5
:1031F0000E20C0F20130CDE903052046FDF794FA18
:1032000040F20150ADF804004FF0C0400290192088
:10321000C0F20030CDE903062046FDF785FA40F202
:103220000160ADF804004FF01040029018262046CF
:10323000C0F20136CDE90365FDF776FA40F2017080
:10324000ADF804004FF0E0400495CDE902062046B9
:10325000FDF76AFA0420FDF7AFFA05B0F0BD0000F3
:103260002DE9F0418AB00646042000230993CDE9F8
:103270000733CDE90533CDE9033390460F4602937A
:10328000FDF706FB08B1012488E044F23C55C5F681
:103290000205FDF77DFBFDF787FBA86940F0020002
:1032A000A861A869019001984FF40030FEF76CFD09
:1032B0004FF48020FEF768FD01200124FDF724FB78
:1032C00000286BD1FDF748FB00284FF0010465D1C1
:1032D0002868292140F00050286028680190019852
:1032E000286840F08040286028680190019842F6E4
:1032F000BC70C2F206404FF4803200F1780C002519
:10330000C0E900124FF480510622C0E906410221B3
:103310004164C0E90911C0E90B76C0E90D81C0E93B
:103320000F11C0E9125101654FF4967342650C27E5
:10333000C0E91631C0E918720326C0F88410C0E94C
:103340001A62C0E91C518CE80E003222C0F8985075
:10335000C0E92221C0E92471FEF7BAFAF0B93F2092
:103360003721CDE902060820059004200690402070
:1033700007904FF4806008904FF48040099002A8B5
:103380000495FDF7C9FF4FF0010438B900F00CF8BF
:1033900043F25800C2F206400470002420460AB0EE
:1033A000BDE8F081000000002DE9F04FB3B000202F
:1033B0006C4600212190CDE91F0000BF605401310F
:1033C0006029FBD145F200082046C5F20028CDF85F
:1033D0000080FEF76DFF0420019000274FF0807001
:1033E0000390182004900320CDE909072046CDF86A
:1033F000008002970125CDE90557CDE90777CDE992
:103400000B77CDE90D770F97FFF70AF810201FA96A
:10341000CDE91F0741F288322046FEF789FD1FAE35
:103420004C213046FCF767FF21A9662041F2883223
:103430002097A1C120463146CDE91C77CDE91A7706
:10344000CDE91877CDE91E77249726972A972D97EF
:10345000CDE93077FEF798FE002840F0828021A960
:10346000992041F288322497A1C168461FA9CDE96D
:103470001F7726972A972D97CDE93077FEF784FEA0
:1034800000286ED142F21070329000BF329801389D
:103490003290FBD146F29960219068461FA941F213
:1034A00088320025CDE91F5504262296102726953F
:1034B000CDE923752A952D95CDE93055FEF764FEAB
:1034C00000284DD121A949F6661041F28832249591
:1034D000C1C168461FA9CDE91F5526952A952D958E
:1034E000CDE93055FEF750FED0BB42F2107032905D
:1034F000329801383290FBD146F2996021906846AB
:103500001FA941F288320025CDE91F554FF004096B
:10351000CDF888904FF0100ACDF88CA0082624969C
:1035200026954FF000572A952D9530953197FEF747
:103530002BFEA8B921A949F6661041F288322496DB
:1035400081E8010668461FA9CDE91F5526952A95F1
:103550002D95CDE93057FEF717FE002800F0388290
:103560000125002D00F09A80002004F1280500219B
:103570002190CDE91F0000BF605401316029FBD1CB
:103580006C46CDF800802046FEF792FE04200190A4
:10359000402002904FF00070039018200490032008
:1035A00009902046CDF8008001270597002608964F
:1035B000CDE90666C5E90066C5E90266C5E90466A7
:1035C000FEF72EFF10201FA9CDE91F0641F2883219
:1035D0002046FEF7ADFC1FAD4C212846FCF78BFEC4
:1035E000662041F28832CDE9210720462946CDE9FF
:1035F0001C66CDE91A66CDE91866CDE91E662096EF
:10360000CDE9236626962A962D96CDE93066FEF7FB
:10361000BBFD002842D199201FA9CDE921076846AA
:1036200041F28832CDE91F66CDE9236626962A96B7
:103630002D96CDE93066FEF7A7FD78BB42F21070FB
:10364000329000BF329801383290FBD10020902197
:10365000CDE91F0021910121CDE92210CDE92400FF
:103660004FF4807126914FF400512A90CDE9271034
:103670004FF080712D91042141F28832CDE92E1056
:10368000CDE9300068461FA9FEF77EFD30B96846D7
:1036900032A941F28832FFF76BF810B133B0BDE8C0
:1036A000F08F9DF8CA009DF8C81041EA002141F250
:1036B000687081420FD041F2EF729142EED19DF8D5
:1036C000CB309DF8C97047EA032393420BD041F2F7
:1036D00068729142E2D19DF8CB109DF8C92042EA70
:1036E00001218142DAD100203521CDE91F0021914D
:1036F0000121CDE9221024904FF08071269041F2F3
:1037000088322A902D910221CDE92E10CDE930008A
:1037100068461FA9FEF738FD0028BFD1684632A9C8
:1037200041F28832FFF724F80028B7D10620219013
:1037300068461FA941F288320024CDE91F440125C3
:103740002494CDE9225426942A942D94CDE9304432
:10375000FEF71AFD0028A1D105201FA9CDE92105FA
:103760004FF080702D90022041F28832CDE92E0476
:1037700068462694CDE91F44CDE923442A94CDE937
:103780003044FEF701FD00287FF488AF4FF480003D
:103790001D9010201E9068461AA941F2883240F20E
:1037A0000225CDE91A5500241C94FEF765FC00287B
:1037B0007FF474AFBDF8C8001FA941F28832249489
:1037C0002843ADF8C8003120219001202694CDE98E
:1037D00022044FF080702D9002202A94CDE92E040F
:1037E0006846CDE91F44CDE93044FEF7CDFC002802
:1037F0007FF454AF684632A941F28832FFF754F89B
:1038000000287FF44BAF0024052021900120CDE952
:1038100022044FF080702D9002201FA9CDE92E04C4
:10382000684641F28832CDE91F44249426942A94B4
:10383000CDE93044FEF7A8FC00287FF42FAF40F21A
:1038400001101AA9CDE91B044FF480001D9010202F
:103850001E90684641F288321A94FEF70DFC00284B
:103860007FF41CAF00203521CDE91F0021910121FB
:10387000CDE9221024904FF08071269041F28832D9
:103880002A902D910221CDE92E10CDE93000684615
:103890001FA9FEF779FC00287FF400AF684632A923
:1038A00041F28832FEF764FF00287FF4F7AEBDF8DE
:1038B000C80040F20221084088427FF4EFAE0620A3
:1038C000219068461FA941F288320024CDE91F44A7
:1038D00001252494CDE9225426942A942D94CDE9EF
:1038E0003044FEF751FC00287FF4D8AE05201FA914
:1038F000CDE921054FF080702D90022041F28832F1
:10390000CDE92E0468462694CDE91F44CDE9234431
:103910002A94CDE93044FEF737FC00287FF4BEAE90
:1039200040F202201AA9CDE91A004FF480001D9040
:1039300010201E90684641F2883200251C95FEF743
:103940009BFB00287FF4AAAE21A9EB20012441F2C1
:10395000883231C14FF44070269006201FA9CDE96E
:10396000300568462495CDE91F454FF400562A9549
:10397000CDE927654FF040772D972F95FEF704FC92
:1039800000287FF48BAE21A902201F903220002551
:1039900041F2883231C14FF480701FA9CDE926066B
:1039A00068462095249528952A952D97CDE92F5581
:1039B0003195FEF7E9FB00287FF470AE082018A9C6
:1039C000CDE918056846FEF7FBFD33B0BDE8F08F82
:1039D00042F210703290329801383290FBD12DA90A
:1039E000052021904FF080700026012561C16846B6
:1039F0001FA941F288322496CDE91F66CDE92256EF
:103A000026962A96CDE93066FEF7BEFB00287FF4A5
:103A1000A8AD4FF480001D9010201E9068461AA992
:103A200041F288321C96CDE91A65FEF725FB002885
:103A30007FF497AD00209F21CDE91F002191012542
:103A4000CDE9225024904FF08071269041F28832C7
:103A50002A902D910321CDE92E10CDE93000684642
:103A60001FA9FEF791FB00287FF47BAD684632A9C1
:103A700041F28832FEF77CFE00284FF001057FF40A
:103A800070AD48F2C2013298C0F2390188427FF429
:103A900068AD00207121CDE91F00CDE92115CDE9E8
:103AA000230025904FF4807126914FF44051CDE9C9
:103AB00027102A904FF08071CDE92D15CDE92F0008
:103AC000319068461FA941F28832FEF75DFB00285D
:103AD0007FF447AD684632A941F28832FEF748FECE
:103AE00000284FF001057FF43CAD21A906200026F7
:103AF00041F2883261C168461FA9CDE91F6624964C
:103B000026962A962D96CDE93066FEF73DFB0028D5
:103B10007FF427AD2DA9052021904FF0807001255D
:103B200041F2883261C168461FA9CDE91F66CDE91F
:103B30002256249626962A96CDE93066FEF724FB77
:103B400000287FF40EAD02201AA9CDE91A004FF427
:103B500080001D9010201E90684641F28832002699
:103B60001C96FEF789FA00284FF001057FF4F9ACA6
:103B70009DF8C80021A941F288322A9600F0FC0085
:103B800002308DF8C800722061C12DA94FF48070F9
:103B900026904FF44050CDE927064FF0807061C168
:103BA00068461FA9CDE91F66CDE92466CDE93066D8
:103BB000FEF7EAFA00287FF4D4AC684632A941F255
:103BC0008832FEF771FE00284FF001057FF4C9AC82
:103BD000002047F28E11CDE91F002191042122918E
:103BE000102223920822CDE924204FF480622692ED
:103BF0004FF4405227924FF4006228922A904FF0DF
:103C00008062CDE92D25CDE92F014FF00050319094
:103C100068461FA941F28832FEF7B6FA00287FF401
:103C2000A0AC684632A941F28832FEF7A1FD002817
:103C30007FF496AC9DF8C80000F0030002287FF4E2
:103C40008FAC684601210125FEF71EFE00287FF497
:103C500088AC40F2F960219068461FA941F2883291
:103C60000026CDE91F664FF0040ACDF888A04FF07A
:103C7000100BCDF88CB00827249726964FF00059EA
:103C80002A962D963096CDF8C490FEF77DFA00283E
:103C90004FF001057FF465AC21A940F2FA5041F2E2
:103CA00088322A9681E8010C2DA94FF48060269075
:103CB0004FF4405027904FF4006028904FF0806000
:103CC00081E8610468461FA9CDE91F66CDE9247625
:103CD000CDF8C490FEF758FA00287FF442AC0220D9
:103CE0001AA9CDE91A004FF480001D90684641F2F0
:103CF000883200261C9610271E97FEF7BDF9002873
:103D00004FF001057FF42DAC4EF611602190042098
:103D10001FA9CDE92207082024904FF48060269047
:103D200014203090684641F28832CDE91F564FF496
:103D3000405727974FF40069CDF8A0902A964FF08E
:103D400080662D964FF0006ACDF8BCA04FF0005B66
:103D5000CDF8C4B0FEF718FA00287FF402AC26A90B
:103D600002201F9041F2ED2021900420229010208B
:103D70002390082024904FF4806081E881026846F7
:103D80001FA941F28832002520952A952D96CDE96C
:103D90002FA5CDF8C4B0FEF7F7F900287FF4E0AB0B
:103DA000082018A9CDE918056846FEF709FC054664
:103DB000002818BF0125FFF7D4BB00000000000059
:103DC00010B540F62C1441F20001C2F20044C4F2D6
:103DD0000021C4E9001000202061C4E902000C2188
:103DE000C4E90510C4E90700C4E90900204600F051
:103DF0004BF840F6DC010122C2F200412046BDE84A
:103E00001040AFF3008042F2210CC9F2000C604771
:103E100041F6194CC9F2000C60474BF6814CC9F2CF
:103E2000000C604744F6996CC9F2000C60474AF6F2
:103E3000B17CC9F2000C60474CF2592CC9F2000C5D
:103E400060474BF6094CC9F2000C604743F2117C05
:103E5000C9F2000C604743F6214CC9F2000C6047E0
:103E600043F2B13CC9F2000C604743F6794CC9F209
:103E7000000C60474CF2014CC9F2000C60474CF258
:103E8000714CC9F2000C604741F6B97CC9F2000CD4
:103E9000604702E008C8121F08C1002AFAD1704723
:103EA0007047002001E001C1121F002AFBD17047BA
:103EB00001020304060708090D0AD5FDB5E3D4ADD8
:103EC000D7D32048375237BFAAB7A2B0E520555301
:103ED00042D0E9C4E2B4AEBFDAA3A8536C61766500
:103EE000A3A9CAB5D1E90D0A00C7EBCAE4C8EBCA59
:103EF000FDBEDDA3ACD2D4BBD8B3B5BCFCBDE1CA1A
:103F0000F80D0A00403F00080000002440010000B6
:103F10003C0300084040000840010024203F060008
:103F2000A23E0008000000000000000000000000A9
:103F30000000000000000000000000000000000081
:103F40002FB9300090113300902133009051332E5F
:103F500090C9330090792F0090E93200902E90D0D4
:103F600003193200905930009089345290DDC930E5
:103F70000090A12F0090193000902F69310090110E
:103F8000310090C131009001313D9009024300029F
:103F90000100C03209042E010202010005240010B4
:103FA000010524012901042402020524064F01070A
:103FB00005820308001009040100020A3607050102
:103FC0000240460705810240450A060002434001BF
:103FD0002F890500908105009031050090A9052CDE
:103FE00090190600901201000202023C4083044036
:103FF00057000201020301071B040309041A0343CB
:10400000FFFF43C2012F080059C2009089C20090EF
:10401000C00F002444401F70423052202F80D3052F
:10402000240C4F7A7040780030C0F0B420C0F042C9
:1040300001821000000000000000000000000000ED
:0200000490006A
:100000002DE9F05F0546002092469B46884606464D
:10001000814640241BE0284641464746224600F0E0
:100020004CF853465A46C01A914110D3114618460F
:10003000224600F033F82D1A67EB01084F4622469E
:100040000120002100F02AF817EB00094E41201E84
:10005000A4F10104DFDC484631462A464346BDE8A8
:10006000F09F421C10F8011B0029FBD1801A704739
:1000700030B50B46014600202022012409E021FA78
:1000800002F59D4205D303FA02F5491B04FA02F575
:100090002844151EA2F10102F1DC30BD202A04DB48
:1000A000203A00FA02F1002070479140C2F120038B
:1000B00020FA03F3194390407047202A04DB203ACA
:1000C00021FA02F00021704721FA02F3D040C2F178
:1000D000200291400843194670472DE9FE4F8046A3
:1000E00081EA0300C00F0C46009021F0004123F08C
:1000F0000045B8EB0200A94105D240462146904692
:100100001C460B46024623F00040104347D0270D03
:10011000C7F30A00C3F30A510290401A0190402825
:100120006BDAC3F3130040F4801B0098924620B1B1
:100130000023D2EB030A63EB0B0B01985946C0F185
:1001400040025046FFF7AAFF06460D465046594664
:10015000019A00F07BF910EB08006141002487EA66
:10016000115284EAE7731A4340D0009A62B3019AAD
:10017000012A4FEA075215DC001B61EB02014FF028
:10018000004202EA0752CDE90042001C41F580110D
:1001900032462B4600F07BF903B0BDE8F08F4046B5
:1001A0002146F9E7001B61EB0201001C41F58013B9
:1001B00000185B412018A2F5001747EB030140EA45
:1001C000D570B6196D4111E06D084FEA360645EA63
:1001D000C0754FEA0752001B61EB0201001C41F59C
:1001E000801149084FEA30000019514132462B4630
:1001F00003B0BDE8F04F00F03BB900980122400089
:100200000023D0EB020263EBE073009821464FEA33
:10021000E074B8EB000061EB0401E9E783F0004310
:100220005BE781F0004158E72DE9FE4F81EA0304C6
:1002300004F0004421F0004100944FF0000B23F043
:10024000004350EA01045ED052EA03045BD0C3F3DA
:100250000A54C1F30A552C44A4F2F3340194A0FBD0
:100260000254C1F3130141F48011C3F3130343F4A7
:10027000801301FB024400FB034E840A970A44EA00
:10028000815447EA8357A4FB076802958D0A05FB52
:1002900007854FEA932C04FB0C542705029D4FEA77
:1002A000065847EA1637B5EB08056EEB070C870EC4
:1002B000920E47EA811742EA8312A7FB0201B6EBCE
:1002C0000B0164EB00042B0D43EA0C335E1844EB86
:1002D0001C50DA465146E7FB0201C5F313044FEA0E
:1002E0000B3343EA14534FEA0432019C43EA0603FA
:1002F000A4F10C040294009CCDE900B400F0C7F80E
:1003000003B0BDE8F08F00200146F9E72DE9F04D7C
:1003100081EA030404F0004B21F0004514464FF03D
:10032000000A23F0004150EA050220D054EA0102FD
:100330001DD0C5F30A570246C5F31303C1F31300DA
:10034000C1F30A5640F4801543F48013A7EB060866
:10035000101BD64608F2FD3873EB050002D308F1F6
:10036000010801E092185B41B8F1000F03DA0020A8
:100370000146BDE8F08D00204FF48011064684460A
:100380000EE0171B73EB050705D3121B63EB050388
:1003900006434CEA010C49084FEA300092185B41D1
:1003A00050EA0107EDD152EA030012D082EA0400BC
:1003B00083EA0501084305D0101BAB4106D2012298
:1003C000002306E000224FF0004302E06FF001023C
:1003D00053101AEB06004CEB085110EB0A0041EBEE
:1003E0000B01BDE8F04D00F043B8C1F30A52C1F370
:1003F000130140F2FF3341F480119A4202DA0020E7
:100400000146704740F233439A42A2F2334202DC83
:100410005242FFF752BEFFF741BE000030B5041E46
:1004200071F1000404DB4FF00044404264EB010131
:10043000141E73F1000405DB1C464FF000435242CA
:1004400063EB0403994208BF904230BD202A06DBCB
:10045000CB17203A41FA02F043EAE07306E041FA92
:1004600002F3D040C2F12002914008431946704780
:1004700010B5141E73F1000408DA401C41F10001AC
:1004800092185B411A4301D120F0010010BD2DE903
:10049000F04D92469B4611B1B1FA81F202E0B0FAFA
:1004A00080F220329046FFF7F9FD04460F4640EAFD
:1004B0000A0041EA0B0153465A46084313D011463D
:1004C00053EA010019D0C8F140025046FFF7F5FD8C
:1004D00005460E46504659464246FFF7DFFD0843A3
:1004E00005D0012004E020463946BDE8F08D00200B
:1004F000054346EAE0762C4337430A986305E40A4D
:10050000A0EB08000022FD0A44EA47540A3002D555
:1005100000200146E9E7010510196941DDE90845B8
:1005200000196941BDE8F04DA2E70000000000009D
:1005300021280FD0202820D140F2F4020868C2F20E
:100540000042106008791071487950718879907173
:100550000020704740F2F400C2F2004002680A70C6
:100560000268120A4A7042888A70C278CA70027998
:100570000A7142794A7180798871002070470000C1
:10058000002070470000000080B540F6204040F693
:100590005331C2F20040C2F2004102F055FF002088
:1005A00080BD000000000000B0B5044640F62040C9
:1005B000C2F200400D4602F0E3FE286850B340F658
:1005C0001C4148F2000CC2F200414FF0000ECFF681
:1005D000FF7C0A880CE000BF0A2B4FF0000308BF25
:1005E00042EA0C031A460A80013804F1010411D0D2
:1005F00013B2002BF8D495B22378BEEB953FEBD124
:100600000D2B02D142F48042EDE70132C62D88BFA6
:100610000022E8E70020B0BD40F61E410020C2F2F3
:10062000004100220A707047B3F5804F034618D18D
:10063000B0B5002053F822C0CCF6F0708D680CEAFB
:10064000000C8C69D1E9000E40EA0C00C96840EA50
:100650000E1040EA0520204340EA0141BDE8B040C9
:1006600001E06FF07041002043F822107047000055
:10067000B0B50A6850F8223023F0010340F8223068
:10068000D1F808E0CB68D1E900C2BEF1080F08BF7D
:1006900042F04002D1E904451A438B692243CC69F8
:1006A0002A430D6A1A434B6A22438C6A2A43CD6A55
:1006B0001A430B6B22434C6B2A438D6B1A4350F841
:1006C0002C30224340F28044CFF6C0742A432340AA
:1006D0001A4342EA0E0240F82C200A6BB2F5801F42
:1006E00005D10A681AB1026842F4801202600A68F1
:1006F0001AB1496B0268114301600020B0BD0000CF
:1007000070B5D1E900CED1E902564CEA0E130C695E
:1007100040F2000C43EA0523CFF6F07C43EA06469C
:100720004D690CEB04548B692643FE3500EB8202C5
:10073000334343EA056353600268D20209D5426835
:10074000096943681A430CEB015122F4700211430A
:100750004160002070BD0000B0B504460BF0AAFE59
:100760002CB3054694F85400022822D12068416930
:1007700041F004014161052084F8540021680869B2
:1007800080041AD40BF096FE401B0628F6D3A06D09
:1007900040F01000A065032084F8540094F8500045
:1007A00000064FF001001ED5616F08731BE00120A9
:1007B000B0BD2020A065012015E04869012240F06D
:1007C00002004861042084F854004FF4FE40C860E1
:1007D00084F8542094F8500000064FF0000002D531
:1007E000636F1A738864002184F84C10B0BD000058
:1007F00080B190F8541002290AD1042180F85410D5
:10080000006842F2040241691143416100207047CF
:10081000202181650120704790F8A030012B4FF016
:10082000020331D02DE9F04134244FF0010880F863
:10083000A08080F8A13002FB0403D1E900CED1E909
:100840000267D1E90445C3E91245C3E91067C3E96A
:100850000ECED1E906CED1E90854D1E90A76C3E932
:100860001876C3E91654C3E914CE0F6B9F6604468D
:1008700001F00AFC20680023C0F8248084F8A180DD
:1008800084F8A030BDE8F041184670470000000031
:1008900078B3B0B504460068D0F8841021F00101A7
:1008A000C0F88410D0F8041121F00101C0F804113F
:1008B000416A41F0020141620BF0FCFD054600BFB8
:1008C0002068806C400704D40BF0F4FD401B6528C1
:1008D000F6D32068816921F001018161204600F092
:1008E0007FF80020C4F8A40084F8A10084F8A000D8
:1008F000B0BD01207047000000286CD010B590F802
:10090000A11031B9002180F8A010044600F06CF865
:100910002046022180F8A110D0E9001CD0E9023461
:100920008A6922F070428A6143EA0C020369224319
:100930001A438B691A438A614FF600038A68CFF223
:1009400000031A408A60D0E9052444EA02428C6818
:1009500022438A60CA681A40CA60D0E9072444EA80
:100960000242CC682243CA600A691A400A61D0E98F
:10097000092444EA02420C6922430A614A691A4086
:100980004A61D0E90B2343EA02424B691A434A61A8
:1009900090F8352090F83630CC6A04F07F44CC6271
:1009A0001B0490F8344043EA0222CB6A22441A43E3
:1009B000CA624A6B42F006024A638A6942F0010247
:1009C0008A610021C0F8A410012280F8A120BDE8AE
:1009D00010400846704701207047000000000000EA
:1009E00070470000000000002DE9F04F87B041F291
:1009F00000020068C5F20002002190420691CDE994
:100A000004110391029102D007B0BDE8F08F44F2C7
:100A1000405040F20009C5F60200C5F6020902ADD9
:100A20004FF0020B42684FF4805442F002024260E1
:100A300042680192019A50F80C2C42F0020240F8F0
:100A40000C2C50F80C2C0192019A026842F008021A
:100A5000026002680192019A026842F00802026094
:100A600002680192019A026842F010020260026874
:100A70000192019A026842F040020260026801920B
:100A8000019A026842F00102026002680192019A32
:100A9000026842F00102026002680192019A026853
:100AA00042F00202026002680192019A026842F07A
:100AB000400202600068019001984FF4805002905B
:100AC0000E20CDE903B1069009F540602946CDF826
:100AD00014B04FF00E080BF0F2FC4FF400600290DF
:100AE0000B20069009F5805029460BF0E8FC09F52B
:100AF000C0572946384602940D2406940BF0DFFCBB
:100B00004846294620260296CDF818800BF0D7FCDF
:100B1000029609F58066304629464FF00A08CDF85E
:100B200018800BF0CCFC1020029030462946069429
:100B30000BF0C5FC082002903046294606940BF0C5
:100B4000BEFC4FF4004002904846294606940BF044
:100B5000B6FC38462946CDF808B006940BF0AFFC39
:100B6000384629464FF0010ACDF808A006940BF04C
:100B7000A6FC48462946CDF808B006940BF09FFC29
:100B800048462946CDF808A006940BF098FC4FF48F
:100B90000050029030462946CDF818800BF08FFCAB
:100BA000304629464FF48058CDF8088006940BF063
:100BB00086FC304629464FF4006ACDF808A006941A
:100BC0000BF07DFC304629464FF48067029706946F
:100BD0000BF075FC48462946CDF8088006940BF0CA
:100BE0006EFC48462946CDF808A006940BF067FC39
:100BF0004846294602970E2606960BF060FC4FF4F5
:100C0000007002904846294606960BF058FC4FF4B7
:100C1000807002904846294606940BF050FC042050
:100C200002904846294606940BF049FC07B0BDE8FF
:100C3000F08F00000000000070B590F8A0404FF069
:100C4000020C012C1ED03424012603FB040E80F874
:100C5000A06080F8A1C04EF8381FDEE90A452144A3
:100C60000446CEE90112A918CEF80C1071461A46B6
:100C700001F00AFA20684FF0000C466284F8A16087
:100C800084F8A0C0604670BDB0B590F8A0404FF0A9
:100C9000020C012C20D03424012503FB040E80F823
:100CA000A05080F8A1C05EF8384F0C44CEF8044044
:100CB000DEF808401444CEF80C40CEE90A12714622
:100CC0001A46044601F0E0F920684FF0000C456236
:100CD00084F8A15084F8A0C06046B0BD00000000B8
:100CE00001680122C0F8D824002280F8CC24886949
:100CF00040F000608861486D40F08052002042F072
:100D000003024A65704700007047000000000000C1
:100D10000268002051627047B0B5D0F800E0DEF8FC
:100D20002400D1B1DEF82830B1F1010C00EB1343FF
:100D30000BD05FFA8CF10EF58070002450F8045F40
:100D400001348C4203EB1543F8D30EEB8C0043EADD
:100D50000241C0F804110020B0BD40EA0240CEF8C4
:100D600028000020B0BD000040F68A21D0F8E00441
:100D7000C2F2004101220A7002F09ABD0000000098
:100D800001EBC10200EB8202D0F8E004126A02F02B
:100D9000FBBC00000000000001EBC10200EB82027E
:100DA000D0F8E004D2F8602202F046BD0000000056
:100DB00040F68A21D0F8E004C2F2004100220A7015
:100DC00002F07ABD0000000010B501F00F0E0A46D7
:100DD0004FFA82FCD2090EEBCE01BCF1000F00EB02
:100DE000810303F5157148BF03F1140190F89434A1
:100DF0004A70012B81F800E001D1022010BD0122D0
:100E000080F8942402680446104603F0A9FA0020F2
:100E100084F8940410BD0000B0B5037901F00F020E
:100E20009A4201D90120B0BD4CB202EBC2038C46FC
:100E3000002C00EB830303F515714FEADC1448BF67
:100E400003F1140190F894344C700024012B8C7041
:100E50000A7001D10220B0BD012280F894240268FA
:100E60000546104603F030FC204685F89444B0BD9A
:100E700001F00F0101EBC10100EB8100D0F8680225
:100E80007047000000000000B0B501F00F0E8C4666
:100E90004FFA8CF40EEBCE01002C00EB810505F52A
:100EA000157148BF05F114015FEADC154D7081F83A
:100EB00000E08A600B7118BFA1F81AE0022B01D183
:100EC00000224A7190F89424012A01D10220B0BD79
:100ED000012280F8942402680446104603F06CF95D
:100EE000002084F89404B0BD80B501F00F0C0CEB29
:100EF000CC0100EB810E0021CEE998238379CEF856
:100F000068128EF855120EF51571012B8EF854C229
:100F100008BFCA6100681A4603F01EFC002080BDAD
:100F2000B0B5027901F00F0494424FF001022CD8C1
:100F30004FFA81FC01EBC10304EBC405BCF1000FC7
:100F400000EB830303F5157300EB850548BF05F13E
:100F5000140390F89454C9095970012D9A701C70AB
:100F600001D10220B0BD012180F89414054600682B
:100F7000194603F0D1FB2CB9A979286805F29C42E7
:100F800003F072FB002285F894241046B0BD0000E7
:100F900080B501F00F0C90F806E00CEBCC01BEF12F
:100FA000010F00EB810101F814CF4FF0000C0B6131
:100FB0004FF00103CA60C1F814C04B7008BFCA618A
:100FC0000068724603F0C8FB002080BD00000000EE
:100FD0002DE9F04F87B005688246284603F038FDBA
:100FE00010B107B0BDE8F08FDAF8000003F060FD43
:100FF0000028F6D0D5F80808C0F30D20CAF8D404AC
:10100000DAF8000003F054FD800705D5DAF8000097
:10101000416901F00201416105F500600590DAF8CF
:10102000000003F045FDC006069536D5DAF800004D
:10103000816921F0100181612C6A04F00F0000EB3E
:10104000C001C4F343400AEB8101062801F5157580
:1010500011D002281AD147F6F07014EA000615D014
:101060003409E9680698224603F026FDE86800EB9B
:101070001610E86007E00AF29C410822069803F087
:101080001BFDC4F30A14686920446861DAF80000A3
:10109000816941F010018161069DDAF8000003F0DA
:1010A00007FD000340F1F280DAF8000003F0DCFCF9
:1010B000002800F0EB8006464FF4306800244FF023
:1010C000000B0AF29C40049009E000BF0BF1010BF9
:1010D000760808F1200804F1240400F0D780F00716
:1010E000F4D05FFA8BF9DAF80000494603F0D8FC37
:1010F0000746C0075FD005EB080001218160DAF8E0
:10110000000008EB0001036C8A689AF80650012D74
:1011100025D1150732D4950600F1B08043F20B05B6
:10112000C4F65475AB42069D02D312F400422FD18F
:101130000AEB0402D2F8743209696FF3DF41A3EBC2
:101140000101C2F8681294BBD2F86432002B00F09F
:101150009B80D2F860020844C2F8600227E043F2A4
:101160000B05C4F65475FF35AB4217D11004069D2C
:101170000ED490061BD52020886018E043F20B00A7
:10118000069DC4F65470834215D312F4004012D069
:101190004FF40040886038070FD437E0069D34B91B
:1011A000DAF8641219B90021049A03F05DFA504686
:1011B0004946FFF7F1FD380728D505EB080008215F
:1011C000816043F20B01DAF80000C4F65471056C3B
:1011D00040448D42816805D311F400411CBF4FF497
:1011E00000418160504600F0FBFB43F20B00C4F667
:1011F00054708542069D09D39AF80600012805D14E
:10120000DAF800000121049A03F02EFAF80607D458
:10121000B8070BD4B80624D4B8047FF557AF27E03D
:1012200005EB080010218160B807F3D56869000656
:1012300004D50599486840F4806048600AEB0400D2
:1012400090F85712012906D1002180F85712504614
:10125000494600F0ADFA05EB080002218160B806AE
:10126000DAD505EB080020218160B8047FF52EAFA8
:1012700005EB08004FF40051816027E720208860CB
:10128000069D380799D4C1E701218DE7DAF80000FF
:1012900003F00EFC400340F1DC80DAF8000003F0BC
:1012A000DBFB002800F0D5800646069800F51069A3
:1012B0000AF1140B00270AF29C400290CDE903B911
:1012C00005E000BF760807F1010700F0C280F007D3
:1012D000F8D0FDB2DAF80000294603F0CDFB044651
:1012E000C0070BD1200733D4E00637D460063BD4C7
:1012F000A0073FD42006E5D555E000BF059B07F0C9
:101300000F004FF0010C09EB47120CFA00F0596B7B
:1013100021EA00005863C2F808C09AF806000128C4
:1013200010D107EBC7000BEB8000D0E9021211448B
:10133000C1603FB9006928B9DAF800000121029ABA
:1013400003F092F950462946FFF71AFD2007CBD546
:1013500009EB471008218160E006C7D509EB47106B
:10136000102181606006C3D509EB471040218160E0
:10137000A007BFD50698394603F036FB07EBC70038
:101380000BEB800010F8031F012905D1002101702B
:101390005046294600F008FA09EB47100221816007
:1013A00020067FF58FAF07EBC7000BEB8008D8E96D
:1013B00004108142FFF486AFDAF80040081AD8F82A
:1013C0000810884238BF014604EB47100331D0F8BB
:1013D000182992B2B2EB910F28D300F5106900BF23
:1013E000D8E90410814221D9081A9AF80620D8E9D0
:1013F00002B1584538BF8346009220461FFA8BF34E
:101400002A4603F04DFCD8F80C00D8F814105844C4
:10141000C8F80C0001EB0B00C8F814000BF1030036
:10142000D9F8181089B2B1EB900FD9D2D8E90401DC
:101430008842DDE903B93FF645AF07F00F0001210F
:1014400001FA00F0D4F8341821EA0000C4F8340896
:1014500038E7DAF8000003F02BFBB0F1FF3F069C01
:1014600019DC0599486820F0010048609AF8CC041E
:10147000012807D100208AF8CC0400215046FFF74C
:1014800043FC02E0504600F077FADAF800004169C8
:1014900001F000414161DAF8000003F009FB0005AA
:1014A0000CD505988068C00702D0504600F0C0FAFD
:1014B000DAF80000416901F400614161DAF80000E6
:1014C00003F0F6FA000117D5DAF80000416901F0DF
:1014D000006141619AF8CC1419B1504600F0A8FAA5
:1014E0000AE001218AF8CC14406DC0F38300CAF8E9
:1014F000D0045046FFF708FCDAF8000003F0D8FAF1
:10150000C00453D50599486820F001004860DAF816
:101510000000102103F068FA9AF80400D8B104F52D
:1015200010614FF67F3200BF8A6001380B6823F4E8
:1015300000130B60C1F80822D1F8003223F4001325
:10154000C1F80032D1F8003243F00063C1F8003234
:1015500001F12001E8D1059F84214422F86940F07F
:101560000110F8619AF80F0000284FF00B0008BF37
:10157000142104BF42F22B0010227B5818437850EC
:10158000B85840F00B00B85038680AF29C4220F47A
:10159000FE6038609AF80610DAF8000003F064F88C
:1015A000DAF80000416901F480514161DAF8000085
:1015B00003F07EFA80041CD5DAF8000002F040FE49
:1015C000DAF8000003F034FA8AF80700DAF800408D
:1015D0000AF07AFF9AF807200146204603F0D8FA6D
:1015E000504600F0B9F9DAF80000416901F4005101
:1015F0004161DAF8000003F05BFA000708D55046B5
:1016000000F0D6F9DAF80000416901F00801416103
:10161000DAF8000003F04CFA00062AD5069988692A
:1016200020F0800088619AF80400022821D30AF58E
:1016300015740AF11405012640F27B2706E000BF6D
:101640009AF8040001362437864212D21AF80700AD
:101650000128F5D106F00F00320600EBC00005EBC3
:10166000800158BF04EB8001DAF8000003F06CF948
:10167000E6E7DAF8000003F01BFAC0022FD59AF86B
:101680000400022825D306980AF1140400F5126517
:101690000AF13B064FF00108012706E09AF8040022
:1016A000013720352436874213D228687178012902
:1016B000F4D1B0F1FF3FF1DC07F00F0086F80080B5
:1016C00000EBC00004EB8001DAF8000003F03CF905
:1016D000E4E7DAF80000416901F480114161DAF8C9
:1016E000000003F0E5F9800235D59AF80410069D54
:1016F00002292AD305F5326001390AF51F72012348
:1017000006E000BF013900F1200002F124021CD0E4
:1017100007681678012EF5D1B7F1FF3FF2DCDAF851
:10172000D46407F4803706F00106B742EAD102F824
:10173000013CAF6947F08007AF616F693F06E1D4B4
:101740000599486840F400704860DAF80000416983
:1017500001F400114161DAF8000003F0A9F940003A
:1017600008D55046FFF700FBDAF80000416901F0A8
:1017700080414161DAF8000003F09AF940077FF5F3
:1017800030ACDAF800004468600702D55046FFF735
:101790000FFBDAF8000041682143416007B0BDE863
:1017A000F08F000000000000D0F8E00402F0F4B870
:1017B000D0F8E00402F008B9002866D0B0B582B0D5
:1017C0000446056890F8950428B9002084F894042C
:1017D000204600F06DF80020C4F2080085424FF06A
:1017E000030084F8950401D10020A071206802F064
:1017F00033FFD4E90001257CD4E90223009502F0EF
:101800002FFDE0BB2068002103F07AF9B8BB2079F6
:1018100060B300EBC000002180004FF0010C0023FA
:10182000002200BFE518243398422A75EA8502F1A8
:10183000010285F815C02976E96129626962F1D152
:1018400000210022002300BFA5182432904285F811
:10185000543203F1010385F8551285F85812C5F882
:101860005C12C5F86012C5F86412EDD1D4E900012C
:10187000257CD4E90223009502F0D2FD38B1022084
:1018800084F89504012002B0B0BD0120704700200B
:101890006074012084F89504207B012802D1204641
:1018A000FFF71EFA206802F0ABFD002002B0B0BDC9
:1018B000B0B5A8B0044607A884210AF00AFE0021AA
:1018C0002068C4F20401002588420695CDE904553C
:1018D0000395029501D028B0B0BD0AF0FFFD4FF08E
:1018E0008040079007A824950AF0FDFD0AF000FE4D
:1018F00044F23850C5F60200016841F00071016001
:10190000016801910199016841F0806101600168FD
:1019100001910199816841F4805181608068019052
:101920000198602002900220CDE903050320059074
:101930000A20069043F2000002A9C5F602000AF050
:10194000BEFD5B20002100220AF0D7FD5B200AF0DB
:10195000D9FD28B0B0BD000010B5C17904460029FA
:1019600018BF0121D0F8E00402F0BAF8D4F8E0047E
:10197000BDE8104002F068B810B50446C07A48B11E
:101980000AF0C5FD4EF61050CEF20000016821F0BD
:10199000060101602068D0F8001E21F00101C0F8A6
:1019A000001ED4F8E004BDE8104002F07DB800004D
:1019B000D0F8E00402F084B890F89424012A01D110
:1019C0000220704710B5012280F894244174044627
:1019D0000268104603F0C8F8002084F8940410BD93
:1019E000D0F8E02400F29C41104602F091B80000CB
:1019F00010B5044690F89404012801D1022010BDCE
:101A00002068012184F89414C168490606D5617BD9
:101A1000012903D1816B41F48031816302F0DCFF45
:101A2000206802F0DDFC002084F8940410BD000062
:101A300010B5044640F68A20C2F200400021017031
:101A4000D4F8E00402F0BCF82068D0F8001E41F0A1
:101A50000101C0F8001EE07A002808BF10BD0AF09E
:101A60005BFD4EF61050CEF20000016841F0060119
:101A7000016010BD0000000088B370B5044690F806
:101A8000450015460E4628B9002084F8440020463B
