:020000040800F2
:10000000E0530624C5020008113C0008013C00082A
:10001000093C00084103000881420008000000007C
:10002000000000000000000000000000611B0090C4
:100030004903000800000000F11A00902142000866
:10004000DF02000800000000DF020008DF020008F5
:10005000DF020008DF0200080000000000000000CE
:10006000DF020008DF020008DF02000800000000D5
:1000700000000000DF020008000000000000000097
:10008000DF020008DF020008DF020008DF020008CC
:10009000DF020008DF020008DF020008DF020008BC
:1000A000DF020008DF020008DF020008DF020008AC
:1000B000DF020008DF020008DF020008DF0200089C
:1000C000DF0200080000000000000000DF0200085E
:1000D000DF020008DF020008DF020008DF0200087C
:1000E000DF020008DF020008DF020008DF0200086C
:1000F000DF020008DF020008DF020008DF0200085C
:10010000DF020008DF020008DF020008DF0200084B
:10011000DF020008DF020008DF020008DF0200083B
:10012000DF020008DF020008DF020008DF0200082B
:10013000DF020008DF020008DF020008DF0200081B
:10014000DF020008DF020008DF020008DF0200080B
:10015000DF020008DF020008DF020008DF020008FB
:10016000DF020008DF020008DF020008DF020008EB
:10017000DF020008DF020008DF020008DF020008DB
:10018000DF020008DF02000871420008DF020008F9
:10019000DF020008DF020008DF020008DF020008BB
:1001A000DF020008DF020008DF020008DF020008AB
:1001B000DF020008DF020008DF020008DF0200089B
:1001C000DF020008DF020008DF020008DF0200088B
:1001D000DF020008DF02000800000000000000004D
:1001E00000000000DF020008DF020008DF02000854
:1001F000DF020008DF02000800000000000000002D
:10020000DF020008DF020008DF020008DF0200084A
:10021000DF020008DF020008DF020008DF0200083A
:10022000DF020008DF020008DF020008DF0200082A
:10023000DF020008DF020008DF020008DF0200081A
:10024000DF020008DF020008DF020008DF0200080A
:10025000DF020008DF020008DF020008DF020008FA
:10026000DF020008DF020008DF020008DF020008EA
:10027000DF020008DF020008DF020008DF020008DA
:10028000DF020008DF020008DF020008DF020008CA
:10029000DF020008DF020008DF020008DF020008BA
:1002A000DF020008DF020008DF020008DF020008AA
:1002B000DFF80CD000F02AF8004800471149000888
:1002C000E05306240648804706480047FEE7FEE75D
:1002D000FEE7FEE7FEE7FEE7FEE7FEE7FEE7FEE7F6
:1002E00049420008B1020008D2B201E000F8012B37
:1002F000491EFBD270470022F6E710B513460A46A6
:1003000004461946FFF7F0FF204610BD1CB509480A
:100310000090094801900546009C06E0E06840F026
:10032000010394E8070098471034AC42F6D3FFF776
:10033000C3FF0000585B0008785B00080000000065
:10034000FFE7FEE70000000070470000000000002B
:1003500080B582B0019001984FF47A71484304F05F
:1003600077FA02B080BD000085B0049003910020B0
:100370000290FFE703980299C840002800F094809B
:10038000FFE70398029A01219140084001900198EB
:10039000002800F08580FFE7029820F0030040F27B
:1003A0003051C5F6000140580090029800F003005B
:1003B00081000F2000FA01F1009808400090009899
:1003C00004994FF60042CAF2FD721140890A029A5E
:1003D00002F003029200914088422ED1FFE7019A79
:1003E0008021C5F60001086890430860019A8421C5
:1003F000C5F60001086890430860019A0421C5F61B
:100400000001086890430860019A4FF0B041086805
:1004100090430860029800F0030081000F2088409C
:100420000090009B029820F0030140F23052C5F684
:100430000002885898438850FFE702984100032043
:1004400000FA01F3049A116819431160DDF808C03D
:100450000CF007018A000F2101FA02F304996FF0F2
:10046000030202EA5C020A44116A9943116202998A
:10047000490000FA01F3049A916899439160029A45
:10048000012101FA02F3049A5168994351600299DB
:10049000490000FA01F20499C8689043C860FFE778
:1004A00002980130029065E705B070470000000037
:1004B00085B00490039100200290FFE70398006844
:1004C0000299C840002800F04581FFE703980068C2
:1004D000029A01219140084001900198002800F003
:1004E0003581FFE70398406800F00300012807D03A
:1004F000FFE70398406800F0030002282FD1FFE7D0
:1005000004988068009002984100032000FA01F1ED
:100510000098884300900398C0680299490000FA47
:1005200001F10098084300900098049988600498AD
:10053000406800900299012000FA01F10098884378
:10054000009003984068C0F30010029900FA01F18E
:10055000009808430090009804994860FFE70398CA
:10056000406800F00300032818D0FFE70498C06833
:10057000009002984100032000FA01F1009888439E
:100580000090039880680299490000FA01F10098F0
:100590000843009000980499C860FFE703984068FA
:1005A00000F00300022826D1FFE7049802996FF0BB
:1005B000030202EA51010844006A0090029800F028
:1005C000070081000F2000FA01F100988843009095
:1005D00003980069029901F00701890000FA01F10E
:1005E00000980843009000980499029B02EA530285
:1005F00011440862FFE704980068009002984100E7
:10060000032000FA01F100988843009003984068A5
:1006100000F003000299490000FA01F10098084334
:10062000009000980499086003988079800700285A
:1006300000F08B80FFE7029820F0030040F2305278
:10064000C5F6000280580090029800F00300810077
:100650000F2000FA01F100988843009004984FF6AB
:100660000041CAF2FD710840800A029901F00301BD
:10067000890000FA01F1009808430090009802995F
:1006800021F0030188504FF0B040006800900199BC
:1006900000988843009003988079C006002805D50B
:1006A000FFE70199009808430090FFE700984FF09A
:1006B000B04108600420C5F6000000680090019970
:1006C000009888430090039880798006002805D51B
:1006D000FFE70199009808430090FFE70098042184
:1006E000C5F6000108608420C5F60000006800908F
:1006F000019900988843009003988079800700282A
:1007000005D5FFE70199009808430090FFE700989E
:100710008421C5F6000108608020C5F6000000684D
:100720000090019900988843009003988079C00751
:1007300028B1FFE70199009808430090FFE700986F
:100740008021C5F600010860FFE7FFE7029801304D
:100750000290B3E605B0704782B00190ADF8021088
:1007600001980069BDF80210084204D0FFE701209B
:100770008DF8010003E000208DF80100FFE79DF8EF
:10078000010002B07047000083B00290ADF806107F
:10079000029840690090009ABDF8060002EA000144
:1007A000904340EA01400299886103B0704700001D
:1007B00082B00190ADF802108DF801209DF8010083
:1007C00028B1FFE7BDF802000199886104E0BDF897
:1007D000020001998862FFE702B070470000000044
:1007E00044F6BC60C2F2064000687047000000009A
:1007F00040F25C00C2F20040027844F6BC61C2F2F2
:1008000006410868104408607047000000000000BE
:1008100080B582B000208DF80700032000F0F4F8C6
:100820000F2000F00DF820B1FFE701208DF8070040
:1008300002E000F0C1F8FFE79DF8070002B080BDBC
:1008400080B582B0019000208DF8030040F25C007A
:10085000C2F20040007878B3FFE740F20400C2F231
:100860000040006840F25C01C2F200410A784FF497
:100870007A71B1FBF2F1B0FBF1F002F031FAB0B9EC
:10088000FFE701980F280DD8FFE701994FF0FF30DF
:10089000002200F0A1F8019840F26001C2F200418C
:1008A000086003E001208DF80300FFE703E001206A
:1008B0008DF80300FFE703E001208DF80300FFE758
:1008C0009DF8030002B080BD10B581B00090009883
:1008D00040784EF69851CEF2000108604EF6A051D5
:1008E000CEF20001086820F001000860086820F0DE
:1008F00001000860009840684EF69C52CEF200025B
:100900001060DDF800E09EF80C0000079EF80B2058
:1009100040EA02609EF800209EF808309EF809C068
:100920009EF80A4040EAC4409EF80D4040EA8440E8
:100930009EF80E4040EA44409EF80FE040EA0E4028
:1009400040EA0C2040EA43001043086001B010BDAB
:10095000BFF35F8F4EF62451CEF20001086820F4F9
:10096000803008604EF69451CEF2000100200860FD
:10097000BFF34F8FBFF36F8F704700000000000080
:1009800081B00090BFF35F8F009840F001004EF6F9
:100990009451CEF2000108604EF62451CEF20001CF
:1009A000086840F480300860BFF34F8FBFF36F8F4B
:1009B00001B0704700000000704700000000000018
:1009C00080B582B0ADF80600BDF9060003F098FED0
:1009D00002B080BD0000000080B586B0ADF8160002
:1009E0000491039203F0A4FE0290BDF91600019059
:1009F00002980499039A03F00FF90146019803F055
:100A00009FFE06B080BD000080B582B001900198C5
:100A100003F0BAFE02B080BD80B584B0029044F607
:100A20000C00C5F60200006800F00700062813D08D
:100A3000FFE744F60C00C5F60200006800F01F0056
:100A40000299884204D0FFE701208DF80F004EE0A4
:100A500000208DF80F004AE044F60C01C5F60201B3
:100A6000086820F01F00029A10430860FFF7B8FEE4
:100A70000190FFE744F60400C5F602000068800715
:100A800000280DD4FFE7FFF7ABFE0199401AB0F53F
:100A90007A7F04D9FFE701208DF80F0027E0E9E70E
:100AA00002981E2804D0FFE702981D281BD1FFE7FB
:100AB000FFF796FE0190FFE744F60C00C5F6020032
:100AC0000068C00300280DD4FFE7FFF789FE0199F5
:100AD000401AB0F57A7F04D9FFE701208DF80F00A6
:100AE00005E0E9E7FFE700208DF80F00FFE79DF83C
:100AF0000F0004B080BD000080B584B0029044F6C1
:100B00001401C5F60201086820F00100029A1043A2
:100B10000860FFF765FE0190FFE744F61400C5F694
:100B200002000068800700280DD4FFE7FFF758FE99
:100B30000199401AB0F57A7F04D9FFE701208DF8BA
:100B40000F0004E0E9E700208DF80F00FFE79DF8B3
:100B50000F0004B080BD000080B582B044F60C01E7
:100B6000C5F60201086840F080700860FFF738FEA3
:100B70000090FFE744F60C00C5F602000068400153
:100B800000280DD4FFE7FFF72BFE0099401AB0F5BF
:100B90007A7F04D9FFE701208DF8070004E0E9E738
:100BA00000208DF80700FFE79DF8070002B080BD28
:100BB00044F60C01C5F60201086840F48040086064
:100BC000704700000000000044F60C01C5F6020169
:100BD000086840F400400860704700000000000012
:100BE00080B5A0B01E9000208DF86F008DF86E00CB
:100BF0001E9880784007002840F1A580FFE744F266
:100C00007040C5F60200006800F440701D901D9809
:100C100068B3FFE71D981E99C96F01F440718842BF
:100C200025D0FFE744F60000C5F60200016841F454
:100C3000807101600068C005002804D4FFE701202E
:100C40008DF86F0012E044F27041C5F602010868A9
:100C500020F440701D90086840F4803008600868F7
:100C600020F4803008601D980860FFE7FFE79DF8DA
:100C70006F00002861D1FFE71E98C06FB0F5807F3C
:100C80001CD1FFE7FFF7ACFD1C90FFE744F270407A
:100C9000C5F602000068800700280ED4FFE7FFF7C2
:100CA0009FFD1C99401A41F28931884204D3FFE725
:100CB00003208DF86F0000E0E8E7FFE79DF86F0084
:100CC000A8BBFFE7FFE71E98C06F10F47C3F10D071
:100CD000FFE744F21041C5F60201086820F47C5099
:100CE0001E9AD26F40F20F339A4340EA1210086006
:100CF00008E044F21041C5F60201086820F47C5077
:100D00000860FFE71E98C06F00F4407244F2704123
:100D1000C5F60201086810430860FFE744F270411D
:100D2000C5F60201086840F40040086004E09DF840
:100D30006F008DF86E00FFE704E09DF86F008DF8FE
:100D40006E00FFE7FFE71E980078C007002838D044
:100D5000FFE71E9840681A90032818D81A99DFE810
:100D600001F002030C1516E044F22C41C5F6020115
:100D7000086840F0400008600DE044F22C41C5F6E0
:100D80000201086840F48020086004E003E00120CC
:100D90008DF86F00FFE79DF86F0060B9FFE744F240
:100DA0004C41C5F60201086820F003001E9A526803
:100DB0001043086004E09DF86F008DF86E00FFE7B7
:100DC000FFE71E980078800700283AD5FFE71E98B5
:100DD0008068199040B1FFE71998102805D0FFE707
:100DE000199820280AD012E015E044F22C41C5F6EB
:100DF0000201086840F4002008600CE044F22C4135
:100E0000C5F60201086840F48010086003E0012084
:100E10008DF86F00FFE79DF86F0060B9FFE744F2BF
:100E20004C41C5F60201086820F030001E9A926815
:100E30001043086004E09DF86F008DF86E00FFE736
:100E4000FFE71E980078400700283AD5FFE71E9874
:100E5000C068189040B1FFE71898402805D0FFE718
:100E6000189880280AD012E015E044F22C41C5F60B
:100E70000201086840F4002008600CE044F22C41B4
:100E8000C5F60201086840F48010086003E0012004
:100E90008DF86F00FFE79DF86F0060B9FFE744F23F
:100EA0004C41C5F60201086820F0C0001E9AD268C5
:100EB0001043086004E09DF86F008DF86E00FFE7B6
:100EC000FFE71E980078000700280CD5FFE744F2E2
:100ED0004C41C5F60201086820F040501E9A126984
:100EE00010430860FFE71E9880788006002835D5FB
:100EF000FFE71E98406D179020B1FFE71798042870
:100F000009D011E044F22C41C5F60201086840F412
:100F1000002008600CE044F22C41C5F6020108688C
:100F200040F48010086003E001208DF86F00FFE7B7
:100F30009DF86F0060B9FFE744F24C41C5F602012D
:100F4000086820F004001E9A526D1043086004E007
:100F50009DF86F008DF86E00FFE7FFE71E980078A0
:100F6000C00600283CD5FFE71E984069169050B196
:100F7000FFE71698B0F1807F0ED0FFE71698B0F12A
:100F8000007F12D012E044F22C41C5F6020108683D
:100F900040F4803008600DE044F22C41C5F60201B7
:100FA000086840F00050086004E003E001208DF87C
:100FB0006F00FFE79DF86F0060B9FFE744F24C4116
:100FC000C5F60201086820F040701E9A526910436D
:100FD000086004E09DF86F008DF86E00FFE7FFE702
:100FE0001E980078800600284BD5FFE71E98806980
:100FF000159058B3FFE71598B0F5801F14D0FFE7A0
:101000001598B0F5001F18D0FFE71598B0F5401FF0
:101010001CD0FFE71598B0F5800F17D0FFE71598A3
:10102000B0F5A00F12D012E044F22C41C5F6020137
:10103000086840F4803008600DE044F22C41C5F6A9
:101040000201086840F00060086004E003E001204D
:101050008DF86F00FFE79DF86F0060B9FFE744F27D
:101060004C41C5F60201086820F4E0001E9A92691E
:101070001043086004E09DF86F008DF86E00FFE7F4
:10108000FFE71E980078400600280CD5FFE744F2E1
:101090005041C5F60201086820F040501E9AD269FE
:1010A00010430860FFE71E980078000600280CD562
:1010B000FFE744F24C41C5F60201086820F44030D5
:1010C0001E9A126A10430860FFE71E984078C00716
:1010D00070B3FFE71E98406A149028B1FFE7149898
:1010E000B0F5802F01D009E00CE044F22C41C5F6A8
:1010F0000201086840F08040086003E001208DF89C
:101100006F00FFE79DF86F0060B9FFE744F24C41C4
:10111000C5F60201086820F480201E9A526A104326
:10112000086004E09DF86F008DF86E00FFE7FFE7B0
:101130001E984078800700283CD5FFE71E98806AFB
:101140001390E0B1FFE71398B0F5800F05D0FFE7EB
:101150001398B0F5000F09D012E044F22C41C5F607
:101160000201086840F0400008600DE044F22C41A4
:10117000C5F60201086840F48030086004E003E02E
:1011800001208DF86F00FFE79DF86F0060B9FFE761
:1011900044F25041C5F60201086820F440001E9A4E
:1011A000926A1043086004E09DF86F008DF86E00AD
:1011B000FFE7FFE71E9840780007002838D5FFE7D3
:1011C0001E98C06A1290C0B1FFE71298B0F5805F18
:1011D0000AD0FFE71298B0F5005F0ED0FFE7129833
:1011E000B0F5405F09D009E044F22C41C5F6020198
:1011F000086840F00050086004E003E001208DF82A
:101200006F00FFE79DF86F0060B9FFE744F25041BF
:10121000C5F60201086820F440501E9AD26A1043B5
:10122000086004E09DF86F008DF86E00FFE7FFE7AF
:101230001E9840784007002838D5FFE71E98006BBD
:101240001190C0B1FFE71198B0F5807F0AD0FFE799
:101250001198B0F5007F0ED0FFE71198B0F5407FF0
:1012600009D009E044F22C41C5F60201086840F0BB
:101270000050086004E003E001208DF86F00FFE7F4
:101280009DF86F0060B9FFE744F25041C5F60201D6
:10129000086820F440701E9A126B1043086004E046
:1012A0009DF86F008DF86E00FFE7FFE71E9840780D
:1012B000C00600284ED5FFE71E98406B1090C8B1BD
:1012C000FFE71098B0F5803F15D0FFE71098B0F514
:1012D000003F19D0FFE71098B0F5403F1DD0FFE761
:1012E0001098B0F5802F19D0FFE71098B0F5A02F17
:1012F00015D015E018E044F22C41C5F6020108684B
:1013000040F4803008600FE044F22C41C5F6020141
:10131000086840F00050086006E005E004E003E0E3
:1013200001208DF86F00FFE79DF86F0060B9FFE7BF
:1013300044F25041C5F60201086820F4E0201E9AEC
:10134000526B1043086004E09DF86F008DF86E004A
:10135000FFE7FFE71E984078800600284ED5FFE79C
:101360001E98806B0F90C8B1FFE70F98B0F5807F93
:1013700015D0FFE70F98B0F5007F19D0FFE70F9861
:10138000B0F5407F1DD0FFE70F98B0F5806F19D002
:10139000FFE70F98B0F5A06F15D015E018E044F204
:1013A0002C41C5F60201086840F4803008600FE067
:1013B00044F22C41C5F60201086840F00050086074
:1013C00006E005E004E003E001208DF86F00FFE790
:1013D0009DF86F0060B9FFE744F25841C5F602017D
:1013E000086820F4E0601E9A926B1043086004E0E5
:1013F0009DF86F008DF86E00FFE7FFE71E984078BC
:10140000400600284ED5FFE71E98C06B0E90C8B16D
:10141000FFE70E98B0F5805F15D0FFE70E98B0F5A6
:10142000005F19D0FFE70E98B0F5405F1DD0FFE7D1
:101430000E98B0F5804F19D0FFE70E98B0F5A04F89
:1014400015D015E018E044F22C41C5F602010868F9
:1014500040F4803008600FE044F22C41C5F60201F0
:10146000086840F00050086006E005E004E003E092
:1014700001208DF86F00FFE79DF86F0060B9FFE76E
:1014800044F25841C5F60201086820F4E0401E9A73
:10149000D26B1043086004E09DF86F008DF86E0079
:1014A000FFE7FFE71E984078000600283BD5FFE7DE
:1014B0001E98006C0D9005281BD80D99DFE801F0EF
:1014C00003040D16171818E044F22C41C5F602016A
:1014D000086840F4003008600FE044F22C41C5F683
:1014E0000201086840F08050086006E005E004E072
:1014F00003E001208DF86F00FFE79DF86F0060B9F1
:10150000FFE744F25841C5F60201086820F00700E1
:101510001E9A126C1043086004E09DF86F008DF86D
:101520006E00FFE7FFE71E988078C00748B1FFE72D
:1015300044F22C41C5F60201086840F000500860F2
:10154000FFE71E988078800700282ED5FFE71E98B9
:10155000806C0C9028B1FFE70C98B0F1006F09D0B7
:1015600009E044F22C41C5F60201086840F0005041
:10157000086004E003E001208DF86F00FFE79DF8AC
:101580006F0060B9FFE744F24C41C5F602010868FC
:1015900020F000601E9A926C1043086004E09DF8F1
:1015A0006F008DF86E00FFE7FFE71E988078000758
:1015B000002850D5FFE71E98C06C0B90A0B1FFE744
:1015C0000B98B0F5803F18D0FFE70B98B0F5003FBF
:1015D0001CD0FFE70B98B0F5403F20D0FFE70B98F9
:1015E000B0F5802F1CD01CE044F22C41C5F602015E
:1015F000086840F04000086017E044F22C41C5F64E
:101600000201086840F4803008600EE044F22C418A
:10161000C5F60201086840F00060086005E004E0DB
:1016200003E001208DF86F00FFE79DF86F0060B9BF
:10163000FFE744F25441C5F60201086820F4E020B7
:101640001E9AD26C1043086004E09DF86F008DF87C
:101650006E00FFE7FFE71E988078C006002856D589
:10166000FFE71E98006D0A90C8B1FFE70A98B0F531
:10167000801F1DD0FFE70A98B0F5001F21D0FFE7BB
:101680000A98B0F5401F25D0FFE70A98B0F5800F03
:1016900021D0FFE70A98B0F5A00F1DD01DE044F25D
:1016A0002C41C5F60201086840F04000086018E0CF
:1016B00044F22C41C5F60201086840F4803008600D
:1016C0000FE044F22C41C5F60201086840F00060CA
:1016D000086006E005E004E003E001208DF86F00FB
:1016E000FFE79DF86F0060B9FFE744F25441C5F68B
:1016F0000201086820F4E0001E9A126D1043086091
:1017000004E09DF86F008DF86E00FFE7FFE71E987C
:101710008078400600284AD5FFE71E98806E099021
:1017200078B1FFE70998B0F1807F13D0FFE70998FF
:10173000B0F1007F17D0FFE70998B0F1407F1BD0D0
:101740001BE044F22C41C5F60201086840F040005D
:10175000086016E044F22C41C5F60201086840F426
:10176000802008600DE044F22C41C5F602010868B3
:1017700040F00050086004E003E001208DF86F00A5
:10178000FFE79DF86F0060B9FFE744F25041C5F6EE
:101790000201086820F040701E9A926E10430860A3
:1017A00004E09DF86F008DF86E00FFE7FFE71E98DC
:1017B00080780006002850D5FFE71E98806D0890BD
:1017C000A0B1FFE70898B0F5807F18D0FFE7089830
:1017D000B0F5007F1CD0FFE70898B0F5407F20D01F
:1017E000FFE70898B0F5806F1CD01CE044F22C4154
:1017F000C5F60201086840F04000086017E044F2B6
:101800002C41C5F60201086840F4803008600EE003
:1018100044F22C41C5F60201086840F000600860FF
:1018200005E004E003E001208DF86F00FFE79DF87C
:101830006F0060B9FFE744F25441C5F60201086841
:1018400020F4E0601E9A926D1043086004E09DF859
:101850006F008DF86E00FFE7FFE71E98C078C007A5
:1018600000284CD0FFE71E98C06D079080B1FFE7BD
:101870000798102815D0FFE7079820281AD0FFE70F
:10188000079830281FD0FFE7079840281CD01CE09D
:1018900044F22C41C5F60201086840F0400008609F
:1018A00017E044F22C41C5F60201086840F480308C
:1018B00008600EE044F22C41C5F60201086840F0D1
:1018C0000060086005E004E003E001208DF86F008F
:1018D000FFE79DF86F0060B9FFE744F25041C5F69D
:1018E0000201086820F070001E9AD26D1043086053
:1018F00004E09DF86F008DF86E00FFE7FFE71E988B
:10190000C0788007002849D5FFE71E98006E069032
:10191000A0B1FFE70698102811D0FFE7069820280D
:1019200016D0FFE7069830281BD0FFE7069840281E
:1019300018D0FFE70698502815D015E018E044F2BB
:101940002C41C5F60201086840F4003008600FE041
:1019500044F22C41C5F60201086840F0805008604E
:1019600006E005E004E003E001208DF86F00FFE7EA
:101970009DF86F0060B9FFE744F25441C5F60201DB
:10198000086820F070001E9A126E1043086004E090
:101990009DF86F008DF86E00FFE7FFE71E98C07896
:1019A0004007002849D5FFE71E98406E0590A0B17A
:1019B000FFE70598102811D0FFE70598202816D0DA
:1019C000FFE7059830281BD0FFE70598402818D07E
:1019D000FFE70598502815D015E018E044F22C4197
:1019E000C5F60201086840F4003008600FE044F2D8
:1019F0002C41C5F60201086840F08050086006E0FE
:101A000005E004E003E001208DF86F00FFE79DF89A
:101A10006F0060B9FFE744F25841C5F6020108685B
:101A200020F070001E9A526E1043086004E09DF88A
:101A30006F008DF86E00FFE7FFE71E98C078C006C4
:101A400000283BD5FFE71E98C06E049005281BD8E0
:101A50000499DFE801F003040D16171818E044F2AA
:101A60002C41C5F60201086840F4003008600FE020
:101A700044F22C41C5F60201086840F0805008602D
:101A800006E005E004E003E001208DF86F00FFE7C9
:101A90009DF86F0060B9FFE744F25441C5F60201BA
:101AA000086820F007001E9AD26E1043086004E018
:101AB0009DF86F008DF86E00FFE7FFE71E98C07875
:101AC000800600283BD5FFE71E98006F039005288D
:101AD0001BD80399DFE801F003040D16171818E06E
:101AE00044F22C41C5F60201086840F40030086059
:101AF0000FE044F22C41C5F60201086840F0805026
:101B0000086006E005E004E003E001208DF86F00C6
:101B1000FFE79DF86F0060B9FFE744F25041C5F65A
:101B20000201086820F007001E9A126F1043086037
:101B300004E09DF86F008DF86E00FFE7FFE71E9848
:101B4000C0784006002833D5FFE71E98406F02900A
:101B500098B1FFE70298B0F5805F0ED0FFE70298DA
:101B6000B0F5005F0AD1FFE744F22C41C5F602014F
:101B7000086840F08050086004E003E001208DF820
:101B80006F00FFE79DF86F0060B9FFE744F24C413A
:101B9000C5F60201086820F440501E9A526F1043A7
:101BA000086004E09DF86F008DF86E00FFE7FFE726
:101BB0001E98C0780006002838D5FFE71E98806F71
:101BC0000190C0B1FFE70198B0F5804F0AD0FFE760
:101BD0000198B0F5004F0ED0FFE70198B0F5404FE7
:101BE00009D009E044F22C41C5F60201086840F032
:101BF0008050086004E003E001208DF86F00FFE7EB
:101C00009DF86F0060B9FFE744F24C41C5F6020150
:101C1000086820F440401E9A926F1043086004E068
:101C20009DF86F008DF86E00FFE7FFE71E98C07803
:101C3000000700280DD5FFE744F21041C5F6020168
:101C4000086820F400401E9AD2F8802010430860F3
:101C5000FFE79DF86E0020B9FFE700208DF87F00B8
:101C600003E001208DF87F00FFE79DF87F0020B0A2
:101C700080BD00000000000080B586B00490039194
:101C8000049820B9FFE701208DF8170012E20398AD
:101C900042F20001C5F20021096801F03F018842CB
:101CA00016D9FFE742F20000C5F20020016821F0DA
:101CB0003F01039A11430160006800F03F0003995F
:101CC000884204D0FFE701208DF81700F2E1FFE71A
:101CD000049800784007002819D5FFE704980069A8
:101CE00044F22041C5F60201096801F0070188426B
:101CF0000CD9FFE744F22041C5F60201086820F044
:101D00000700049A126910430860FFE7FFE7049890
:101D100000780007002819D5FFE70498406944F2CD
:101D20002041C5F60201096801F0700188420CD912
:101D3000FFE744F22041C5F60201086820F0700078
:101D4000049A526910430860FFE7FFE7049800789F
:101D5000C006002819D5FFE70498806944F22041A5
:101D6000C5F60201096801F4E06188420CD9FFE779
:101D700044F22041C5F60201086820F4E060049AAC
:101D8000926910430860FFE7FFE704980078800637
:101D9000002819D5FFE70498C06944F22041C5F630
:101DA0000201096801F4E04188420CD9FFE744F2DE
:101DB0002041C5F60201086820F4E040049AD26987
:101DC00010430860FFE7FFE70498007880070028C9
:101DD00019D5FFE70498C06844F21C41C5F602011A
:101DE000096801F00F0188420CD9FFE744F21C4159
:101DF000C5F60201086820F00F00049AD26810436B
:101E00000860FFE7FFE704980078C007002800F0AB
:101E10008080FFE744F21841C5F60201086820F00F
:101E20000F00049A926810430860049840680228E2
:101E30000ED1FFE744F20040C5F6020000688003BF
:101E4000002804D4FFE701208DF8170032E135E0C7
:101E50000498406803280ED1FFE744F20040C5F61D
:101E6000020000688001002804D4FFE701208DF8FB
:101E700017001FE121E00498406801280ED1FFE718
:101E800044F20040C5F602000068C005002804D4F2
:101E9000FFE701208DF817000CE10DE044F200404F
:101EA000C5F6020000684007002804D4FFE70120BF
:101EB0008DF81700FEE0FFE7FFE7FFE744F210416F
:101EC000C5F60201086820F00700049A5268104322
:101ED0000860FEF785FC0190FFE744F21040C5F66C
:101EE0000200006800F0380004994968B0EBC10FA7
:101EF0000ED0FFE7FEF774FC0199401A41F28931D8
:101F0000884204D3FFE703208DF81700D2E0E4E70E
:101F1000FFE7049800788007002819D5FFE70498A8
:101F2000C06844F21C41C5F60201096801F00F01C6
:101F300088420CD2FFE744F21C41C5F60201086852
:101F400020F00F00049AD26810430860FFE7FFE713
:101F5000039842F20001C5F20021096801F03F0137
:101F6000884216D2FFE742F20000C5F20020016865
:101F700021F03F01039A11430160006800F03F0027
:101F80000399884204D0FFE701208DF8170091E003
:101F9000FFE7049800784007002819D5FFE7049868
:101FA000006944F22041C5F60201096801F0070109
:101FB00088420CD2FFE744F22041C5F602010868CE
:101FC00020F00700049A126910430860FFE7FFE75A
:101FD000049800780007002819D5FFE704984069A5
:101FE00044F22041C5F60201096801F070018842FF
:101FF0000CD2FFE744F22041C5F60201086820F048
:102000007000049A526910430860FFE7FFE70498E4
:102010000078C006002819D5FFE70498806944F2CB
:102020002041C5F60201096801F4E06188420CD242
:10203000FFE744F22041C5F60201086820F4E060A1
:10204000049A926910430860FFE7FFE7049800785C
:102050008006002819D5FFE70498C06944F22041A2
:10206000C5F60201096801F4E04188420CD2FFE79D
:1020700044F22041C5F60201086820F4E040049AC9
:10208000D26910430860FFE7FFE700F0BDF840F2B7
:102090000401C2F20041086040F26000C2F2004058
:1020A0000068FEF7CDFB8DF80B009DF80B008DF856
:1020B0001700FFE79DF8170006B080BD0000000084
:1020C00080B584B040F20670C0F60810019040F26E
:1020D0000120C0F20340009000F096F8039044F213
:1020E0001C40C5F60200006800F00F000290029844
:1020F000082809D3FFE7039802996A46114411F8AA
:10210000081CC8400390FFE7039804B080BD00009E
:1021100080B582B0FFF7D4FF019044F22040C5F6AD
:102120000200006800F0070000900098042806D321
:10213000FFE7019800990339C8400190FFE7019833
:1021400002B080BD0000000080B582B0FFF7B8FF8C
:10215000019044F22040C5F602000068C0F302106E
:1021600000900098042806D3FFE7019800990339EE
:10217000C8400190FFE7019802B080BD0000000058
:1021800080B582B0FFF79CFF019044F22040C5F675
:1021900002000068C0F3022000900098042806D3D3
:1021A000FFE7019800990339C8400190FFE70198C3
:1021B00002B080BD0000000080B582B044F238401B
:1021C000C5F60200006800F4FE01012000EB11409A
:1021D000019001F059FD0199B0FBF1F002B080BD12
:1021E00080B582B044F24040C5F60200006800F4B9
:1021F000FE01012000EB1140019001F0D9FD019991
:10220000B0FBF1F002B080BD8BB044F21040C5F6D7
:102210000200006800F0380001460191182800F221
:102220003E810199DFE811F019003B013B013B01C0
:102230003B013B013B013B0134003B013B013B01C6
:102240003B013B013B013B013A003B013B013B01B0
:102250003B013B013B013B01400044F20040C5F61D
:1022600002000068800600280ED5FFE744F2004017
:10227000C5F602000068C0F3C10149F20000C0F2D7
:10228000D030C840039002E000200390FFE70CE14B
:1022900040F60010C0F23D00039006E143F20060FA
:1022A000C0F26E10039000E144F22840C5F602002F
:1022B000016801F0030109910068C0F3051008905E
:1022C00044F22C40C5F60200006800F001000790BF
:1022D000079844F23441C5F60201096889B2C90879
:1022E000484300EE100AB8EE400A8DED050A089842
:1022F000002800F0D080FFE70998009040B1FFE788
:102300000098012844D0FFE70098022864D087E0B5
:1023100044F20040C5F6020000688006002833D56C
:10232000FFE744F20040C5F602000068C0F3C101B7
:1023300049F20000C0F2D030C84006909DED060A78
:10234000B8EE400A9DED081AB8EE411A80EE010A77
:1023500044F23040C5F6020000686FF35F2001EEE2
:10236000100AB8EE411A9DED052A9FED5B3A82EE08
:10237000032A31EE021AB7EE002A31EE021A20EEDD
:10238000010A8DED040A02E000200490FFE76BE0F3
:102390009DED080AB8EE401A9FED500A80EE010A42
:1023A00044F23040C5F6020000686FF35F2001EE92
:1023B000100AB8EE411A9DED052A9FED473A82EECC
:1023C000032A31EE021AB7EE002A31EE021A20EE8D
:1023D000010A8DED040A47E09DED080AB8EE401AA7
:1023E0009FED3C0A80EE010A44F23040C5F602003F
:1023F00000686FF35F2001EE100AB8EE411A9DED00
:10240000052A9FED353A82EE032A31EE021AB7EE25
:10241000002A31EE021A20EE010A8DED040A23E0B3
:102420009DED080AB8EE401A9FED2C0A80EE010AD5
:1024300044F23040C5F6020000686FF35F2001EE01
:10244000100AB8EE411A9DED052A9FED233A82EE5F
:10245000032A31EE021AB7EE002A31EE021A20EEFC
:10246000010A8DED040AFFE744F23040C5F6020090
:10247000006881B2012000EB51200A909DED040A12
:102480009DED0A1AB8EE411A80EE010ABCEEC00AB0
:102490008DED030A02E000200390FFE705E040F61F
:1024A0000010C0F23D000390FFE744F21840C5F66B
:1024B0000200006800F00F0002900298082806D37E
:1024C000FFE7039802990739C8400390FFE7039894
:1024D0000BB07047001BB74B000000460024744A45
:1024E00080B588B00690069820B9FFE701208DF8E6
:1024F0001F00D4E344F21040C5F60200006800F06B
:102500003800049044F22840C5F60200006800F04C
:102510000300039044F20040C5F60200006800F09A
:102520002850029006980078C007002800F0B48078
:10253000FFE70498102807D0FFE7029868B1FFE78B
:102540000398022809D1FFE70698406820B9FFE701
:1025500001208DF81F00A2E39DE0FFE70698406888
:10256000B0F5803F09D1FFE744F20041C5F6020112
:10257000086840F48030086056E00698406888B9E2
:10258000FFE744F20041C5F60201086820F48030FC
:102590000860086820F400200860086820F48020A3
:1025A000086040E006984068B0F5A02F11D1FFE721
:1025B00044F20041C5F60201086840F4802008603A
:1025C000086820F400200860086840F48030086043
:1025D00028E006984068B0F5502F11D1FFE744F28B
:1025E0000041C5F60201086840F4802008600868D0
:1025F00040F400200860086840F48030086010E073
:1026000044F20041C5F60201086820F480300860F9
:10261000086820F480200860086820F40020086022
:10262000FFE7FFE7FFE7FFE7FFE7FEF7D9F80590D1
:1026300006984068B8B1FFE7FFE744F20040C5F6EE
:1026400002000068800300280CD4FFE7FEF7C8F8FA
:102650000599401A652804D3FFE703208DF81F0071
:102660001DE3EAE716E0FFE744F20040C5F602008A
:102670000068800300280CD5FFE7FEF7B1F8059944
:10268000401A652804D3FFE703208DF81F0006E3F6
:10269000EAE7FFE7FFE7FFE70698007880070028F2
:1026A00040F1C480FFE7049840B1FFE7029800289A
:1026B00061D0FFE7039800285DD1FFE70698C06866
:1026C00020B9FFE701208DF81F00E8E244F2004046
:1026D000C5F60200006800F018000190039868B980
:1026E000FFE7029850B1FFE701980699096988420F
:1026F00004D0FFE701208DF81F00D0E244F2004132
:10270000C5F60201086820F0180206980069104317
:1027100040F001000860049890B9FFE744F20040DF
:10272000C5F602000068C0F3C10149F20000C0F222
:10273000D030C84040F20401C2F200410860FFE717
:1027400040F26000C2F200400068FEF779F820B164
:10275000FFE701208DF81F00A1E2FFE744F20441EA
:10276000C5F60201086820F0FE40069A526940EA68
:102770000260086059E00698C06898B3FFE744F229
:102780000041C5F60201086820F01900069BDA68CE
:102790001B691A431043086044F20441C5F6020164
:1027A000086820F0FE40069A526940EA026008601C
:1027B000FEF716F80590FFE744F20040C5F6020068
:1027C0000068400700280CD4FFE7FEF709F80599D8
:1027D000401A022804D3FFE703208DF81F005EE2B1
:1027E000EAE721E044F20041C5F60201086820F062
:1027F00001000860FDF7F4FF0590FFE744F2004098
:10280000C5F602000068400700280CD5FFE7FDF779
:10281000E7FF0599401A022804D3FFE703208DF84B
:102820001F003CE2EAE7FFE7FFE7FFE706980078D2
:10283000C00600285ED5FFE70498082807D0FFE708
:10284000029868B1FFE70398012809D1FFE70698CD
:10285000006A20B9FFE701208DF81F001FE248E061
:102860000698006A10B3FFE744F20041C5F6020182
:10287000086840F080000860FDF7B2FF0590FFE7B0
:1028800044F20040C5F602000068C00500280CD4E0
:10289000FFE7FDF7A5FF0599401A022804D3FFE7DB
:1028A00003208DF81F00FAE1EAE721E044F200413D
:1028B000C5F60201086820F080000860FDF790FF6F
:1028C0000590FFE744F20040C5F602000068C0052D
:1028D00000280CD5FFE7FDF783FF0599401A022871
:1028E00004D3FFE703208DF81F00D8E1EAE7FFE7F4
:1028F000FFE7FFE7069800780007002849D5FFE7C3
:102900000698806910B3FFE744F27441C5F60201EE
:10291000086840F001000860FDF762FF0590FFE7DE
:1029200044F27440C5F602000068800700280CD409
:10293000FFE7FDF755FF0599401A022804D3FFE78A
:1029400003208DF81F00AAE1EAE721E044F2744178
:10295000C5F60201086820F001000860FDF740FF9D
:102960000590FFE744F27440C5F602000068800756
:1029700000280CD5FFE7FDF733FF0599401A022820
:1029800004D3FFE703208DF81F0088E1EAE7FFE7A3
:10299000FFE7069800788006002849D5FFE70698EB
:1029A000C06910B3FFE744F20041C5F602010868B0
:1029B00040F480500860FDF713FF0590FFE744F2F4
:1029C0000040C5F602000068800400280CD4FFE730
:1029D000FDF706FF0599401A022804D3FFE70320FC
:1029E0008DF81F005BE1EAE721E044F20041C5F603
:1029F0000201086820F480500860FDF7F1FE0590A0
:102A0000FFE744F20040C5F6020000688004002899
:102A10000CD5FFE7FDF7E4FE0599401A022804D320
:102A2000FFE703208DF81F0039E1EAE7FFE7FFE742
:102A3000069800784007002840F1AB80FFE744F695
:102A40000001C5F60201086840F480700860FFE7E5
:102A500006988068012809D1FFE744F27041C5F665
:102A60000201086840F00100086054E006988068A0
:102A700088B9FFE744F27041C5F60201086820F00A
:102A800001000860086820F080000860086820F0F5
:102A9000040008603EE006988068052811D1FFE731
:102AA00044F27041C5F60201086840F00400086075
:102AB000086820F080000860086840F001000860A5
:102AC00027E006988068852811D1FFE744F270411D
:102AD000C5F60201086840F004000860086840F08C
:102AE00080000860086840F00100086010E044F2CF
:102AF0007041C5F60201086820F00100086008680E
:102B000020F004000860086820F080000860FFE7FB
:102B1000FFE7FFE7FFE7FFE706988068E0B1FFE720
:102B2000FDF75EFE0590FFE744F27040C5F6020037
:102B30000068800700280ED4FFE7FDF751FE0599D5
:102B4000401A41F28931884204D3FFE703208DF80F
:102B50001F00A4E0E8E71BE0FDF742FE0590FFE759
:102B600044F27040C5F602000068800700280ED5C8
:102B7000FFE7FDF735FE0599401A41F28931884299
:102B800004D3FFE703208DF81F0088E0E8E7FFE7A4
:102B9000FFE70698406A002857D0FFE704981828F6
:102BA00042D1FFE70698406A012804D1FFE70120DF
:102BB0008DF81F0073E044F23440C5F6020000684F
:102BC00080B2C00801900698806C0199884229D093
:102BD000FFE744F22C41C5F60201086820F001002D
:102BE0000860FDF7FDFD0590FFE7FDF7F9FD05998C
:102BF000401A08B9FFE7F8E744F23441C5F602018C
:102C000008684FF6F8729043069A926C40EAC20048
:102C1000086044F22C41C5F60201086840F001004A
:102C20000860FFE7FFE70FE0069901204864069877
:102C300000F12401002001F04FF920B1FFE701204D
:102C40008DF81F002BE0FFE7FFE70698C06C68B126
:102C5000FFE7069800F14C01012001F03DF920B199
:102C6000FFE701208DF81F0019E0FFE70698406F8D
:102C700088B1FFE706990120C1F89400069800F199
:102C80007401022001F028F920B1FFE701208DF83E
:102C90001F0004E0FFE700208DF81F00FFE79DF80C
:102CA0001F0008B080BD000081B00090009A40F283
:102CB0001051C5F6000108681043086001B0704764
:102CC00081B000904EF21001CEF20001086820F0B1
:102CD0000400009A1043086001B070470000000033
:102CE00080B582B00190019801F06EFA02B080BD0B
:102CF00010B5B2B0319010A88421FDF7FCFA002085
:102D00000F900E900D900C900B903198006841F24E
:102D10000001C4F2002188426AD1FFE74FF08050E1
:102D2000109000202B9010A8FDF75AFFFFE7FFE757
:102D300044F25050C5F60200016841F010010160F4
:102D400000680A900A98FFE7FFE7FFE7FFE744F211
:102D50004050C5F60200016841F0020101600068C0
:102D600009900998FFE7FFE7FFE7FFE744F24050CB
:102D7000C5F60200016841F0020101600068089098
:102D80000898FFE7FFE74FF480400B900220059082
:102D90000C90012001900D90032006900E900420CD
:102DA00002900F9040F20040C5F6020003900BA97C
:102DB0000491FDF77DFBDDF804C0029A03980499A5
:102DC000069BDDF814E04FF400440B94CDF830E09E
:102DD000CDF834C00E930F92FDF76AFB069952208E
:102DE00007900022FDF7F8FD0798FDF7E9FDFFE7E2
:102DF00032B010BD0000000080B582B00190019893
:102E0000006841F20001C4F2002188426AD1FFE764
:102E100040F2EC20C2F2004000880004002855D4A3
:102E2000FFE740F2EC20C2F2004000884004002896
:102E300019D5FFE740F24010C2F2004000780A289E
:102E400007D0FFE740F2EC21C2F2004100200880E9
:102E500008E040F2EC21C2F20041088840F4004052
:102E60000880FFE731E040F24010C2F200400078F5
:102E70000D2809D1FFE740F2EC21C2F20041088899
:102E800040F4804008801FE040F24010C2F2004051
:102E9000017840F2EC20C2F2004003886FF39F33C8
:102EA00040F22422C2F20042D15401880131018053
:102EB0000088C82807DBFFE740F2EC21C2F200419E
:102EC00000200880FFE7FFE7FFE7FFE740F29010F0
:102ED000C2F2004040F24011C2F20041012202F071
:102EE000F9FDFFE702B080BD80B58CB00A90099172
:102EF0000892002000908DF81F008DF81D000690AC
:102F0000059004900390029001908DF81E00FFE759
:102F10009DF81E00012812D8FFE79DF81E10481CDE
:102F200001EB410201A901EB8201C0B201F0ACF951
:102F3000FFE79DF81E0001308DF81E00E8E745F21E
:102F40000000C5F200200068C00778B1FFE745F235
:102F50000001C5F20021086820F0010008609DF81A
:102F60001D0040F001008DF81D00FFE74AF200004F
:102F7000C5F200200068C00778B1FFE74AF20001FF
:102F8000C5F20021086820F0010008609DF81D00CE
:102F900040F002008DF81D00FFE74BF20041C5F242
:102FA000002100200860086820F47F00099A9368D7
:102FB0000022CFF6FF7202EB0342104308600A982A
:102FC000006845F20001C5F20021884215D1FFE7F3
:102FD0000998406802900998006860B1FFE74BF2D9
:102FE0000041C5F20021086820F03000099A1268FB
:102FF0001043086000E0FFE722E00A9800684AF208
:103000000001C5F20021884215D1FFE70998406808
:1030100005900998006860B1FFE74BF20041C5F2E6
:103020000021086820F05000099A126810430860D7
:1030300000E0FFE703E001208DF82F0055E0FFE7F7
:1030400000208DF81E00FFE79DF81E0058BBFFE72B
:103050009DF81E0000EB400101A800EB81014868CB
:103060000969884209D1FFE74BF20041C5F200210E
:10307000086840F00100086000E0FFE702980128BE
:1030800009D1FFE74BF20041C5F20021086840F08A
:103090000200086000E0FFE7FFE79DF81E00013036
:1030A0008DF81E00D0E79DF81D00C00748B1FFE76E
:1030B00045F20001C5F20021086840F001000860F7
:1030C000FFE79DF81D008007002809D5FFE74AF2B9
:1030D0000001C5F20021086840F001000860FFE728
:1030E0009DF81F008DF82F00FFE79DF82F000CB012
:1030F00080BD00000000000080B588B007900691F8
:103100000592FDF76DFB039007980068806C0290B4
:1031100007980068D0F8100101900798406D0428C6
:1031200073D1FFE70698C068B0F5800F6DD1FFE757
:103130000798039B05996A4611602021002201F03F
:103140009FFA8DF813009DF81300002858D1FFE76F
:103150000698006807990968C1F8880006984068D1
:1031600007990968C1F880000698006907990968FD
:10317000C1F8900007980068006820F04351069A53
:103180009068D2681043084340F0005007990968DE
:1031900008600798C068B0F1806F05D1FFE702981A
:1031A00007990968886413E007980068D0F800015F
:1031B00010F4E06F05D0FFE702980799096888646A
:1031C00005E0019807990968C1F81001FFE7FFE7DA
:1031D0000798039B05996A4611600821012201F0B6
:1031E0004FFA8DF813009DF8130040B9FFE70798D8
:1031F000016808204862079902204865FFE703E05C
:1032000002208DF81300FFE706E001208DF813007F
:10321000079910208865FFE79DF8130008B080BD6E
:1032200080B588B0079006910592FDF7D9FA029013
:103230000798806808B9FFE7FFE70698C06808B1FB
:10324000FFE7FFE70698C06908B1FFE7FFE70698C8
:10325000C06A08B1FFE7FFE70698806B30B1FFE76F
:103260000698006808B9FFE7FFE7FFE70798406D99
:1032700003900398022806D1FFE70798C068B0F1D1
:10328000806F1CD1FFE7039814280AD1FFE7069846
:103290000068022813D0FFE70698006803280ED0C4
:1032A000FFE70398242877D1FFE7069800680128F4
:1032B00005D0FFE70698006803286DD1FFE707985F
:1032C000029B05996A4611602021002201F0D8F97D
:1032D0008DF813009DF81300002858D1FFE70799D7
:1032E000002088650798069901F046F88DF81300CC
:1032F0009DF81300002849D1FFE70698806B90B92C
:10330000FFE70798029B05996A4611600221019127
:10331000012201F0B5F9014601988DF813100799C3
:103320000968486231E00698006820B9FFE707990C
:103330000420486528E00698006801280ED1FFE7C0
:103340000798406D242804D1FFE7079904204865B9
:1033500003E0079914204865FFE714E00698006829
:1033600002280ED1FFE70798406D142804D1FFE72B
:1033700007990420486503E0079924204865FFE782
:1033800000E0FFE7FFE7FFE7FFE7FFE703E00220DA
:103390008DF81300FFE706E001208DF81300079970
:1033A00010208865FFE79DF8130008B080BD00007D
:1033B00080B582B0019000208DF80300019820B9FB
:1033C000FFE701208DF8030012E00198016808680A
:1033D00020F00100086001980168886820F0020070
:1033E0008860019800F008FA019900204865FFE71D
:1033F0009DF8030002B080BD80B588B007900691AB
:103400000592FDF7EDF902900798406D039003983F
:10341000012804D0FFE70398022826D1FFE7079888
:10342000029B05996A4611602021002201F028F9CB
:103430008DF813009DF8130090B9FFE7069908680E
:103440004B688A68C968000440EA032010430843B7
:1034500007990968C1F8000207990220486503E04E
:1034600002208DF81300FFE706E001208DF813001D
:10347000079910208865FFE79DF8130008B080BD0C
:1034800080B586B0059004910392FDF7A9F90190EB
:103490000598406D022856D1FFE70598C068B0F145
:1034A000806F50D1FFE70598019B03996A46116030
:1034B0002021002201F0E4F88DF80B009DF80B00AC
:1034C000E0BBFFE705980068006820F040500599D0
:1034D0000968086005980068806820F08070049989
:1034E00009680843059909688860049A9168106919
:1034F00052691043084340F60041C0F600010843FA
:10350000059A1268C2F80001049B9A6818695B6901
:1035100018431043084305990968C1F880010498CD
:10352000C0680138059909680864049840680599DD
:103530000968886405990420486503E002208DF835
:103540000B00FFE706E001208DF80B000599102025
:103550008865FFE79DF80B0006B080BD0000000005
:1035600080B586B0049000208DF80F00FDF738F983
:103570000290049820B9FFE701208DF80F00E0E0E9
:103580000499002088650498406D002840F0D88098
:10359000FFE7049800F05CF9049841F2883100F0EC
:1035A000A7FA0498006880684CF2FC01CFF6E001AD
:1035B0000840DDF810C0DCF80010DCF80C20DCF866
:1035C0001030DCF814E042EA03436FF0FF0202EB34
:1035D0000E2E43EA0E03DCF81CC043EA0C0318432A
:1035E000886004980068C06820F4E020049B196893
:1035F0001B6A1843C86004980068006920F4F8103A
:10360000049B19681B6B40EA03400861049800683A
:10361000006920F0FF00049B19685B6B1843086188
:1036200004980168806B486104980068006820F481
:103630007C50049B19685B6802EB0322104308600E
:103640000498029BC16D6A4611602021002201F09E
:1036500017F88DF80F009DF80F0000286FD1FFE7D5
:1036600004980068C06820F0FF00049A1168526A4C
:103670001043C8600498006845F20001C5F20021BB
:10368000884209D0FFE7049800684AF20001C5F2B9
:103690000021884215D1FFE70498029BC16D6A465C
:1036A00011602021002200F0EBFF8DF80F009DF843
:1036B0000F0028B1FFE79DF80F008DF8170045E0D7
:1036C000FFE70498006800684FF6BF71CFF6FF610E
:1036D0000840049B19689A68DB6B1A431043086022
:1036E00004980068D0F8080120F0A040049B1968F5
:1036F0009A6ADB6A1A431043C1F80801049801680A
:10370000086840F00100086004988069022807D129
:10371000FFE704980168886840F002008860FFE7CE
:103720000498C068B0F1806F04D1FFE704990120CC
:10373000486503E0049902204865FFE7FFE7FFE7DB
:10374000FFE79DF80F008DF81700FFE79DF81700C1
:1037500006B080BD0000000080B586B005900491E1
:10376000FDF73EF802900598406D042837D1FFE739
:103770000598029BC16D6A4611602021002200F06D
:103780007FFF8DF80F009DF80F0038BBFFE705990C
:103790008820486504980068082811D1FFE704983C
:1037A000406805990968C1F8300105980168102042
:1037B000486205980168086840F480100860FFE7D7
:1037C00005980068006820F0080104980068084324
:1037D00040F04050059909680860FFE706E00120C5
:1037E0008DF80F00059910208865FFE79DF80F0000
:1037F00006B080BD0000000080B582B00190019845
:10380000006845F20001C5F2002188421BD1FFE7A4
:1038100044F23451C5F60201086820F48040086083
:10382000086820F02000086043F60040C5F602005A
:10383000FF21FCF799FD43F60000C5F602001521B3
:10384000FCF792FDFFE702B080BD00000000000021
:1038500080B5B0B02F900EA88421FCF74CFD00205D
:103860000D900C900B900A9009902F98006845F2EB
:103870000001C5F20021884267D1FFE702200E90C7
:10388000102010900EA8FDF7ABF9FFE744F234507A
:10389000C5F60200016841F48041016000680890AB
:1038A0000898FFE7FFE744F23450C5F602000168CC
:1038B00041F020010160006807900798FFE7FFE7EB
:1038C00044F24050C5F60200016841F40041016035
:1038D000006806900698FFE7FFE744F24050C5F6FF
:1038E0000200016841F4804101600068059005987C
:1038F000FFE7FF200990022000900A90002001902D
:103900000B90032002900C90092003900D9043F639
:103910000040C5F6020009A90491FCF7C9FDDDF8D5
:1039200000C0019B029A039804994FF0150ECDF840
:1039300024E0CDF828C00B930C920D9043F60000C4
:10394000C5F60200FCF7B4FDFFE730B080BD000013
:1039500080B58AB0099008910792FCF741FF059065
:10396000099800685030049009980068806C0390B2
:1039700009980068D0F810010290089838B9FFE75C
:1039800001208DF81B0009990820886581E00998BD
:10399000406D042875D1FFE709980068006C01307C
:1039A000099988640998806C09994864089809996C
:1039B0000864099800680068012161F31D70099985
:1039C000096808600998C068B0F1806F05D1FFE709
:1039D000039809990968886413E009980068D0F889
:1039E000000110F4E06F05D0FFE70398099909681A
:1039F000886405E0029809990968C1F81001FFE799
:103A0000FFE7FFE70998059B07996A4611600621C1
:103A1000012200F035FE8DF81B009DF81B0008B157
:103A2000FFE712E0049800780999096C0870099979
:103A3000086C013008640999886C01388864FFE7D4
:103A40000998806C0028DDD1FFE79DF81B00B8B90C
:103A5000FFE70998059B07996A4611600221012238
:103A600000F00EFE8DF81B009DF81B0038B9FFE733
:103A7000099801680220486209994865FFE7FFE755
:103A800006E001208DF81B00099910208865FFE7EA
:103A9000FFE79DF81B000AB080BD00000000000099
:103AA00083B00290019100208DF803000298406DD0
:103AB000000700280ED4FFE7019802994862029897
:103AC0000068C06820F0FF00029A1168526A104333
:103AD000C86006E001208DF8030002991020886577
:103AE000FFE79DF8030003B07047000000000000EE
:103AF00082B00190009100980199C865002002B041
:103B0000704700000000000080B588B00790069163
:103B10000592FCF765FE039007980068503002900C
:103B2000069838B9FFE701208DF81300079908209F
:103B3000886561E00798406D042855D1FFE7079834
:103B40000068006C0130079988640798806C0799B9
:103B5000486406980799086407980068006820F090
:103B60004050079909680860FFE70798039B05998B
:103B70006A4611600421012200F082FD8DF81300D5
:103B80009DF8130008B1FFE712E00798006C007879
:103B9000029908700799086C013008640799886CCD
:103BA00001388864FFE70798806C0028DDD1FFE7C3
:103BB0009DF81300B8B9FFE70798039B05996A467B
:103BC00011600221012200F05BFD8DF813009DF8C9
:103BD000130038B9FFE70798016802204862079987
:103BE0004865FFE7FFE706E001208DF8130007991D
:103BF00010208865FFE7FFE79DF8130008B080BD3F
:103C0000FFE7FEE700000000FFE7FEE7000000001E
:103C1000FFE7FEE70000000088B0079006910592DC
:103C2000079800F0070004900498C0F107000528E9
:103C300003D3FFE70420019004E00498C0F10700DB
:103C40000190FFE70198039004980430062803D8F8
:103C5000FFE70020009003E0049803380090FFE79E
:103C60000098029006980399012202FA01F10139A5
:103C70000840029B984005999A40013A1140084338
:103C800008B070470000000089B044F22840C5F633
:103C900002000068079044F23840C5F60200006850
:103CA00006900798C0F30530049006986FF35F20E4
:103CB00001300390049818B9FFE70020089070E0E5
:103CC00044F22C40C5F6020000680005002809D522
:103CD000FFE744F23C40C5F60200006880B2C0082D
:103CE000029002E000200290FFE7079800F0030036
:103CF0000146009140B1FFE70098012825D0FFE779
:103D0000009802281BD026E044F20040C5F60200CD
:103D10000068800600280ED5FFE744F20040C5F693
:103D200002000068C0F3C10149F20000C0F2D030C7
:103D3000C840059002E000200590FFE70EE043F246
:103D40000060C0F26E10059008E040F60010C0F26E
:103D50003D00059002E000200590FFE79DED050A7B
:103D6000B8EE400A9DED041AB8EE411A80EE010A41
:103D70009DED031AB8EE411A9DED022AB8EE422AD3
:103D80009FED093A82EE032A31EE021A20EE010A73
:103D90008DED010A9DED010ABCEEC00A8DED080A09
:103DA000FFE7089809B070470000004600000000D7
:103DB00089B044F22840C5F602000068079044F23A
:103DC0004040C5F60200006806900798C0F3055011
:103DD000049006986FF35F2001300390049818B99F
:103DE000FFE70020089070E044F22C40C5F6020086
:103DF00000684002002809D5FFE744F24440C5F6B8
:103E00000200006880B2C008029002E00020029028
:103E1000FFE7079800F003000146009140B1FFE77B
:103E20000098012825D0FFE7009802281BD026E043
:103E300044F20040C5F602000068800600280ED556
:103E4000FFE744F20040C5F602000068C0F3C1017C
:103E500049F20000C0F2D030C840059002E00020D6
:103E60000590FFE70EE043F20060C0F26E1005908F
:103E700008E040F60010C0F23D00059002E000208E
:103E80000590FFE79DED050AB8EE400A9DED041A86
:103E9000B8EE411A80EE010A9DED031AB8EE411A00
:103EA0009DED022AB8EE422A9FED093A82EE032ADE
:103EB00031EE021A20EE010A8DED010A9DED010A94
:103EC000BCEEC00A8DED080AFFE7089809B07047FC
:103ED000000000460000000080B58AB008900791FD
:103EE00000208DF80F00089944F23040C5F602001A
:103EF00000EBC1000690089944F2C040C5F60200EC
:103F000000EB8100059008980B2141434FF4787035
:103F100000FA01F244F22C41C5F602010868904310
:103F20000860089841004FF0807000FA01F244F2F6
:103F30000041C5F60201086890430860FCF750FC98
:103F40000290FFE744F20040C5F6020000680899BD
:103F50004900C840800100280CD5FFE7FCF740FC71
:103F60000299401A332804D3FFE703208DF8270075
:103F700023E1E7E707980068022840F00981FFE79E
:103F8000079840680190019870B9FFE744F200403B
:103F9000C5F602000068C0F3C10149F20000C0F29A
:103FA000D030C840009010E00198022806D1FFE709
:103FB00043F20060C0F26E10009005E040F6001081
:103FC000C0F23D000090FFE7FFE70098079989687D
:103FD000B0FBF1F00090009841F20021C0F27A01AC
:103FE000884203D3FFE7182000901AE0009840F6BB
:103FF0000011C0F23D01884203D3FFE7102000907A
:104000000EE0009848F28041C0F21E01884203D3BE
:10401000FFE70820009002E002200090FFE7FFE7A2
:10402000FFE7009808990B2251438840009044F222
:104030002840C5F602000168089A4FEAC20C4FF406
:104040007C7202FA0CF2914321F00301019A079B62
:104050009B680CF1040C03FA0CF31A431143016042
:10406000006800F003000199884204D0FFE70120B6
:104070008DF82700A1E044F22C41C5F60201086842
:10408000089A0B2353431B229A409043009A1043F3
:1040900008600799C868D1F810C04B698969013870
:1040A0004FF60062CFF6FF7202EB4C221043002263
:1040B000CFF6FF7202EB03421043013940EA016080
:1040C000069908600799C8690A6A01386FF0FF010C
:1040D00001EB0221084305990860089848B9FFE7F9
:1040E00044F22C41C5F60201086840F02000086047
:1040F000FFE70798406A08B3FFE7089944F23440A5
:10410000C5F6020000EBC1000490049800684FF669
:10411000F87188430799496A40EAC1000499086028
:1041200008980B214143012000FA01F244F22C418E
:10413000C5F60201086810430860FFE708984100CF
:104140004FF0807000FA01F244F20041C5F602011E
:10415000086810430860FCF743FB0290FFE744F255
:104160000040C5F60200006808994900C840800177
:1041700000280CD4FFE7FCF733FB0299401A3328E0
:1041800004D3FFE703208DF8270016E0E7E70FE0F0
:1041900044F22841C5F602010868089AD200131DAE
:1041A0004FF47C729A40904340F003000860FFE7B0
:1041B0009DF80F008DF82700FFE79DF827000AB053
:1041C00080BD00000000000080B582B00090009823
:1041D0000138B0F1807F03D3FFE70120019019E09F
:1041E000009801384EF21401CEF2000108604FF041
:1041F000FF300F2100F0A4FA4EF21801CEF20001B8
:10420000002008604EF21002CEF200020721116079
:104210000190FFE7019802B080BD0000000000009F
:1042200080B5FCF7E5FA42F2B460C2F206400078CD
:1042300048B1FFE701F053FC012803D0FFE701F08C
:1042400053FCFFE7FFE780BD40F20000C0F600002E
:104250004EF60851CEF2000108604EF68851CEF2BB
:104260000001086840F4700008607047000000001A
:1042700080B540F29010C2F2004001F03AFC80BDDF
:10428000FFE7FEE70000000084B08DF80F00029108
:104290009DF80F00012832D1FFE74BF20040C5F234
:1042A000002000688007002804D4FFE7029900205E
:1042B000486003E0029901204860FFE74BF20040AC
:1042C000C5F20020006800F01000102804D0FFE7BD
:1042D00002990020086011E04BF20040C5F2002076
:1042E00000688006002804D5FFE702997020086066
:1042F00003E0029910200860FFE7FFE739E04BF286
:104300000040C5F20020016801F001010191006840
:10431000C0F34000009001980099884204D0FFE764
:1043200002990020486003E0029901204860FFE7FD
:104330004BF20040C5F20020006800F01000102889
:1043400004D0FFE702990020086011E04BF2004022
:10435000C5F2002000684006002804D5FFE7029956
:104360007020086003E0029910200860FFE7FFE773
:10437000FFE704B07047000080B588B00790069151
:1043800000208DF8170007980068006820F0405062
:104390000799096808600798806860B9FFE707987F
:1043A0000068006820F04040069949680843079972
:1043B00009680860FFE706980068022815D1FFE742
:1043C0000798006800F5C07004900798006800F531
:1043D000C47003900798006800F5C87002900798B1
:1043E000006800F5D07001902FE00698006803285F
:1043F00015D1FFE70798006800F5A07004900798B2
:10440000006800F5A47003900798006800F5A87094
:1044100002900798006800F5B070019014E00798CA
:10442000006800F5807004900798006800F58470BB
:1044300003900798006800F588700290079800685C
:1044400000F590700190FFE7FFE70698806C0499F3
:1044500008600698C06A90B1FFE70698806A0199E3
:1044600008600498006820F47C10069BD96A1A6BD7
:104470005B6B19431143084304990860FFE70398F5
:10448000006820F01F000699496C084303990860F2
:104490000698806B60B1FFE70698006838B9FFE7BF
:1044A0000698C06B0138079909680864FFE7FFE7C1
:1044B0000698C068002800F0A280FFE70698C0694F
:1044C000002859D0FFE70698806B00B3FFE70498F7
:1044D00000684CF2C001CFF2FF010840069A00923A
:1044E000D168D2F810C0D2F814E0D36941EA0E01C5
:1044F00041EA0C011943536A1943136A1943936B38
:104500001943126C11430843049908602AE0049887
:10451000006843F63F718843069AD168D2F810C00C
:10452000D2F814E0D36941EA0E0141EA0C011943C3
:10453000536A1943126A11430843049908600798A3
:10454000C06AB0F1805F0CD1FFE706984069082887
:1045500007D1FFE70498006840F000600499086004
:10456000FFE7FFE70698806802990860069880696F
:1045700007990968886441E00698806BC8B1FFE735
:10458000049800684FF6C071CFF2FF010840069A08
:10459000D168D2F810C0D2F814E0936B41EA0E0152
:1045A00041EA0C011943126C114308430499086055
:1045B0001FE00498006820F03F00069BD9681A6944
:1045C0005B69194311430843049908600798C06A5E
:1045D000B0F1805F0CD1FFE706984069082807D149
:1045E000FFE70498006840F0006004990860FFE766
:1045F000FFE70698806802990860FFE73CE00698AC
:10460000C06988B3FFE70698806BC8B1FFE70498DC
:1046100000684CF2FF01CFF2FF010840069AD16911
:10462000D2F820C0D2F824E0936B41EA0E0141EAAF
:104630000C011943126C11430843049908600DE002
:104640000498006820F47C50069BD9691A6A5B6A5A
:1046500019431143084304990860FFE706988069ED
:1046600007990968886406E001208DF8170007990A
:1046700008208865FFE7FFE79DF8170008B080BDB8
:1046800080B586B0DDF820C0049003918DF80B2032
:104690000193FFE704980068006A03990840002826
:1046A00018BF01209DF80B1088421ED0FFE7089824
:1046B0000130C8B1FFE7FCF793F80199401A089957
:1046C000884203D8FFE7089868B9FFE704994FF4D8
:1046D000007048650499886D40F0010088650320EA
:1046E0008DF8170005E0FFE7D4E700208DF81700EC
:1046F000FFE79DF8170006B080BD00000000000035
:1047000081B0ADF80200BDF9020000280ED4FFE729
:10471000BDF9021001F01F02012090404A094EF23B
:104720000011CEF2000141F82200FFE701B070470E
:104730004EF60C50CEF200000068C0F30220704725
:1047400082B0ADF806000091BDF9060000280AD439
:10475000FFE700980001BDF906104EF20042CEF2CC
:10476000000288540BE000980001BDF8061001F02B
:104770000F014EF61452CEF200028854FFE702B049
:10478000704700000000000083B00290029800F023
:10479000070000904EF60C51CEF20001086801901F
:1047A00001984FF6FF02104001900198009A40EAEC
:1047B00002200022C0F2FA521043019001980860D2
:1047C00003B070470000000080B582B0ADF806006D
:1047D0000420FEF775FABDF8060040F28C01C2F223
:1047E00000410860BDF80600009000984FF47A710F
:1047F000484300904EF21001CEF20001086840F0EC
:104800000200086000984EF21402CEF2000210601E
:10481000086840F00100086002B080BD00000000A0
:1048200080B582B0ADF8060000200090FFE7009848
:10483000BDF80610884209D2FFE74FF47A7000F005
:1048400007F8FFE7009801300090F0E702B080BD64
:1048500086B00590002001904EF21400CEF20000C8
:1048600000680090059840F28C01C2F2004109688E
:10487000484304904EF21800CEF200000068039006
:10488000FFE74EF21800CEF2000000680290029896
:10489000039988421ED0FFE702980399884207D205
:1048A000FFE703980299411A01980844019008E033
:1048B00000980299401A0399014401980844019014
:1048C000FFE70298039001980499884201D3FFE71B
:1048D00001E0FFE7D5E706B07047000000000000E8
:1048E00082B001900091FFE741F21C00C4F2002069
:1048F00000684006002801D4FFE7F5E79DF80400B2
:1049000041F22801C4F200210860019802B070470A
:1049100080B582B000F094F800F022F8FBF778FF41
:104920004FF496700621022200F0C6FC4FF4167078
:10493000FFF74AFF4FF4E13001F0A6F801F0DEF88E
:1049400001F0E1F801F0E4F80020019001F0E5F851
:10495000012001F0E2F801F0E5F8019802B080BD15
:1049600083B04EF61450CEF2000000688003002899
:1049700001D5FFE71AE0BFF34F8FBFF36F8F4EF6FD
:104980005071CEF2000100200860BFF34F8FBFF3DB
:104990006F8F4EF61451CEF20001086840F40030DB
:1049A0000860BFF34F8FBFF36F8FFFE74EF61450D1
:1049B000CEF200000068C003002801D5FFE73CE00C
:1049C0004EF68451CEF2000100200860BFF34F8FF5
:1049D0004EF68050CEF20000006802900298C0F3BC
:1049E0004E300190FFE70298C0F3C9000090FFE746
:1049F00001990098800761F34D104EF66071CEF278
:104A0000000108600098411E00910028F0D1FFE7E6
:104A10000198411E01910028E5D1FFE7BFF34F8FB8
:104A20004EF61451CEF20001086840F48030086060
:104A3000BFF34F8FBFF36F8FFFE703B070470000E6
:104A400010B58AB000200290099008900790069057
:104A50000590FBF77DFF0298012103918DF8181056
:104A6000059A531C05938DF8192007901F228DF885
:104A7000202087228DF821208DF822008DF8230038
:104A80008DF824108DF825008DF826008DF827006C
:104A900006A80490FBF718FF029A039904988DF872
:104AA0001810059B03F1010CCDF814C08DF81930D6
:104AB0004FF0005307930F238DF820308DF82120FD
:104AC0008DF82210032301938DF823308DF82420D4
:104AD0008DF825108DF826108DF82710FBF7F4FEC1
:104AE000019B029A039904988DF81810DDF814C000
:104AF0000CF1010ECDF814E08DF819C04FF0105CE8
:104B0000CDF81CC04FF0120C8DF820C08DF821207C
:104B10008DF822108DF823308DF824208DF8251083
:104B20008DF826108DF82710FBF7CEFE019B029A18
:104B3000039904988DF81810DDF814C00CF1010EDB
:104B4000CDF814E08DF819C04FF0405CCDF81CC0D2
:104B50004FF00E0C8DF820C08DF821208DF822101A
:104B60008DF823308DF824208DF825108DF826102F
:104B70008DF82710FBF7A8FE019B0299039A049871
:104B80008DF81820DDF814C00CF1010ECDF814E0FA
:104B90008DF819C04FF0C04CCDF81CC04FF0190C67
:104BA0008DF820C08DF821108DF822108DF823305B
:104BB0008DF824208DF825208DF826108DF82710EB
:104BC000FBF782FE019B029A039904988DF8181056
:104BD000DDF814C00CF1010ECDF814E08DF819C009
:104BE0004FF0104CCDF81CC04FF0180CCDF800C0A1
:104BF0008DF820C08DF821208DF822108DF82330FB
:104C00008DF824208DF825108DF826108DF82710AA
:104C1000FBF75AFEDDF800C0019B029A0399049845
:104C20008DF81810DDF814E00EF1010405948DF8EC
:104C300019E04FF0E04ECDF81CE08DF820C08DF863
:104C400021208DF822108DF823308DF824208DF846
:104C500025108DF826108DF82710FBF735FE04205F
:104C6000FBF78EFE0AB010BD80B5A8B0269013A841
:104C70004C21FBF740FB00201290119010900F90F8
:104C80000E900D900C90269820B9FFE701208DF82A
:104C90009F00FDE200200A90139014906621159168
:104CA00001211691179018901A901E90219024902F
:104CB0002590269813A941F28832FEF7B1FA20B167
:104CC000FFE701208DF89F00E2E200200990139099
:104CD00014909921159101211691179018901A900E
:104CE0001E90219024902590269813A941F2883295
:104CF000FEF796FA20B1FFE701208DF89F00C7E28A
:104D000000F0CAFA002008901390149046F29961BE
:104D10001591042116911021179118901A901E9048
:104D2000219024902590269813A941F28832FEF70D
:104D300077FA20B1FFE701208DF89F00A8E200205C
:104D400007901390149049F666111591042116915D
:104D50001021179118901A901E9021902490259060
:104D6000269813A941F28832FEF75AFA20B1FFE7DC
:104D700001208DF89F008BE200F08EFA0020139046
:104D8000149046F299611591042116911021179102
:104D9000082118911A901E90219024904FF00050F5
:104DA0002590269813A941F28832FEF739FA20B1EE
:104DB000FFE701208DF89F006AE200201390149015
:104DC00049F66611159104211691102117910821B9
:104DD00018911A901E90219024904FF00050259029
:104DE000269813A941F28832FEF71AFA20B1FFE79C
:104DF00001208DF89F004BE200F04EFA0020069053
:104E00001390149005211591012116911790189077
:104E10001A901E904FF0807221922291239024903C
:104E20002590269813A941F28832FEF7F9F920B1AE
:104E3000FFE701208DF89F002AE200200E9001215B
:104E40000F9110904FF4800011901020129026982E
:104E50000EA941F28832FEF74FF920B1FFE7012099
:104E60008DF89F0014E200200590139014909F216C
:104E7000159101211691179018901A901E904FF0DD
:104E800080712191032122912390249025902698CE
:104E900013A941F28832FEF7C3F920B1FFE70120E0
:104EA0008DF89F00F4E126980BA941F28832FEF7B5
:104EB0004FFD20B1FFE701208DF89F00E8E10B983E
:104EC00048F2C201C0F23901884204D0FFE7012054
:104ED0008DF89F00DCE10020049013901490712164
:104EE0001591012116911790189019904FF4807226
:104EF0001A924FF440521B921C901E904FF08072F9
:104F000021922291239024902590269813A941F272
:104F10008832FEF785F920B1FFE701208DF89F0068
:104F2000B6E126980BA941F28832FEF711FD20B1B7
:104F3000FFE701208DF89F00AAE100200390139065
:104F400014900621159101211691179018901A902E
:104F50001E90219024902590269813A941F2883222
:104F6000FEF75EF920B1FFE701208DF89F008FE189
:104F700000200290139014900521159101211691A3
:104F8000179018901A901E904FF0807221922291E3
:104F9000239024902590269813A941F28832FEF799
:104FA0003FF920B1FFE701208DF89F0070E102205A
:104FB0000E900F90002010904FF480001190102060
:104FC000129026980EA941F28832FEF795F820B18A
:104FD000FFE701208DF89F005AE19DF82C0000F0BA
:104FE000FC008DF82C009DF82C0040F002008DF89C
:104FF0002C00002001901390149072211591012132
:1050000016911790189019904FF480721A924FF4DD
:1050100040521B921C901E904FF080722192229160
:10502000239024902590269813A941F28832FEF708
:10503000F7F820B1FFE701208DF89F0028E12698BE
:105040000BA941F28832FEF75FFD20B1FFE7012096
:105050008DF89F001CE100211391149147F28E10EE
:105060001590042016901022179208221892199178
:105070004FF480621A924FF440521B924FF4006238
:105080001C921E914FF08062219201222292239164
:1050900024904FF000502590269813A941F28832B1
:1050A000FEF7BEF820B1FFE701208DF89F00EFE08A
:1050B00026980BA941F28832FEF74AFC20B1FFE79F
:1050C00001208DF89F00E3E09DF82C0000F0030024
:1050D000022804D0FFE701208DF89F00D8E0269831
:1050E0000121FEF7DDFC20B1FFE701208DF89F00D4
:1050F000CEE000201390149040F2F9611591042144
:10510000169110211791082118911A901E90219044
:1051100024904FF000502590269813A941F2883230
:10512000FEF77EF820B1FFE701208DF89F00AFE089
:1051300000211391149140F2FA501590042016901A
:10514000102217920822189219914FF480621A9235
:105150004FF440521B924FF400621C921E914FF08C
:105160008062219201222292239124904FF00050DC
:105170002590269813A941F28832FEF751F820B104
:10518000FFE701208DF89F0082E002200E900F9033
:10519000002010904FF4800011901020129026985B
:1051A0000EA941F28832FDF7A7FF20B1FFE70120E9
:1051B0008DF89F006CE001201390002014904EF6B3
:1051C0001161159104211691102117910821189150
:1051D0004FF480611A914FF440511B914FF40061DC
:1051E0001C911E904FF0806021904FF00060239042
:1051F000142024904FF000502590269813A941F2D6
:105200008832FEF70DF820B1FFE701208DF89F00EE
:105210003EE0022013900020149041F2ED21159100
:105220000421169110211791082118914FF48061E3
:105230001A914FF440511B914FF400611C911E9044
:105240004FF0806121914FF00061239124904FF045
:1052500000502590269813A941F28832FDF7E0FF0F
:1052600020B1FFE701208DF89F0011E008200C908D
:1052700000200D9026980CA9FEF76EFA20B1FFE7EA
:1052800001208DF89F0003E000208DF89F00FFE7CC
:105290009DF89F0028B080BD81B042F21070009050
:1052A000FFE700980138009008B1FFE7F9E701B087
:1052B000704700000000000080B592B010900F9180
:1052C0000E92002002900D900C900B900A90099085
:1052D0000890079006900420FBF79EFB20B1FFE7A3
:1052E00001208DF84700BBE0FBF762FCFBF76CFC8C
:1052F000FFE744F25450C5F60200016841F0020194
:105300000160006805900598FFE74FF40030FDF755
:10531000CBFC4FF48020FDF7C7FC0120FBF7ECFB32
:1053200020B1FFE701208DF8470099E0FBF714FC5E
:1053300020B1FFE701208DF8470091E0FFE744F23C
:105340003C50C5F60200016841F000510160006860
:1053500004900498FFE7FFE744F23C50C5F60200D2
:10536000016841F080410160006803900398FFE705
:1053700042F21860C2F206400090292101604FF409
:1053800080314160012181614FF48051C16102226D
:105390000192426282620F99C162109901630E9973
:1053A00041638263C2630264426400218164C26417
:1053B00002654FF0060EC0F854E04FF4967CC0F83A
:1053C00058C0C2650C230366426603238366C0F897
:1053D0006CE00167426782674FF0180EC0F87CE00E
:1053E000C0F880C0C0F884204FF00F0CC0F888C00F
:1053F000C0F88C20C0F89030C0F89420C0F8981005
:10540000FDF76EF820B1FFE701208DF8470027E097
:105410003F20069003200790002008900820099064
:1054200004200A9040200B904FF480600C904FF4C1
:1054300080400D9006A83721FCF71EFC20B1FFE745
:1054400001208DF847000BE000F09AFA42F2B461B7
:10545000C2F206410120087000208DF84700FFE7E6
:105460009DF8470012B080BD80B5AAB0289015A85D
:105470004C21FAF740FF00201490139012901190E5
:1054800010900F900E90289820B9FFE701208DF81A
:10549000A7006EE200200C901590169066211791DF
:1054A0000121189119901A901C9020902390269019
:1054B0002790289815A941F28832FDF7B1FE20B156
:1054C000FFE701208DF8A70053E200200B90159014
:1054D0001690992117910121189119901A901C90FA
:1054E0002090239026902790289815A941F2883281
:1054F000FDF796FE20B1FFE701208DF8A70038E206
:10550000FFF7CAFE00200A9015901690902117917F
:105510000121189119901A901B904FF480711C91E1
:105520004FF400511D911E9020904FF080712391F7
:1055300004212491259026902790289815A941F2BE
:105540008832FDF76DFE20B1FFE701208DF8A7003E
:105550000FE228980DA941F28832FEF7F9F920B13F
:10556000FFE701208DF8A70003E29DF834009DF8C5
:10557000361040EA012041F2EF7188420BD1FFE77B
:105580009DF835009DF8371040EA012041F2EF7197
:1055900088421AD0FFE79DF834009DF8361040EAA3
:1055A000012041F2687188420BD1FFE79DF8350078
:1055B0009DF8371040EA012041F26871884204D01A
:1055C000FFE701208DF8A700D3E100200990159096
:1055D0001690352117910121189119901A901C905D
:1055E00020904FF0807123910221249125902690E4
:1055F0002790289815A941F28832FDF711FE20B1B5
:10560000FFE701208DF8A700B3E128980DA941F22A
:105610008832FEF79DF920B1FFE701208DF8A70041
:10562000A7E10020089015901690062117910121FE
:10563000189119901A901C902090239026902790F2
:10564000289815A941F28832FDF7EAFD20B1FFE75D
:1056500001208DF8A7008CE100200790159016908E
:10566000052117910121189119901A901C902090F2
:105670004FF080712391022124912590269027904C
:10568000289815A941F28832FDF7CAFD20B1FFE73D
:1056900001208DF8A7006CE140F2022010901190DB
:1056A000002012904FF4800013901020149028983E
:1056B00010A941F28832FDF71FFD20B1FFE701205C
:1056C0008DF8A70055E1BDF834004FF6FD510840B4
:1056D000ADF83400BDF8340040F202210843ADF8C3
:1056E0003400002006901590169031211791012169
:1056F000189119901A901C9020904FF0807123916E
:1057000002212491259026902790289815A941F2EE
:105710008832FDF785FD20B1FFE701208DF8A70055
:1057200027E128980DA941F28832FEF7EDF920B162
:10573000FFE701208DF8A7001BE1002005901590E0
:105740001690052117910121189119901A901C901B
:1057500020904FF080712391022124912590269072
:105760002790289815A941F28832FDF759FD20B1FC
:10577000FFE701208DF8A700FBE00020109040F229
:105780000111119112904FF4800013901020149089
:10579000289810A941F28832FDF7AEFC20B1FFE74E
:1057A00001208DF8A700E4E00020049015901690E9
:1057B000352117910121189119901A901C90209071
:1057C0004FF08071239102212491259026902790FB
:1057D000289815A941F28832FDF722FD20B1FFE794
:1057E00001208DF8A700C4E028980DA941F2883265
:1057F000FEF7AEF820B1FFE701208DF8A700B8E072
:10580000BDF8340040F202210840884204D0FFE78E
:1058100001208DF8A700ACE00020039015901690B1
:10582000062117910121189119901A901C9020902F
:10583000239026902790289815A941F28832FDF7E9
:10584000EFFC20B1FFE701208DF8A70091E00020D8
:105850000290159016900521179101211891199029
:105860001A901C9020904FF0807123910221249176
:10587000259026902790289815A941F28832FDF7A7
:10588000CFFC20B1FFE701208DF8A70071E040F2C6
:10589000022010901190002012904FF4800013907D
:1058A00010201490289810A941F28832FDF724FCAA
:1058B00020B1FFE701208DF8A7005AE001211591E2
:1058C00000201690EB221792189119901A904FF41D
:1058D00040711C914FF400511D911E9020904FF08B
:1058E000407123912590062126912790289815A98B
:1058F00041F28832FDF794FC20B1FFE701208DF8DA
:10590000A70036E002201590002001901690322169
:1059100017910121189119901A904FF480711C91E0
:105920004FF400511D911E9020904FF04071239133
:10593000259026902790289815A941F28832FDF7E6
:105940006FFC20B1FFE701208DF8A70011E00820CF
:105950000E9000200F9028980EA9FDF7FDFE20B1B3
:10596000FFE701208DF8A70003E000208DF8A700D5
:10597000FFE79DF8A7002AB080BD000000000000EE
:1059800080B59AB002A80190002100F011F80198AA
:10599000FFF76AF948B1FFE702A80090012100F083
:1059A00007F80098FFF760FDFFE71AB080BD000020
:1059B00080B58AB009908DF82310002005900490DE
:1059C0000390099907910690FFE706985F2809D888
:1059D000FFE70799069A00208854FFE706980130F0
:1059E0000690F2E7099945F20000C5F20020029006
:1059F00008600998FDF7DCFC02980999086009998C
:105A0000042048609DF8230040B9FFE70999002071
:105A1000886009994FF08070C86007E009994020BC
:105A2000886009994FF00070C860FFE70999182055
:105A30000861099901204861099900200190886155
:105A40000999C86109990862099A03215162099963
:105A500088620999C8620999086309994863099994
:105A600088630999C8630998FDF77AFD01981021A8
:105A700003910490099803A941F28832FDF734FAA2
:105A80000AB080BD0000000080B582B0019040F2F5
:105A90009010C2F20040009041F20001C4F20021D7
:105AA00001600199416000218160C16001610C22A7
:105AB00042618161C16101624162816200F037F837
:105AC000009840F24011C2F20041012200F002F8B9
:105AD00002B080BD41F2F17CC9F2000C604749F68A
